{
  "_format": "hh-sol-artifact-1",
  "contractName": "Viper",
  "sourceName": "contracts/Viper.sol",
  "abi": [
    {
      "inputs": [
        {
          "internalType": "address",
          "name": "metadata_",
          "type": "address"
        },
        {
          "internalType": "address",
          "name": "splitter_",
          "type": "address"
        }
      ],
      "stateMutability": "nonpayable",
      "type": "constructor"
    },
    {
      "inputs": [],
      "name": "ApprovalCallerNotOwnerNorApproved",
      "type": "error"
    },
    {
      "inputs": [],
      "name": "ApprovalQueryForNonexistentToken",
      "type": "error"
    },
    {
      "inputs": [],
      "name": "BalanceQueryForZeroAddress",
      "type": "error"
    },
    {
      "inputs": [],
      "name": "InvalidQueryRange",
      "type": "error"
    },
    {
      "inputs": [],
      "name": "MintERC2309QuantityExceedsLimit",
      "type": "error"
    },
    {
      "inputs": [],
      "name": "MintToZeroAddress",
      "type": "error"
    },
    {
      "inputs": [],
      "name": "MintZeroQuantity",
      "type": "error"
    },
    {
      "inputs": [],
      "name": "OwnerQueryForNonexistentToken",
      "type": "error"
    },
    {
      "inputs": [],
      "name": "OwnershipNotInitializedForExtraData",
      "type": "error"
    },
    {
      "inputs": [],
      "name": "TransferCallerNotOwnerNorApproved",
      "type": "error"
    },
    {
      "inputs": [],
      "name": "TransferFromIncorrectOwner",
      "type": "error"
    },
    {
      "inputs": [],
      "name": "TransferToNonERC721ReceiverImplementer",
      "type": "error"
    },
    {
      "inputs": [],
      "name": "TransferToZeroAddress",
      "type": "error"
    },
    {
      "inputs": [],
      "name": "URIQueryForNonexistentToken",
      "type": "error"
    },
    {
      "anonymous": false,
      "inputs": [
        {
          "indexed": true,
          "internalType": "address",
          "name": "owner",
          "type": "address"
        },
        {
          "indexed": true,
          "internalType": "address",
          "name": "approved",
          "type": "address"
        },
        {
          "indexed": true,
          "internalType": "uint256",
          "name": "tokenId",
          "type": "uint256"
        }
      ],
      "name": "Approval",
      "type": "event"
    },
    {
      "anonymous": false,
      "inputs": [
        {
          "indexed": true,
          "internalType": "address",
          "name": "owner",
          "type": "address"
        },
        {
          "indexed": true,
          "internalType": "address",
          "name": "operator",
          "type": "address"
        },
        {
          "indexed": false,
          "internalType": "bool",
          "name": "approved",
          "type": "bool"
        }
      ],
      "name": "ApprovalForAll",
      "type": "event"
    },
    {
      "anonymous": false,
      "inputs": [
        {
          "indexed": false,
          "internalType": "uint256",
          "name": "_fromTokenId",
          "type": "uint256"
        },
        {
          "indexed": false,
          "internalType": "uint256",
          "name": "_toTokenId",
          "type": "uint256"
        }
      ],
      "name": "BatchMetadataUpdate",
      "type": "event"
    },
    {
      "anonymous": false,
      "inputs": [
        {
          "indexed": true,
          "internalType": "uint256",
          "name": "fromTokenId",
          "type": "uint256"
        },
        {
          "indexed": false,
          "internalType": "uint256",
          "name": "toTokenId",
          "type": "uint256"
        },
        {
          "indexed": true,
          "internalType": "address",
          "name": "from",
          "type": "address"
        },
        {
          "indexed": true,
          "internalType": "address",
          "name": "to",
          "type": "address"
        }
      ],
      "name": "ConsecutiveTransfer",
      "type": "event"
    },
    {
      "anonymous": false,
      "inputs": [
        {
          "indexed": true,
          "internalType": "address",
          "name": "to",
          "type": "address"
        },
        {
          "indexed": true,
          "internalType": "bool",
          "name": "success",
          "type": "bool"
        },
        {
          "indexed": false,
          "internalType": "bytes",
          "name": "returnData",
          "type": "bytes"
        },
        {
          "indexed": false,
          "internalType": "uint256",
          "name": "amount",
          "type": "uint256"
        }
      ],
      "name": "EthMoved",
      "type": "event"
    },
    {
      "anonymous": false,
      "inputs": [
        {
          "indexed": false,
          "internalType": "uint256",
          "name": "_tokenId",
          "type": "uint256"
        }
      ],
      "name": "MetadataUpdate",
      "type": "event"
    },
    {
      "anonymous": false,
      "inputs": [
        {
          "indexed": true,
          "internalType": "address",
          "name": "previousOwner",
          "type": "address"
        },
        {
          "indexed": true,
          "internalType": "address",
          "name": "newOwner",
          "type": "address"
        }
      ],
      "name": "OwnershipTransferred",
      "type": "event"
    },
    {
      "anonymous": false,
      "inputs": [
        {
          "indexed": true,
          "internalType": "address",
          "name": "from",
          "type": "address"
        },
        {
          "indexed": true,
          "internalType": "address",
          "name": "to",
          "type": "address"
        },
        {
          "indexed": true,
          "internalType": "uint256",
          "name": "tokenId",
          "type": "uint256"
        }
      ],
      "name": "Transfer",
      "type": "event"
    },
    {
      "stateMutability": "payable",
      "type": "fallback"
    },
    {
      "inputs": [],
      "name": "MAX_SUPPLY",
      "outputs": [
        {
          "internalType": "uint256",
          "name": "",
          "type": "uint256"
        }
      ],
      "stateMutability": "view",
      "type": "function"
    },
    {
      "inputs": [
        {
          "internalType": "address",
          "name": "recipient",
          "type": "address"
        },
        {
          "internalType": "uint256",
          "name": "quantity",
          "type": "uint256"
        }
      ],
      "name": "adminMint",
      "outputs": [],
      "stateMutability": "nonpayable",
      "type": "function"
    },
    {
      "inputs": [
        {
          "internalType": "address",
          "name": "_wallet",
          "type": "address"
        },
        {
          "internalType": "bytes32[]",
          "name": "_proof",
          "type": "bytes32[]"
        }
      ],
      "name": "allowListed",
      "outputs": [
        {
          "internalType": "bool",
          "name": "",
          "type": "bool"
        }
      ],
      "stateMutability": "view",
      "type": "function"
    },
    {
      "inputs": [
        {
          "internalType": "address",
          "name": "to",
          "type": "address"
        },
        {
          "internalType": "uint256",
          "name": "tokenId",
          "type": "uint256"
        }
      ],
      "name": "approve",
      "outputs": [],
      "stateMutability": "payable",
      "type": "function"
    },
    {
      "inputs": [
        {
          "internalType": "address",
          "name": "owner",
          "type": "address"
        }
      ],
      "name": "balanceOf",
      "outputs": [
        {
          "internalType": "uint256",
          "name": "",
          "type": "uint256"
        }
      ],
      "stateMutability": "view",
      "type": "function"
    },
    {
      "inputs": [],
      "name": "biteByViper",
      "outputs": [
        {
          "internalType": "address",
          "name": "",
          "type": "address"
        }
      ],
      "stateMutability": "view",
      "type": "function"
    },
    {
      "inputs": [
        {
          "internalType": "uint256",
          "name": "tokenId",
          "type": "uint256"
        }
      ],
      "name": "explicitOwnershipOf",
      "outputs": [
        {
          "components": [
            {
              "internalType": "address",
              "name": "addr",
              "type": "address"
            },
            {
              "internalType": "uint64",
              "name": "startTimestamp",
              "type": "uint64"
            },
            {
              "internalType": "bool",
              "name": "burned",
              "type": "bool"
            },
            {
              "internalType": "uint24",
              "name": "extraData",
              "type": "uint24"
            }
          ],
          "internalType": "struct IERC721A.TokenOwnership",
          "name": "",
          "type": "tuple"
        }
      ],
      "stateMutability": "view",
      "type": "function"
    },
    {
      "inputs": [
        {
          "internalType": "uint256[]",
          "name": "tokenIds",
          "type": "uint256[]"
        }
      ],
      "name": "explicitOwnershipsOf",
      "outputs": [
        {
          "components": [
            {
              "internalType": "address",
              "name": "addr",
              "type": "address"
            },
            {
              "internalType": "uint64",
              "name": "startTimestamp",
              "type": "uint64"
            },
            {
              "internalType": "bool",
              "name": "burned",
              "type": "bool"
            },
            {
              "internalType": "uint24",
              "name": "extraData",
              "type": "uint24"
            }
          ],
          "internalType": "struct IERC721A.TokenOwnership[]",
          "name": "",
          "type": "tuple[]"
        }
      ],
      "stateMutability": "view",
      "type": "function"
    },
    {
      "inputs": [
        {
          "internalType": "uint256",
          "name": "tokenId",
          "type": "uint256"
        }
      ],
      "name": "getApproved",
      "outputs": [
        {
          "internalType": "address",
          "name": "",
          "type": "address"
        }
      ],
      "stateMutability": "view",
      "type": "function"
    },
    {
      "inputs": [
        {
          "internalType": "address",
          "name": "owner",
          "type": "address"
        },
        {
          "internalType": "address",
          "name": "operator",
          "type": "address"
        }
      ],
      "name": "isApprovedForAll",
      "outputs": [
        {
          "internalType": "bool",
          "name": "",
          "type": "bool"
        }
      ],
      "stateMutability": "view",
      "type": "function"
    },
    {
      "inputs": [
        {
          "internalType": "uint256",
          "name": "",
          "type": "uint256"
        }
      ],
      "name": "lengths",
      "outputs": [
        {
          "internalType": "uint256",
          "name": "",
          "type": "uint256"
        }
      ],
      "stateMutability": "view",
      "type": "function"
    },
    {
      "inputs": [],
      "name": "merkleRoot",
      "outputs": [
        {
          "internalType": "bytes32",
          "name": "",
          "type": "bytes32"
        }
      ],
      "stateMutability": "view",
      "type": "function"
    },
    {
      "inputs": [],
      "name": "metadata",
      "outputs": [
        {
          "internalType": "address",
          "name": "",
          "type": "address"
        }
      ],
      "stateMutability": "view",
      "type": "function"
    },
    {
      "inputs": [],
      "name": "mint",
      "outputs": [],
      "stateMutability": "payable",
      "type": "function"
    },
    {
      "inputs": [
        {
          "internalType": "address",
          "name": "recipient",
          "type": "address"
        },
        {
          "internalType": "uint256",
          "name": "quantity",
          "type": "uint256"
        }
      ],
      "name": "mint",
      "outputs": [],
      "stateMutability": "payable",
      "type": "function"
    },
    {
      "inputs": [
        {
          "internalType": "address",
          "name": "recipient",
          "type": "address"
        }
      ],
      "name": "mint",
      "outputs": [],
      "stateMutability": "payable",
      "type": "function"
    },
    {
      "inputs": [
        {
          "internalType": "uint256",
          "name": "quantity",
          "type": "uint256"
        }
      ],
      "name": "mint",
      "outputs": [],
      "stateMutability": "payable",
      "type": "function"
    },
    {
      "inputs": [
        {
          "internalType": "uint256",
          "name": "quantity",
          "type": "uint256"
        },
        {
          "internalType": "bytes32[]",
          "name": "_proof",
          "type": "bytes32[]"
        }
      ],
      "name": "mintAllowList",
      "outputs": [],
      "stateMutability": "payable",
      "type": "function"
    },
    {
      "inputs": [],
      "name": "name",
      "outputs": [
        {
          "internalType": "string",
          "name": "",
          "type": "string"
        }
      ],
      "stateMutability": "view",
      "type": "function"
    },
    {
      "inputs": [],
      "name": "owner",
      "outputs": [
        {
          "internalType": "address",
          "name": "",
          "type": "address"
        }
      ],
      "stateMutability": "view",
      "type": "function"
    },
    {
      "inputs": [
        {
          "internalType": "uint256",
          "name": "tokenId",
          "type": "uint256"
        }
      ],
      "name": "ownerOf",
      "outputs": [
        {
          "internalType": "address",
          "name": "",
          "type": "address"
        }
      ],
      "stateMutability": "view",
      "type": "function"
    },
    {
      "inputs": [],
      "name": "paused",
      "outputs": [
        {
          "internalType": "bool",
          "name": "",
          "type": "bool"
        }
      ],
      "stateMutability": "view",
      "type": "function"
    },
    {
      "inputs": [],
      "name": "premint",
      "outputs": [
        {
          "internalType": "uint256",
          "name": "",
          "type": "uint256"
        }
      ],
      "stateMutability": "view",
      "type": "function"
    },
    {
      "inputs": [],
      "name": "price",
      "outputs": [
        {
          "internalType": "uint256",
          "name": "",
          "type": "uint256"
        }
      ],
      "stateMutability": "view",
      "type": "function"
    },
    {
      "inputs": [
        {
          "internalType": "address payable",
          "name": "_to",
          "type": "address"
        }
      ],
      "name": "recoverUnsuccessfulMintPayment",
      "outputs": [],
      "stateMutability": "nonpayable",
      "type": "function"
    },
    {
      "inputs": [],
      "name": "renounceOwnership",
      "outputs": [],
      "stateMutability": "nonpayable",
      "type": "function"
    },
    {
      "inputs": [
        {
          "internalType": "uint256",
          "name": "_tokenId",
          "type": "uint256"
        },
        {
          "internalType": "uint256",
          "name": "_salePrice",
          "type": "uint256"
        }
      ],
      "name": "royaltyInfo",
      "outputs": [
        {
          "internalType": "address",
          "name": "",
          "type": "address"
        },
        {
          "internalType": "uint256",
          "name": "",
          "type": "uint256"
        }
      ],
      "stateMutability": "view",
      "type": "function"
    },
    {
      "inputs": [
        {
          "internalType": "address",
          "name": "from",
          "type": "address"
        },
        {
          "internalType": "address",
          "name": "to",
          "type": "address"
        },
        {
          "internalType": "uint256",
          "name": "tokenId",
          "type": "uint256"
        }
      ],
      "name": "safeTransferFrom",
      "outputs": [],
      "stateMutability": "payable",
      "type": "function"
    },
    {
      "inputs": [
        {
          "internalType": "address",
          "name": "from",
          "type": "address"
        },
        {
          "internalType": "address",
          "name": "to",
          "type": "address"
        },
        {
          "internalType": "uint256",
          "name": "tokenId",
          "type": "uint256"
        },
        {
          "internalType": "bytes",
          "name": "_data",
          "type": "bytes"
        }
      ],
      "name": "safeTransferFrom",
      "outputs": [],
      "stateMutability": "payable",
      "type": "function"
    },
    {
      "inputs": [
        {
          "internalType": "address",
          "name": "operator",
          "type": "address"
        },
        {
          "internalType": "bool",
          "name": "approved",
          "type": "bool"
        }
      ],
      "name": "setApprovalForAll",
      "outputs": [],
      "stateMutability": "nonpayable",
      "type": "function"
    },
    {
      "inputs": [
        {
          "internalType": "address",
          "name": "biteByViper_",
          "type": "address"
        }
      ],
      "name": "setBiteByViper",
      "outputs": [],
      "stateMutability": "nonpayable",
      "type": "function"
    },
    {
      "inputs": [
        {
          "internalType": "bytes32",
          "name": "merkleRoot_",
          "type": "bytes32"
        }
      ],
      "name": "setMerkleRoot",
      "outputs": [],
      "stateMutability": "nonpayable",
      "type": "function"
    },
    {
      "inputs": [
        {
          "internalType": "address",
          "name": "metadata_",
          "type": "address"
        }
      ],
      "name": "setMetadata",
      "outputs": [],
      "stateMutability": "nonpayable",
      "type": "function"
    },
    {
      "inputs": [
        {
          "internalType": "bool",
          "name": "paused_",
          "type": "bool"
        }
      ],
      "name": "setPause",
      "outputs": [],
      "stateMutability": "nonpayable",
      "type": "function"
    },
    {
      "inputs": [
        {
          "internalType": "uint256",
          "name": "premint_",
          "type": "uint256"
        }
      ],
      "name": "setPremint",
      "outputs": [],
      "stateMutability": "nonpayable",
      "type": "function"
    },
    {
      "inputs": [
        {
          "internalType": "uint256",
          "name": "price_",
          "type": "uint256"
        }
      ],
      "name": "setPrice",
      "outputs": [],
      "stateMutability": "nonpayable",
      "type": "function"
    },
    {
      "inputs": [
        {
          "internalType": "address",
          "name": "royaltyReceiver",
          "type": "address"
        },
        {
          "internalType": "uint96",
          "name": "royaltyPercentage",
          "type": "uint96"
        }
      ],
      "name": "setRoyaltyPercentage",
      "outputs": [],
      "stateMutability": "nonpayable",
      "type": "function"
    },
    {
      "inputs": [
        {
          "internalType": "address",
          "name": "splitter_",
          "type": "address"
        }
      ],
      "name": "setSplitter",
      "outputs": [],
      "stateMutability": "nonpayable",
      "type": "function"
    },
    {
      "inputs": [
        {
          "internalType": "uint256",
          "name": "startdate_",
          "type": "uint256"
        }
      ],
      "name": "setStartdate",
      "outputs": [],
      "stateMutability": "nonpayable",
      "type": "function"
    },
    {
      "inputs": [],
      "name": "splitter",
      "outputs": [
        {
          "internalType": "address",
          "name": "",
          "type": "address"
        }
      ],
      "stateMutability": "view",
      "type": "function"
    },
    {
      "inputs": [],
      "name": "startdate",
      "outputs": [
        {
          "internalType": "uint256",
          "name": "",
          "type": "uint256"
        }
      ],
      "stateMutability": "view",
      "type": "function"
    },
    {
      "inputs": [
        {
          "internalType": "bytes4",
          "name": "interfaceId",
          "type": "bytes4"
        }
      ],
      "name": "supportsInterface",
      "outputs": [
        {
          "internalType": "bool",
          "name": "",
          "type": "bool"
        }
      ],
      "stateMutability": "view",
      "type": "function"
    },
    {
      "inputs": [],
      "name": "symbol",
      "outputs": [
        {
          "internalType": "string",
          "name": "",
          "type": "string"
        }
      ],
      "stateMutability": "view",
      "type": "function"
    },
    {
      "inputs": [
        {
          "internalType": "uint256",
          "name": "id",
          "type": "uint256"
        }
      ],
      "name": "tokenURI",
      "outputs": [
        {
          "internalType": "string",
          "name": "",
          "type": "string"
        }
      ],
      "stateMutability": "view",
      "type": "function"
    },
    {
      "inputs": [
        {
          "internalType": "address",
          "name": "owner",
          "type": "address"
        }
      ],
      "name": "tokensOfOwner",
      "outputs": [
        {
          "internalType": "uint256[]",
          "name": "",
          "type": "uint256[]"
        }
      ],
      "stateMutability": "view",
      "type": "function"
    },
    {
      "inputs": [
        {
          "internalType": "address",
          "name": "owner",
          "type": "address"
        },
        {
          "internalType": "uint256",
          "name": "start",
          "type": "uint256"
        },
        {
          "internalType": "uint256",
          "name": "stop",
          "type": "uint256"
        }
      ],
      "name": "tokensOfOwnerIn",
      "outputs": [
        {
          "internalType": "uint256[]",
          "name": "",
          "type": "uint256[]"
        }
      ],
      "stateMutability": "view",
      "type": "function"
    },
    {
      "inputs": [],
      "name": "totalSupply",
      "outputs": [
        {
          "internalType": "uint256",
          "name": "",
          "type": "uint256"
        }
      ],
      "stateMutability": "view",
      "type": "function"
    },
    {
      "inputs": [
        {
          "internalType": "address",
          "name": "from",
          "type": "address"
        },
        {
          "internalType": "address",
          "name": "to",
          "type": "address"
        },
        {
          "internalType": "uint256",
          "name": "tokenId",
          "type": "uint256"
        }
      ],
      "name": "transferFrom",
      "outputs": [],
      "stateMutability": "payable",
      "type": "function"
    },
    {
      "inputs": [
        {
          "internalType": "address",
          "name": "newOwner",
          "type": "address"
        }
      ],
      "name": "transferOwnership",
      "outputs": [],
      "stateMutability": "nonpayable",
      "type": "function"
    },
    {
      "stateMutability": "payable",
      "type": "receive"
    }
  ],
  "bytecode": "0x6080604052600c805460ff1916905566c55f7bc23038e3600d556364ad98a06101f7556364ad6e706101f8557fcedaa7d5476066e2c0ccb625e3e66e2e88db2ec3bdb457c3bd92faf5913cee0a6101f9553480156200005d57600080fd5b5060405162002f1a38038062002f1a8339810160408190526200008091620002aa565b604051806040016040528060058152602001642b24a822a960d91b815250604051806040016040528060038152602001622b282960e91b8152508160029081620000cb919062000387565b506003620000da828262000387565b5050600160005550620000ed3362000136565b6001600b55600f80546001600160a01b038085166001600160a01b0319928316179092556010805492841692909116821790556200012e906103e862000188565b505062000453565b600880546001600160a01b038381166001600160a01b0319831681179093556040519116919082907f8be0079c531659141344cd1fd0a4f28419497f9722a3daafe3b4186f6b6457e090600090a35050565b6127106001600160601b0382161115620001fc5760405162461bcd60e51b815260206004820152602a60248201527f455243323938313a20726f79616c7479206665652077696c6c206578636565646044820152692073616c65507269636560b01b60648201526084015b60405180910390fd5b6001600160a01b038216620002545760405162461bcd60e51b815260206004820152601960248201527f455243323938313a20696e76616c6964207265636569766572000000000000006044820152606401620001f3565b604080518082019091526001600160a01b039092168083526001600160601b039091166020909201829052600160a01b90910217600955565b80516001600160a01b0381168114620002a557600080fd5b919050565b60008060408385031215620002be57600080fd5b620002c9836200028d565b9150620002d9602084016200028d565b90509250929050565b634e487b7160e01b600052604160045260246000fd5b600181811c908216806200030d57607f821691505b6020821081036200032e57634e487b7160e01b600052602260045260246000fd5b50919050565b601f8211156200038257600081815260208120601f850160051c810160208610156200035d5750805b601f850160051c820191505b818110156200037e5782815560010162000369565b5050505b505050565b81516001600160401b03811115620003a357620003a3620002e2565b620003bb81620003b48454620002f8565b8462000334565b602080601f831160018114620003f35760008415620003da5750858301515b600019600386901b1c1916600185901b1785556200037e565b600085815260208120601f198616915b82811015620004245788860151825594840194600190910190840162000403565b5085821015620004435787850151600019600388901b60f8161c191681555b5050505050600190811b01905550565b612ab780620004636000396000f3fe6080604052600436106102b25760003560e01c80637cb6475911610175578063bedb86fb116100dc578063d410f56911610095578063f2fde38b1161006f578063f2fde38b14610846578063f363c9ce14610866578063f3cb838514610886578063fa05a657146108a6576102c1565b8063d410f569146107bd578063e58306f9146107dd578063e985e9c5146107fd576102c1565b8063bedb86fb146106f9578063c09fd8ef14610719578063c23dc68f14610739578063c87b56dd14610766578063c93fc83d14610786578063cde9f2ea146107a6576102c1565b806395d89b411161012e57806395d89b411461066857806399a2557a1461067d578063a035b1fe1461069d578063a0712d68146106b3578063a22cb465146106c6578063b88d4fde146106e6576102c1565b80637cb647591461059d578063818779ef146105bd5780638462151c146105dd5780638da5cb5b1461060a57806391b7f5ed1461062857806392d1109214610648576102c1565b8063392f37e9116102195780635c975abb116101d25780635c975abb146104fb5780636352211e146105155780636a6278421461053557806370a0823114610548578063715018a61461056857806375fb32251461057d576102c1565b8063392f37e9146104515780633cd8045e1461047157806340c10f191461049157806342842e0e146104a457806348a1e66b146104b75780635bbb2177146104ce576102c1565b806323b872dd1161026b57806323b872dd14610392578063247155ff146103a557806325e3d69f146103c55780632a55205a146103e55780632eb4a7ab1461042457806332cb6b0c1461043b576102c1565b806301ffc9a7146102c957806306fdde03146102fe578063081812fc14610320578063095ea7b3146103585780631249c58b146102c157806318160ddd1461036b576102c1565b366102c1576102bf6108b9565b005b6102bf6108b9565b3480156102d557600080fd5b506102e96102e4366004612347565b6108c6565b60405190151581526020015b60405180910390f35b34801561030a57600080fd5b50610313610942565b6040516102f591906123bc565b34801561032c57600080fd5b5061034061033b3660046123cf565b6109d4565b6040516001600160a01b0390911681526020016102f5565b6102bf6103663660046123fd565b610a18565b34801561037757600080fd5b5060015460005403600019015b6040519081526020016102f5565b6102bf6103a0366004612429565b610ab8565b3480156103b157600080fd5b506102e96103c03660046124ae565b610b75565b3480156103d157600080fd5b506103846103e03660046123cf565b610bf8565b3480156103f157600080fd5b50610405610400366004612502565b610c10565b604080516001600160a01b0390931683526020830191909152016102f5565b34801561043057600080fd5b506103846101f95481565b34801561044757600080fd5b506103846101e681565b34801561045d57600080fd5b50600f54610340906001600160a01b031681565b34801561047d57600080fd5b50601054610340906001600160a01b031681565b6102bf61049f3660046123fd565b610cbe565b6102bf6104b2366004612429565b610d17565b3480156104c357600080fd5b506103846101f85481565b3480156104da57600080fd5b506104ee6104e9366004612524565b610d32565b6040516102f591906125a1565b34801561050757600080fd5b50600c546102e99060ff1681565b34801561052157600080fd5b506103406105303660046123cf565b610dfd565b6102bf6105433660046125e3565b610e08565b34801561055457600080fd5b506103846105633660046125e3565b610e16565b34801561057457600080fd5b506102bf610e64565b34801561058957600080fd5b506102bf6105983660046123cf565b610e76565b3480156105a957600080fd5b506102bf6105b83660046123cf565b610e84565b3480156105c957600080fd5b506102bf6105d8366004612600565b610e92565b3480156105e957600080fd5b506105fd6105f83660046125e3565b610ea4565b6040516102f59190612645565b34801561061657600080fd5b506008546001600160a01b0316610340565b34801561063457600080fd5b506102bf6106433660046123cf565b610fac565b34801561065457600080fd5b50600e54610340906001600160a01b031681565b34801561067457600080fd5b50610313610fb9565b34801561068957600080fd5b506105fd61069836600461267d565b610fc8565b3480156106a957600080fd5b50610384600d5481565b6102bf6106c13660046123cf565b61114d565b3480156106d257600080fd5b506102bf6106e13660046126c7565b611157565b6102bf6106f4366004612769565b6111c3565b34801561070557600080fd5b506102bf610714366004612817565b61120d565b34801561072557600080fd5b506102bf6107343660046125e3565b611228565b34801561074557600080fd5b506107596107543660046123cf565b6112d5565b6040516102f59190612832565b34801561077257600080fd5b506103136107813660046123cf565b61135d565b34801561079257600080fd5b506102bf6107a13660046125e3565b6113cf565b3480156107b257600080fd5b506103846101f75481565b3480156107c957600080fd5b506102bf6107d83660046123cf565b611441565b3480156107e957600080fd5b506102bf6107f83660046123fd565b61144f565b34801561080957600080fd5b506102e9610818366004612840565b6001600160a01b03918216600090815260076020908152604080832093909416825291909152205460ff1690565b34801561085257600080fd5b506102bf6108613660046125e3565b6114b4565b34801561087257600080fd5b506102bf6108813660046125e3565b61152a565b34801561089257600080fd5b506102bf6108a13660046125e3565b61159c565b6102bf6108b436600461286e565b6115c6565b6108c4336001610cbe565b565b60006001600160e01b031982166380ac58cd60e01b14806108f757506001600160e01b03198216635b5e139f60e01b145b8061091257506001600160e01b0319821663152a902d60e11b145b8061092d57506001600160e01b03198216632483248360e11b145b8061093c575061093c8261167f565b92915050565b606060028054610951906128a0565b80601f016020809104026020016040519081016040528092919081815260200182805461097d906128a0565b80156109ca5780601f1061099f576101008083540402835291602001916109ca565b820191906000526020600020905b8154815290600101906020018083116109ad57829003601f168201915b5050505050905090565b60006109df826116b4565b6109fc576040516333d1c03960e21b815260040160405180910390fd5b506000908152600660205260409020546001600160a01b031690565b6000610a2382610dfd565b9050336001600160a01b03821614610a5c57610a3f8133610818565b610a5c576040516367d9dca160e11b815260040160405180910390fd5b60008281526006602052604080822080546001600160a01b0319166001600160a01b0387811691821790925591518593918516917f8c5be1e5ebec7d5bd14f71427d1e84f3dd0314c0f7b2291e5b200ac8c7c3b92591a4505050565b610ac181610dfd565b6001600160a01b0316836001600160a01b031614610b125760405162461bcd60e51b81526020600482015260096024820152682727aa1027aba722a960b91b60448201526064015b60405180910390fd5b6001600160a01b0383163303610b6557610b2d8383836116e9565b6040518181527ff8e1a15aba9398e019f0b49df1a4fde98ee17ae345cb5f6b5e2c27f5033e8ce79060200160405180910390a1505050565b610b70838383611862565b505050565b6000610bee838380806020026020016040519081016040528093929190818152602001838360200280828437600092019190915250506101f9546040516bffffffffffffffffffffffff1960608b901b1660208201529092506034019050604051602081830303815290604052805190602001206119fa565b90505b9392505050565b6011816101e68110610c0957600080fd5b0154905081565b6000828152600a602090815260408083208151808301909252546001600160a01b038116808352600160a01b9091046001600160601b0316928201929092528291610c855750604080518082019091526009546001600160a01b0381168252600160a01b90046001600160601b031660208201525b602081015160009061271090610ca4906001600160601b0316876128f0565b610cae919061290f565b91519350909150505b9250929050565b600c5460ff16158015610cd457506101f7544210155b610d095760405162461bcd60e51b815260206004820152600660248201526514105554d15160d21b6044820152606401610b09565b610d138282611a10565b5050565b610b70838383604051806020016040528060008152506111c3565b6060816000816001600160401b03811115610d4f57610d4f6126fc565b604051908082528060200260200182016040528015610da157816020015b604080516080810182526000808252602080830182905292820181905260608201528252600019909201910181610d6d5790505b50905060005b828114610df457610dcf868683818110610dc357610dc3612931565b905060200201356112d5565b828281518110610de157610de1612931565b6020908102919091010152600101610da7565b50949350505050565b600061093c82611d1f565b610e13816001610cbe565b50565b60006001600160a01b038216610e3f576040516323d3ad8160e21b815260040160405180910390fd5b506001600160a01b03166000908152600560205260409020546001600160401b031690565b610e6c611d8e565b6108c46000611de8565b610e7e611d8e565b6101f855565b610e8c611d8e565b6101f955565b610e9a611d8e565b610d138282611e3a565b60606000806000610eb485610e16565b90506000816001600160401b03811115610ed057610ed06126fc565b604051908082528060200260200182016040528015610ef9578160200160208202803683370190505b509050610f2660408051608081018252600080825260208201819052918101829052606081019190915290565b60015b838614610fa057610f3981611f37565b91508160400151610f985781516001600160a01b031615610f5957815194505b876001600160a01b0316856001600160a01b031603610f985780838780600101985081518110610f8b57610f8b612931565b6020026020010181815250505b600101610f29565b50909695505050505050565b610fb4611d8e565b600d55565b606060038054610951906128a0565b6060818310610fea57604051631960ccad60e11b815260040160405180910390fd5b600080610ff660005490565b9050600185101561100657600194505b80841115611012578093505b600061101d87610e16565b90508486101561103c5785850381811015611036578091505b50611040565b5060005b6000816001600160401b0381111561105a5761105a6126fc565b604051908082528060200260200182016040528015611083578160200160208202803683370190505b50905081600003611099579350610bf192505050565b60006110a4886112d5565b9050600081604001516110b5575080515b885b8881141580156110c75750848714155b1561113c576110d581611f37565b925082604001516111345782516001600160a01b0316156110f557825191505b8a6001600160a01b0316826001600160a01b031603611134578084888060010199508151811061112757611127612931565b6020026020010181815250505b6001016110b7565b505050928352509095945050505050565b610e133382610cbe565b3360008181526007602090815260408083206001600160a01b03871680855290835292819020805460ff191686151590811790915590519081529192917f17307eab39ab6107e8899845ad3d59bd9653f200f220920489ca2b5937696c31910160405180910390a35050565b6111ce848484610ab8565b6001600160a01b0383163b15611207576111ea84848484611f73565b611207576040516368d2bf6b60e11b815260040160405180910390fd5b50505050565b611215611d8e565b600c805460ff1916911515919091179055565b611230611d8e565b604051479060009081906001600160a01b0385169084908381818185875af1925050503d806000811461127f576040519150601f19603f3d011682016040523d82523d6000602084013e611284565b606091505b5091509150811515846001600160a01b03167fb08889abce443443404b2caf69aa3ccfb9ebfdf1ad2a634d06e11e24c106793883866040516112c7929190612947565b60405180910390a350505050565b604080516080810182526000808252602082018190529181018290526060810191909152604080516080810182526000808252602082018190529181018290526060810191909152600183108061132e57506000548310155b156113395792915050565b61134283611f37565b90508060400151156113545792915050565b610bf18361205e565b600f5460405163295d33a960e21b8152600481018390526060916001600160a01b03169063a574cea490602401600060405180830381865afa1580156113a7573d6000803e3d6000fd5b505050506040513d6000823e601f3d908101601f1916820160405261093c9190810190612969565b6113d7611d8e565b6001600160a01b03811661141f5760405162461bcd60e51b815260206004820152600f60248201526e4e4f205a45524f204144445245535360881b6044820152606401610b09565b601080546001600160a01b0319166001600160a01b0392909216919091179055565b611449611d8e565b6101f755565b600e546001600160a01b03166114a25760405162461bcd60e51b81526020600482015260186024820152774e4f2042495445204259205649504552204144445245535360401b6044820152606401610b09565b6114aa611d8e565b610d138282612093565b6114bc611d8e565b6001600160a01b0381166115215760405162461bcd60e51b815260206004820152602660248201527f4f776e61626c653a206e6577206f776e657220697320746865207a65726f206160448201526564647265737360d01b6064820152608401610b09565b610e1381611de8565b611532611d8e565b6001600160a01b03811661157a5760405162461bcd60e51b815260206004820152600f60248201526e4e4f205a45524f204144445245535360881b6044820152606401610b09565b600e80546001600160a01b0319166001600160a01b0392909216919091179055565b6115a4611d8e565b600f80546001600160a01b0319166001600160a01b0392909216919091179055565b6115d1338383610b75565b61161d5760405162461bcd60e51b815260206004820152601c60248201527f596f7520617265206e6f74206f6e2074686520616c6c6f776c697374000000006044820152606401610b09565b600c5460ff1615801561163357506101f8544210155b6116755760405162461bcd60e51b8152602060048201526013602482015272141c995b5a5b9d081b9bdd081cdd185c9d1959606a1b6044820152606401610b09565b610b703384611a10565b60006001600160e01b0319821663152a902d60e11b148061093c57506301ffc9a760e01b6001600160e01b031983161461093c565b6000816001111580156116c8575060005482105b801561093c575050600090815260046020526040902054600160e01b161590565b816001600160a01b0316836001600160a01b0316036117405760405162461bcd60e51b815260206004820152601360248201527221b0b713ba103134ba32903cb7bab939b2b63360691b6044820152606401610b09565b816001600160a01b0316316000036117a65760405162461bcd60e51b8152602060048201526024808201527f43616e2774206269746520616e2061646472657373207769746820302062616c604482015263616e636560e01b6064820152608401610b09565b60006011826101e681106117bc576117bc612931565b0154905060006117cd8260016129df565b600e5460405163ecc15d4360e01b81526001600160a01b0388811660048301528781166024830152604482018790526064820184905292935091169063ecc15d4390608401600060405180830381600087803b15801561182c57600080fd5b505af1158015611840573d6000803e3d6000fd5b50505050806011846101e6811061185957611859612931565b01555050505050565b600061186d82611d1f565b9050836001600160a01b0316816001600160a01b0316146118a05760405162a1148160e81b815260040160405180910390fd5b60008281526006602052604090208054338082146001600160a01b038816909114176118ed576118d08633610818565b6118ed57604051632ce44b5f60e11b815260040160405180910390fd5b6001600160a01b03851661191457604051633a954ecd60e21b815260040160405180910390fd5b801561191f57600082555b6001600160a01b038681166000908152600560205260408082208054600019019055918716808252919020805460010190554260a01b17600160e11b17600085815260046020526040812091909155600160e11b841690036119b1576001840160008181526004602052604081205490036119af5760005481146119af5760008181526004602052604090208490555b505b83856001600160a01b0316876001600160a01b03167fddf252ad1be2c89b69c2b068fc378daa952ba7f163c4a11628f55a4df523b3ef60405160405180910390a4505050505050565b600082611a0785846120ad565b14949350505050565b600e546001600160a01b0316611a635760405162461bcd60e51b81526020600482015260186024820152774e4f2042495445204259205649504552204144445245535360401b6044820152606401610b09565b611a6b6120fa565b80600d54611a7991906128f0565b341015611ab65760405162461bcd60e51b815260206004820152600b60248201526a57524f4e4720505249434560a81b6044820152606401610b09565b8060011480611ac55750806003145b80611ad05750806005145b611b2d5760405162461bcd60e51b815260206004820152602860248201527f43414e2754204d494e542042455349444553205155414e54495459204f4620316044820152672c2033204f52203560c01b6064820152608401610b09565b6001546000546101e69183910360001901611b4891906129df565b1115611bac576001546000540360001901611b65906101e66129f7565b905080600003611bac5760405162461bcd60e51b81526020600482015260126024820152711350560814d5541413164814915050d2115160721b6044820152606401610b09565b6000600d5482611bbc91906128f0565b60105460405191925060009182916001600160a01b03169084908381818185875af1925050503d8060008114611c0e576040519150601f19603f3d011682016040523d82523d6000602084013e611c13565b606091505b50601054604051929450909250831515916001600160a01b03909116907fb08889abce443443404b2caf69aa3ccfb9ebfdf1ad2a634d06e11e24c106793890611c5f9085908890612947565b60405180910390a3611c718585612093565b34831015611d125733611c8484346129f7565b604051600081818185875af1925050503d8060008114611cc0576040519150601f19603f3d011682016040523d82523d6000602084013e611cc5565b606091505b509092509050811515337fb08889abce443443404b2caf69aa3ccfb9ebfdf1ad2a634d06e11e24c106793883611cfb87346129f7565b604051611d09929190612947565b60405180910390a35b505050610d136001600b55565b60008180600111611d7557600054811015611d755760008181526004602052604081205490600160e01b82169003611d73575b80600003610bf1575060001901600081815260046020526040902054611d52565b505b604051636f96cda160e11b815260040160405180910390fd5b6008546001600160a01b031633146108c45760405162461bcd60e51b815260206004820181905260248201527f4f776e61626c653a2063616c6c6572206973206e6f7420746865206f776e65726044820152606401610b09565b600880546001600160a01b038381166001600160a01b0319831681179093556040519116919082907f8be0079c531659141344cd1fd0a4f28419497f9722a3daafe3b4186f6b6457e090600090a35050565b6127106001600160601b0382161115611ea85760405162461bcd60e51b815260206004820152602a60248201527f455243323938313a20726f79616c7479206665652077696c6c206578636565646044820152692073616c65507269636560b01b6064820152608401610b09565b6001600160a01b038216611efe5760405162461bcd60e51b815260206004820152601960248201527f455243323938313a20696e76616c6964207265636569766572000000000000006044820152606401610b09565b604080518082019091526001600160a01b039092168083526001600160601b039091166020909201829052600160a01b90910217600955565b60408051608081018252600080825260208201819052918101829052606081019190915260008281526004602052604090205461093c90612153565b604051630a85bd0160e11b81526000906001600160a01b0385169063150b7a0290611fa8903390899088908890600401612a0e565b6020604051808303816000875af1925050508015611fe3575060408051601f3d908101601f19168201909252611fe091810190612a4b565b60015b612041573d808015612011576040519150601f19603f3d011682016040523d82523d6000602084013e612016565b606091505b508051600003612039576040516368d2bf6b60e11b815260040160405180910390fd5b805181602001fd5b6001600160e01b031916630a85bd0160e11b149050949350505050565b60408051608081018252600080825260208201819052918101829052606081019190915261093c61208e83611d1f565b612153565b610d1382826040518060200160405280600081525061219a565b600081815b84518110156120f2576120de828683815181106120d1576120d1612931565b6020026020010151612207565b9150806120ea81612a68565b9150506120b2565b509392505050565b6002600b540361214c5760405162461bcd60e51b815260206004820152601f60248201527f5265656e7472616e637947756172643a207265656e7472616e742063616c6c006044820152606401610b09565b6002600b55565b604080516080810182526001600160a01b038316815260a083901c6001600160401b03166020820152600160e01b831615159181019190915260e89190911c606082015290565b6121a48383612233565b6001600160a01b0383163b15610b70576000548281035b6121ce6000868380600101945086611f73565b6121eb576040516368d2bf6b60e11b815260040160405180910390fd5b8181106121bb57816000541461220057600080fd5b5050505050565b6000818310612223576000828152602084905260409020610bf1565b5060009182526020526040902090565b60008054908290036122585760405163b562e8dd60e01b815260040160405180910390fd5b6001600160a01b03831660008181526005602090815260408083208054680100000000000000018802019055848352600490915281206001851460e11b4260a01b178317905582840190839083907fddf252ad1be2c89b69c2b068fc378daa952ba7f163c4a11628f55a4df523b3ef8180a4600183015b81811461230757808360007fddf252ad1be2c89b69c2b068fc378daa952ba7f163c4a11628f55a4df523b3ef600080a46001016122cf565b508160000361232857604051622e076360e81b815260040160405180910390fd5b60005550505050565b6001600160e01b031981168114610e1357600080fd5b60006020828403121561235957600080fd5b8135610bf181612331565b60005b8381101561237f578181015183820152602001612367565b838111156112075750506000910152565b600081518084526123a8816020860160208601612364565b601f01601f19169290920160200192915050565b602081526000610bf16020830184612390565b6000602082840312156123e157600080fd5b5035919050565b6001600160a01b0381168114610e1357600080fd5b6000806040838503121561241057600080fd5b823561241b816123e8565b946020939093013593505050565b60008060006060848603121561243e57600080fd5b8335612449816123e8565b92506020840135612459816123e8565b929592945050506040919091013590565b60008083601f84011261247c57600080fd5b5081356001600160401b0381111561249357600080fd5b6020830191508360208260051b8501011115610cb757600080fd5b6000806000604084860312156124c357600080fd5b83356124ce816123e8565b925060208401356001600160401b038111156124e957600080fd5b6124f58682870161246a565b9497909650939450505050565b6000806040838503121561251557600080fd5b50508035926020909101359150565b6000806020838503121561253757600080fd5b82356001600160401b0381111561254d57600080fd5b6125598582860161246a565b90969095509350505050565b80516001600160a01b031682526020808201516001600160401b03169083015260408082015115159083015260609081015162ffffff16910152565b6020808252825182820181905260009190848201906040850190845b81811015610fa0576125d0838551612565565b92840192608092909201916001016125bd565b6000602082840312156125f557600080fd5b8135610bf1816123e8565b6000806040838503121561261357600080fd5b823561261e816123e8565b915060208301356001600160601b038116811461263a57600080fd5b809150509250929050565b6020808252825182820181905260009190848201906040850190845b81811015610fa057835183529284019291840191600101612661565b60008060006060848603121561269257600080fd5b833561269d816123e8565b95602085013595506040909401359392505050565b803580151581146126c257600080fd5b919050565b600080604083850312156126da57600080fd5b82356126e5816123e8565b91506126f3602084016126b2565b90509250929050565b634e487b7160e01b600052604160045260246000fd5b604051601f8201601f191681016001600160401b038111828210171561273a5761273a6126fc565b604052919050565b60006001600160401b0382111561275b5761275b6126fc565b50601f01601f191660200190565b6000806000806080858703121561277f57600080fd5b843561278a816123e8565b9350602085013561279a816123e8565b92506040850135915060608501356001600160401b038111156127bc57600080fd5b8501601f810187136127cd57600080fd5b80356127e06127db82612742565b612712565b8181528860208385010111156127f557600080fd5b8160208401602083013760006020838301015280935050505092959194509250565b60006020828403121561282957600080fd5b610bf1826126b2565b6080810161093c8284612565565b6000806040838503121561285357600080fd5b823561285e816123e8565b9150602083013561263a816123e8565b60008060006040848603121561288357600080fd5b8335925060208401356001600160401b038111156124e957600080fd5b600181811c908216806128b457607f821691505b6020821081036128d457634e487b7160e01b600052602260045260246000fd5b50919050565b634e487b7160e01b600052601160045260246000fd5b600081600019048311821515161561290a5761290a6128da565b500290565b60008261292c57634e487b7160e01b600052601260045260246000fd5b500490565b634e487b7160e01b600052603260045260246000fd5b60408152600061295a6040830185612390565b90508260208301529392505050565b60006020828403121561297b57600080fd5b81516001600160401b0381111561299157600080fd5b8201601f810184136129a257600080fd5b80516129b06127db82612742565b8181528560208385010111156129c557600080fd5b6129d6826020830160208601612364565b95945050505050565b600082198211156129f2576129f26128da565b500190565b600082821015612a0957612a096128da565b500390565b6001600160a01b0385811682528416602082015260408101839052608060608201819052600090612a4190830184612390565b9695505050505050565b600060208284031215612a5d57600080fd5b8151610bf181612331565b600060018201612a7a57612a7a6128da565b506001019056fea2646970667358221220f0a5bd1c9c8049a267772cd560d9f922b741fd721fc3249f7e7137dcfaec3a3e64736f6c634300080f0033",
  "linkReferences": {},
  "deployedLinkReferences": {}
}