{
  "_format": "hh-sol-artifact-1",
  "contractName": "Viper",
  "sourceName": "contracts/Viper.sol",
  "abi": [
    {
      "inputs": [
        {
          "internalType": "address",
          "name": "metadata_",
          "type": "address"
        },
        {
          "internalType": "address",
          "name": "splitter_",
          "type": "address"
        }
      ],
      "stateMutability": "nonpayable",
      "type": "constructor"
    },
    {
      "inputs": [],
      "name": "ApprovalCallerNotOwnerNorApproved",
      "type": "error"
    },
    {
      "inputs": [],
      "name": "ApprovalQueryForNonexistentToken",
      "type": "error"
    },
    {
      "inputs": [],
      "name": "BalanceQueryForZeroAddress",
      "type": "error"
    },
    {
      "inputs": [],
      "name": "InvalidQueryRange",
      "type": "error"
    },
    {
      "inputs": [],
      "name": "MintERC2309QuantityExceedsLimit",
      "type": "error"
    },
    {
      "inputs": [],
      "name": "MintToZeroAddress",
      "type": "error"
    },
    {
      "inputs": [],
      "name": "MintZeroQuantity",
      "type": "error"
    },
    {
      "inputs": [],
      "name": "OwnerQueryForNonexistentToken",
      "type": "error"
    },
    {
      "inputs": [],
      "name": "OwnershipNotInitializedForExtraData",
      "type": "error"
    },
    {
      "inputs": [],
      "name": "TransferCallerNotOwnerNorApproved",
      "type": "error"
    },
    {
      "inputs": [],
      "name": "TransferFromIncorrectOwner",
      "type": "error"
    },
    {
      "inputs": [],
      "name": "TransferToNonERC721ReceiverImplementer",
      "type": "error"
    },
    {
      "inputs": [],
      "name": "TransferToZeroAddress",
      "type": "error"
    },
    {
      "inputs": [],
      "name": "URIQueryForNonexistentToken",
      "type": "error"
    },
    {
      "anonymous": false,
      "inputs": [
        {
          "indexed": true,
          "internalType": "address",
          "name": "owner",
          "type": "address"
        },
        {
          "indexed": true,
          "internalType": "address",
          "name": "approved",
          "type": "address"
        },
        {
          "indexed": true,
          "internalType": "uint256",
          "name": "tokenId",
          "type": "uint256"
        }
      ],
      "name": "Approval",
      "type": "event"
    },
    {
      "anonymous": false,
      "inputs": [
        {
          "indexed": true,
          "internalType": "address",
          "name": "owner",
          "type": "address"
        },
        {
          "indexed": true,
          "internalType": "address",
          "name": "operator",
          "type": "address"
        },
        {
          "indexed": false,
          "internalType": "bool",
          "name": "approved",
          "type": "bool"
        }
      ],
      "name": "ApprovalForAll",
      "type": "event"
    },
    {
      "anonymous": false,
      "inputs": [
        {
          "indexed": true,
          "internalType": "uint256",
          "name": "fromTokenId",
          "type": "uint256"
        },
        {
          "indexed": false,
          "internalType": "uint256",
          "name": "toTokenId",
          "type": "uint256"
        },
        {
          "indexed": true,
          "internalType": "address",
          "name": "from",
          "type": "address"
        },
        {
          "indexed": true,
          "internalType": "address",
          "name": "to",
          "type": "address"
        }
      ],
      "name": "ConsecutiveTransfer",
      "type": "event"
    },
    {
      "anonymous": false,
      "inputs": [
        {
          "indexed": true,
          "internalType": "address",
          "name": "to",
          "type": "address"
        },
        {
          "indexed": true,
          "internalType": "bool",
          "name": "success",
          "type": "bool"
        },
        {
          "indexed": false,
          "internalType": "bytes",
          "name": "returnData",
          "type": "bytes"
        },
        {
          "indexed": false,
          "internalType": "uint256",
          "name": "amount",
          "type": "uint256"
        }
      ],
      "name": "EthMoved",
      "type": "event"
    },
    {
      "anonymous": false,
      "inputs": [
        {
          "indexed": true,
          "internalType": "address",
          "name": "previousOwner",
          "type": "address"
        },
        {
          "indexed": true,
          "internalType": "address",
          "name": "newOwner",
          "type": "address"
        }
      ],
      "name": "OwnershipTransferred",
      "type": "event"
    },
    {
      "anonymous": false,
      "inputs": [
        {
          "indexed": true,
          "internalType": "address",
          "name": "from",
          "type": "address"
        },
        {
          "indexed": true,
          "internalType": "address",
          "name": "to",
          "type": "address"
        },
        {
          "indexed": true,
          "internalType": "uint256",
          "name": "tokenId",
          "type": "uint256"
        }
      ],
      "name": "Transfer",
      "type": "event"
    },
    {
      "inputs": [],
      "name": "MAX_SUPPLY",
      "outputs": [
        {
          "internalType": "uint256",
          "name": "",
          "type": "uint256"
        }
      ],
      "stateMutability": "view",
      "type": "function"
    },
    {
      "inputs": [
        {
          "internalType": "address",
          "name": "recipient",
          "type": "address"
        },
        {
          "internalType": "uint256",
          "name": "quantity",
          "type": "uint256"
        }
      ],
      "name": "adminMint",
      "outputs": [],
      "stateMutability": "nonpayable",
      "type": "function"
    },
    {
      "inputs": [
        {
          "internalType": "address",
          "name": "to",
          "type": "address"
        },
        {
          "internalType": "uint256",
          "name": "tokenId",
          "type": "uint256"
        }
      ],
      "name": "approve",
      "outputs": [],
      "stateMutability": "payable",
      "type": "function"
    },
    {
      "inputs": [
        {
          "internalType": "address",
          "name": "owner",
          "type": "address"
        }
      ],
      "name": "balanceOf",
      "outputs": [
        {
          "internalType": "uint256",
          "name": "",
          "type": "uint256"
        }
      ],
      "stateMutability": "view",
      "type": "function"
    },
    {
      "inputs": [],
      "name": "biteByViper",
      "outputs": [
        {
          "internalType": "address",
          "name": "",
          "type": "address"
        }
      ],
      "stateMutability": "view",
      "type": "function"
    },
    {
      "inputs": [
        {
          "internalType": "uint256",
          "name": "tokenId",
          "type": "uint256"
        }
      ],
      "name": "explicitOwnershipOf",
      "outputs": [
        {
          "components": [
            {
              "internalType": "address",
              "name": "addr",
              "type": "address"
            },
            {
              "internalType": "uint64",
              "name": "startTimestamp",
              "type": "uint64"
            },
            {
              "internalType": "bool",
              "name": "burned",
              "type": "bool"
            },
            {
              "internalType": "uint24",
              "name": "extraData",
              "type": "uint24"
            }
          ],
          "internalType": "struct IERC721A.TokenOwnership",
          "name": "",
          "type": "tuple"
        }
      ],
      "stateMutability": "view",
      "type": "function"
    },
    {
      "inputs": [
        {
          "internalType": "uint256[]",
          "name": "tokenIds",
          "type": "uint256[]"
        }
      ],
      "name": "explicitOwnershipsOf",
      "outputs": [
        {
          "components": [
            {
              "internalType": "address",
              "name": "addr",
              "type": "address"
            },
            {
              "internalType": "uint64",
              "name": "startTimestamp",
              "type": "uint64"
            },
            {
              "internalType": "bool",
              "name": "burned",
              "type": "bool"
            },
            {
              "internalType": "uint24",
              "name": "extraData",
              "type": "uint24"
            }
          ],
          "internalType": "struct IERC721A.TokenOwnership[]",
          "name": "",
          "type": "tuple[]"
        }
      ],
      "stateMutability": "view",
      "type": "function"
    },
    {
      "inputs": [
        {
          "internalType": "uint256",
          "name": "tokenId",
          "type": "uint256"
        }
      ],
      "name": "getApproved",
      "outputs": [
        {
          "internalType": "address",
          "name": "",
          "type": "address"
        }
      ],
      "stateMutability": "view",
      "type": "function"
    },
    {
      "inputs": [
        {
          "internalType": "address",
          "name": "owner",
          "type": "address"
        },
        {
          "internalType": "address",
          "name": "operator",
          "type": "address"
        }
      ],
      "name": "isApprovedForAll",
      "outputs": [
        {
          "internalType": "bool",
          "name": "",
          "type": "bool"
        }
      ],
      "stateMutability": "view",
      "type": "function"
    },
    {
      "inputs": [
        {
          "internalType": "uint256",
          "name": "",
          "type": "uint256"
        }
      ],
      "name": "lengths",
      "outputs": [
        {
          "internalType": "uint256",
          "name": "",
          "type": "uint256"
        }
      ],
      "stateMutability": "view",
      "type": "function"
    },
    {
      "inputs": [],
      "name": "metadata",
      "outputs": [
        {
          "internalType": "address",
          "name": "",
          "type": "address"
        }
      ],
      "stateMutability": "view",
      "type": "function"
    },
    {
      "inputs": [],
      "name": "mint",
      "outputs": [],
      "stateMutability": "payable",
      "type": "function"
    },
    {
      "inputs": [
        {
          "internalType": "address",
          "name": "recipient",
          "type": "address"
        },
        {
          "internalType": "uint256",
          "name": "quantity",
          "type": "uint256"
        }
      ],
      "name": "mint",
      "outputs": [],
      "stateMutability": "payable",
      "type": "function"
    },
    {
      "inputs": [
        {
          "internalType": "address",
          "name": "recipient",
          "type": "address"
        }
      ],
      "name": "mint",
      "outputs": [],
      "stateMutability": "payable",
      "type": "function"
    },
    {
      "inputs": [
        {
          "internalType": "uint256",
          "name": "quantity",
          "type": "uint256"
        }
      ],
      "name": "mint",
      "outputs": [],
      "stateMutability": "payable",
      "type": "function"
    },
    {
      "inputs": [],
      "name": "name",
      "outputs": [
        {
          "internalType": "string",
          "name": "",
          "type": "string"
        }
      ],
      "stateMutability": "view",
      "type": "function"
    },
    {
      "inputs": [],
      "name": "owner",
      "outputs": [
        {
          "internalType": "address",
          "name": "",
          "type": "address"
        }
      ],
      "stateMutability": "view",
      "type": "function"
    },
    {
      "inputs": [
        {
          "internalType": "uint256",
          "name": "tokenId",
          "type": "uint256"
        }
      ],
      "name": "ownerOf",
      "outputs": [
        {
          "internalType": "address",
          "name": "",
          "type": "address"
        }
      ],
      "stateMutability": "view",
      "type": "function"
    },
    {
      "inputs": [],
      "name": "paused",
      "outputs": [
        {
          "internalType": "bool",
          "name": "",
          "type": "bool"
        }
      ],
      "stateMutability": "view",
      "type": "function"
    },
    {
      "inputs": [],
      "name": "price",
      "outputs": [
        {
          "internalType": "uint256",
          "name": "",
          "type": "uint256"
        }
      ],
      "stateMutability": "view",
      "type": "function"
    },
    {
      "inputs": [
        {
          "internalType": "address payable",
          "name": "_to",
          "type": "address"
        }
      ],
      "name": "recoverUnsuccessfulMintPayment",
      "outputs": [],
      "stateMutability": "nonpayable",
      "type": "function"
    },
    {
      "inputs": [],
      "name": "renounceOwnership",
      "outputs": [],
      "stateMutability": "nonpayable",
      "type": "function"
    },
    {
      "inputs": [
        {
          "internalType": "uint256",
          "name": "_tokenId",
          "type": "uint256"
        },
        {
          "internalType": "uint256",
          "name": "_salePrice",
          "type": "uint256"
        }
      ],
      "name": "royaltyInfo",
      "outputs": [
        {
          "internalType": "address",
          "name": "",
          "type": "address"
        },
        {
          "internalType": "uint256",
          "name": "",
          "type": "uint256"
        }
      ],
      "stateMutability": "view",
      "type": "function"
    },
    {
      "inputs": [
        {
          "internalType": "address",
          "name": "from",
          "type": "address"
        },
        {
          "internalType": "address",
          "name": "to",
          "type": "address"
        },
        {
          "internalType": "uint256",
          "name": "tokenId",
          "type": "uint256"
        }
      ],
      "name": "safeTransferFrom",
      "outputs": [],
      "stateMutability": "payable",
      "type": "function"
    },
    {
      "inputs": [
        {
          "internalType": "address",
          "name": "from",
          "type": "address"
        },
        {
          "internalType": "address",
          "name": "to",
          "type": "address"
        },
        {
          "internalType": "uint256",
          "name": "tokenId",
          "type": "uint256"
        },
        {
          "internalType": "bytes",
          "name": "_data",
          "type": "bytes"
        }
      ],
      "name": "safeTransferFrom",
      "outputs": [],
      "stateMutability": "payable",
      "type": "function"
    },
    {
      "inputs": [
        {
          "internalType": "address",
          "name": "operator",
          "type": "address"
        },
        {
          "internalType": "bool",
          "name": "approved",
          "type": "bool"
        }
      ],
      "name": "setApprovalForAll",
      "outputs": [],
      "stateMutability": "nonpayable",
      "type": "function"
    },
    {
      "inputs": [
        {
          "internalType": "address",
          "name": "biteByViper_",
          "type": "address"
        }
      ],
      "name": "setBiteByViper",
      "outputs": [],
      "stateMutability": "nonpayable",
      "type": "function"
    },
    {
      "inputs": [
        {
          "internalType": "address",
          "name": "metadata_",
          "type": "address"
        }
      ],
      "name": "setMetadata",
      "outputs": [],
      "stateMutability": "nonpayable",
      "type": "function"
    },
    {
      "inputs": [
        {
          "internalType": "bool",
          "name": "paused_",
          "type": "bool"
        }
      ],
      "name": "setPause",
      "outputs": [],
      "stateMutability": "nonpayable",
      "type": "function"
    },
    {
      "inputs": [
        {
          "internalType": "uint256",
          "name": "price_",
          "type": "uint256"
        }
      ],
      "name": "setPrice",
      "outputs": [],
      "stateMutability": "nonpayable",
      "type": "function"
    },
    {
      "inputs": [
        {
          "internalType": "address",
          "name": "royaltyReceiver",
          "type": "address"
        },
        {
          "internalType": "uint96",
          "name": "royaltyPercentage",
          "type": "uint96"
        }
      ],
      "name": "setRoyaltyPercentage",
      "outputs": [],
      "stateMutability": "nonpayable",
      "type": "function"
    },
    {
      "inputs": [
        {
          "internalType": "address",
          "name": "splitter_",
          "type": "address"
        }
      ],
      "name": "setSplitter",
      "outputs": [],
      "stateMutability": "nonpayable",
      "type": "function"
    },
    {
      "inputs": [],
      "name": "splitter",
      "outputs": [
        {
          "internalType": "address",
          "name": "",
          "type": "address"
        }
      ],
      "stateMutability": "view",
      "type": "function"
    },
    {
      "inputs": [
        {
          "internalType": "bytes4",
          "name": "interfaceId",
          "type": "bytes4"
        }
      ],
      "name": "supportsInterface",
      "outputs": [
        {
          "internalType": "bool",
          "name": "",
          "type": "bool"
        }
      ],
      "stateMutability": "view",
      "type": "function"
    },
    {
      "inputs": [],
      "name": "symbol",
      "outputs": [
        {
          "internalType": "string",
          "name": "",
          "type": "string"
        }
      ],
      "stateMutability": "view",
      "type": "function"
    },
    {
      "inputs": [
        {
          "internalType": "uint256",
          "name": "id",
          "type": "uint256"
        }
      ],
      "name": "tokenURI",
      "outputs": [
        {
          "internalType": "string",
          "name": "",
          "type": "string"
        }
      ],
      "stateMutability": "view",
      "type": "function"
    },
    {
      "inputs": [
        {
          "internalType": "address",
          "name": "owner",
          "type": "address"
        }
      ],
      "name": "tokensOfOwner",
      "outputs": [
        {
          "internalType": "uint256[]",
          "name": "",
          "type": "uint256[]"
        }
      ],
      "stateMutability": "view",
      "type": "function"
    },
    {
      "inputs": [
        {
          "internalType": "address",
          "name": "owner",
          "type": "address"
        },
        {
          "internalType": "uint256",
          "name": "start",
          "type": "uint256"
        },
        {
          "internalType": "uint256",
          "name": "stop",
          "type": "uint256"
        }
      ],
      "name": "tokensOfOwnerIn",
      "outputs": [
        {
          "internalType": "uint256[]",
          "name": "",
          "type": "uint256[]"
        }
      ],
      "stateMutability": "view",
      "type": "function"
    },
    {
      "inputs": [],
      "name": "totalSupply",
      "outputs": [
        {
          "internalType": "uint256",
          "name": "",
          "type": "uint256"
        }
      ],
      "stateMutability": "view",
      "type": "function"
    },
    {
      "inputs": [
        {
          "internalType": "address",
          "name": "from",
          "type": "address"
        },
        {
          "internalType": "address",
          "name": "to",
          "type": "address"
        },
        {
          "internalType": "uint256",
          "name": "tokenId",
          "type": "uint256"
        }
      ],
      "name": "transferFrom",
      "outputs": [],
      "stateMutability": "payable",
      "type": "function"
    },
    {
      "inputs": [
        {
          "internalType": "address",
          "name": "newOwner",
          "type": "address"
        }
      ],
      "name": "transferOwnership",
      "outputs": [],
      "stateMutability": "nonpayable",
      "type": "function"
    }
  ],
  "bytecode": "0x6080604052600b805460ff1916600117905566c55f7bc23038e3600c553480156200002957600080fd5b5060405162002947380380620029478339810160408190526200004c9162000271565b604051806040016040528060058152602001642b24a822a960d91b815250604051806040016040528060038152602001622b282960e91b81525081600290816200009791906200034e565b506003620000a682826200034e565b5050600160005550620000b933620000fd565b600e80546001600160a01b038085166001600160a01b031992831617909255600f80549284169290911682179055620000f5906103e86200014f565b50506200041a565b600880546001600160a01b038381166001600160a01b0319831681179093556040519116919082907f8be0079c531659141344cd1fd0a4f28419497f9722a3daafe3b4186f6b6457e090600090a35050565b6127106001600160601b0382161115620001c35760405162461bcd60e51b815260206004820152602a60248201527f455243323938313a20726f79616c7479206665652077696c6c206578636565646044820152692073616c65507269636560b01b60648201526084015b60405180910390fd5b6001600160a01b0382166200021b5760405162461bcd60e51b815260206004820152601960248201527f455243323938313a20696e76616c6964207265636569766572000000000000006044820152606401620001ba565b604080518082019091526001600160a01b039092168083526001600160601b039091166020909201829052600160a01b90910217600955565b80516001600160a01b03811681146200026c57600080fd5b919050565b600080604083850312156200028557600080fd5b620002908362000254565b9150620002a06020840162000254565b90509250929050565b634e487b7160e01b600052604160045260246000fd5b600181811c90821680620002d457607f821691505b602082108103620002f557634e487b7160e01b600052602260045260246000fd5b50919050565b601f8211156200034957600081815260208120601f850160051c81016020861015620003245750805b601f850160051c820191505b81811015620003455782815560010162000330565b5050505b505050565b81516001600160401b038111156200036a576200036a620002a9565b62000382816200037b8454620002bf565b84620002fb565b602080601f831160018114620003ba5760008415620003a15750858301515b600019600386901b1c1916600185901b17855562000345565b600085815260208120601f198616915b82811015620003eb57888601518255948401946001909101908401620003ca565b50858210156200040a5787850151600019600388901b60f8161c191681555b5050505050600190811b01905550565b61251d806200042a6000396000f3fe6080604052600436106102465760003560e01c8063818779ef11610139578063b88d4fde116100b6578063c93fc83d1161007a578063c93fc83d14610684578063e58306f9146106a4578063e985e9c5146106c4578063f2fde38b1461070d578063f363c9ce1461072d578063f3cb83851461074d57600080fd5b8063b88d4fde146105e4578063bedb86fb146105f7578063c09fd8ef14610617578063c23dc68f14610637578063c87b56dd1461066457600080fd5b806395d89b41116100fd57806395d89b411461056657806399a2557a1461057b578063a035b1fe1461059b578063a0712d68146105b1578063a22cb465146105c457600080fd5b8063818779ef146104bb5780638462151c146104db5780638da5cb5b1461050857806391b7f5ed1461052657806392d110921461054657600080fd5b8063392f37e9116101c75780635c975abb1161018b5780635c975abb146104395780636352211e146104535780636a6278421461047357806370a0823114610486578063715018a6146104a657600080fd5b8063392f37e9146103a65780633cd8045e146103c657806340c10f19146103e657806342842e0e146103f95780635bbb21771461040c57600080fd5b806318160ddd1161020e57806318160ddd146102f757806323b872dd1461031e57806325e3d69f146103315780632a55205a1461035157806332cb6b0c1461039057600080fd5b806301ffc9a71461024b57806306fdde0314610280578063081812fc146102a2578063095ea7b3146102da5780631249c58b146102ef575b600080fd5b34801561025757600080fd5b5061026b610266366004611e6e565b61076d565b60405190151581526020015b60405180910390f35b34801561028c57600080fd5b506102956107ce565b6040516102779190611ee3565b3480156102ae57600080fd5b506102c26102bd366004611ef6565b610860565b6040516001600160a01b039091168152602001610277565b6102ed6102e8366004611f24565b6108a4565b005b6102ed610944565b34801561030357600080fd5b5060015460005403600019015b604051908152602001610277565b6102ed61032c366004611f50565b610951565b34801561033d57600080fd5b5061031061034c366004611ef6565b6109d6565b34801561035d57600080fd5b5061037161036c366004611f91565b6109ee565b604080516001600160a01b039093168352602083019190915201610277565b34801561039c57600080fd5b506103106101e681565b3480156103b257600080fd5b50600e546102c2906001600160a01b031681565b3480156103d257600080fd5b50600f546102c2906001600160a01b031681565b6102ed6103f4366004611f24565b610a9a565b6102ed610407366004611f50565b610d03565b34801561041857600080fd5b5061042c610427366004611fb3565b610d1e565b6040516102779190612065565b34801561044557600080fd5b50600b5461026b9060ff1681565b34801561045f57600080fd5b506102c261046e366004611ef6565b610dea565b6102ed6104813660046120a7565b610df5565b34801561049257600080fd5b506103106104a13660046120a7565b610e03565b3480156104b257600080fd5b506102ed610e52565b3480156104c757600080fd5b506102ed6104d63660046120c4565b610e64565b3480156104e757600080fd5b506104fb6104f63660046120a7565b610e7a565b6040516102779190612109565b34801561051457600080fd5b506008546001600160a01b03166102c2565b34801561053257600080fd5b506102ed610541366004611ef6565b610f83565b34801561055257600080fd5b50600d546102c2906001600160a01b031681565b34801561057257600080fd5b50610295610f90565b34801561058757600080fd5b506104fb610596366004612141565b610f9f565b3480156105a757600080fd5b50610310600c5481565b6102ed6105bf366004611ef6565b611127565b3480156105d057600080fd5b506102ed6105df36600461218b565b611131565b6102ed6105f236600461222f565b61119d565b34801561060357600080fd5b506102ed6106123660046122de565b6111e1565b34801561062357600080fd5b506102ed6106323660046120a7565b6111fc565b34801561064357600080fd5b50610657610652366004611ef6565b6112a9565b60405161027791906122f9565b34801561067057600080fd5b5061029561067f366004611ef6565b611331565b34801561069057600080fd5b506102ed61069f3660046120a7565b6113a3565b3480156106b057600080fd5b506102ed6106bf366004611f24565b611415565b3480156106d057600080fd5b5061026b6106df366004612307565b6001600160a01b03918216600090815260076020908152604080832093909416825291909152205460ff1690565b34801561071957600080fd5b506102ed6107283660046120a7565b61147a565b34801561073957600080fd5b506102ed6107483660046120a7565b6114f0565b34801561075957600080fd5b506102ed6107683660046120a7565b611562565b60006001600160e01b031982166380ac58cd60e01b148061079e57506001600160e01b03198216635b5e139f60e01b145b806107b957506001600160e01b0319821663152a902d60e11b145b806107c857506107c88261158c565b92915050565b6060600280546107dd90612335565b80601f016020809104026020016040519081016040528092919081815260200182805461080990612335565b80156108565780601f1061082b57610100808354040283529160200191610856565b820191906000526020600020905b81548152906001019060200180831161083957829003601f168201915b5050505050905090565b600061086b826115c1565b610888576040516333d1c03960e21b815260040160405180910390fd5b506000908152600660205260409020546001600160a01b031690565b60006108af82610dea565b9050336001600160a01b038216146108e8576108cb81336106df565b6108e8576040516367d9dca160e11b815260040160405180910390fd5b60008281526006602052604080822080546001600160a01b0319166001600160a01b0387811691821790925591518593918516917f8c5be1e5ebec7d5bd14f71427d1e84f3dd0314c0f7b2291e5b200ac8c7c3b92591a4505050565b61094f336001610a9a565b565b61095a81610dea565b6001600160a01b0316836001600160a01b0316146109ab5760405162461bcd60e51b81526020600482015260096024820152682727aa1027aba722a960b91b60448201526064015b60405180910390fd5b6001600160a01b03831633036109cb576109c68383836115f6565b505050565b6109c683838361177f565b6010816101e681106109e757600080fd5b0154905081565b6000828152600a602090815260408083208151808301909252546001600160a01b038116808352600160a01b9091046001600160601b0316928201929092528291610a635750604080518082019091526009546001600160a01b0381168252600160a01b90046001600160601b031660208201525b602081015160009061271090610a82906001600160601b031687612385565b610a8c91906123a4565b915196919550909350505050565b600d546001600160a01b0316610aed5760405162461bcd60e51b81526020600482015260186024820152774e4f2042495445204259205649504552204144445245535360401b60448201526064016109a2565b600b5460ff1615610b295760405162461bcd60e51b815260206004820152600660248201526514105554d15160d21b60448201526064016109a2565b80600c54610b379190612385565b341015610b745760405162461bcd60e51b815260206004820152600b60248201526a57524f4e4720505249434560a81b60448201526064016109a2565b8060011480610b835750806003145b80610b8e5750806005145b610beb5760405162461bcd60e51b815260206004820152602860248201527f43414e2754204d494e542042455349444553205155414e54495459204f4620316044820152672c2033204f52203560c01b60648201526084016109a2565b6001546000546101e69183910360001901610c0691906123c6565b1115610c495760405162461bcd60e51b81526020600482015260126024820152711350560814d5541413164814915050d2115160721b60448201526064016109a2565b600f5460405160009182916001600160a01b039091169034908381818185875af1925050503d8060008114610c9a576040519150601f19603f3d011682016040523d82523d6000602084013e610c9f565b606091505b50600f54604051929450909250831515916001600160a01b03909116907fb08889abce443443404b2caf69aa3ccfb9ebfdf1ad2a634d06e11e24c106793890610ceb90859034906123de565b60405180910390a3610cfd8484611917565b50505050565b6109c68383836040518060200160405280600081525061119d565b60608160008167ffffffffffffffff811115610d3c57610d3c6121c0565b604051908082528060200260200182016040528015610d8e57816020015b604080516080810182526000808252602080830182905292820181905260608201528252600019909201910181610d5a5790505b50905060005b828114610de157610dbc868683818110610db057610db0612400565b905060200201356112a9565b828281518110610dce57610dce612400565b6020908102919091010152600101610d94565b50949350505050565b60006107c882611931565b610e00816001610a9a565b50565b60006001600160a01b038216610e2c576040516323d3ad8160e21b815260040160405180910390fd5b506001600160a01b031660009081526005602052604090205467ffffffffffffffff1690565b610e5a6119a0565b61094f60006119fa565b610e6c6119a0565b610e768282611a4c565b5050565b60606000806000610e8a85610e03565b905060008167ffffffffffffffff811115610ea757610ea76121c0565b604051908082528060200260200182016040528015610ed0578160200160208202803683370190505b509050610efd60408051608081018252600080825260208201819052918101829052606081019190915290565b60015b838614610f7757610f1081611b49565b91508160400151610f6f5781516001600160a01b031615610f3057815194505b876001600160a01b0316856001600160a01b031603610f6f5780838780600101985081518110610f6257610f62612400565b6020026020010181815250505b600101610f00565b50909695505050505050565b610f8b6119a0565b600c55565b6060600380546107dd90612335565b6060818310610fc157604051631960ccad60e11b815260040160405180910390fd5b600080610fcd60005490565b90506001851015610fdd57600194505b80841115610fe9578093505b6000610ff487610e03565b905084861015611013578585038181101561100d578091505b50611017565b5060005b60008167ffffffffffffffff811115611032576110326121c0565b60405190808252806020026020018201604052801561105b578160200160208202803683370190505b5090508160000361107157935061112092505050565b600061107c886112a9565b90506000816040015161108d575080515b885b88811415801561109f5750848714155b15611114576110ad81611b49565b9250826040015161110c5782516001600160a01b0316156110cd57825191505b8a6001600160a01b0316826001600160a01b03160361110c57808488806001019950815181106110ff576110ff612400565b6020026020010181815250505b60010161108f565b50505092835250909150505b9392505050565b610e003382610a9a565b3360008181526007602090815260408083206001600160a01b03871680855290835292819020805460ff191686151590811790915590519081529192917f17307eab39ab6107e8899845ad3d59bd9653f200f220920489ca2b5937696c31910160405180910390a35050565b6111a8848484610951565b6001600160a01b0383163b15610cfd576111c484848484611b85565b610cfd576040516368d2bf6b60e11b815260040160405180910390fd5b6111e96119a0565b600b805460ff1916911515919091179055565b6112046119a0565b604051479060009081906001600160a01b0385169084908381818185875af1925050503d8060008114611253576040519150601f19603f3d011682016040523d82523d6000602084013e611258565b606091505b5091509150811515846001600160a01b03167fb08889abce443443404b2caf69aa3ccfb9ebfdf1ad2a634d06e11e24c1067938838660405161129b9291906123de565b60405180910390a350505050565b604080516080810182526000808252602082018190529181018290526060810191909152604080516080810182526000808252602082018190529181018290526060810191909152600183108061130257506000548310155b1561130d5792915050565b61131683611b49565b90508060400151156113285792915050565b61112083611c70565b600e5460405163295d33a960e21b8152600481018390526060916001600160a01b03169063a574cea490602401600060405180830381865afa15801561137b573d6000803e3d6000fd5b505050506040513d6000823e601f3d908101601f191682016040526107c89190810190612416565b6113ab6119a0565b6001600160a01b0381166113f35760405162461bcd60e51b815260206004820152600f60248201526e4e4f205a45524f204144445245535360881b60448201526064016109a2565b600f80546001600160a01b0319166001600160a01b0392909216919091179055565b600d546001600160a01b03166114685760405162461bcd60e51b81526020600482015260186024820152774e4f2042495445204259205649504552204144445245535360401b60448201526064016109a2565b6114706119a0565b610e768282611917565b6114826119a0565b6001600160a01b0381166114e75760405162461bcd60e51b815260206004820152602660248201527f4f776e61626c653a206e6577206f776e657220697320746865207a65726f206160448201526564647265737360d01b60648201526084016109a2565b610e00816119fa565b6114f86119a0565b6001600160a01b0381166115405760405162461bcd60e51b815260206004820152600f60248201526e4e4f205a45524f204144445245535360881b60448201526064016109a2565b600d80546001600160a01b0319166001600160a01b0392909216919091179055565b61156a6119a0565b600e80546001600160a01b0319166001600160a01b0392909216919091179055565b60006001600160e01b0319821663152a902d60e11b14806107c857506301ffc9a760e01b6001600160e01b03198316146107c8565b6000816001111580156115d5575060005482105b80156107c8575050600090815260046020526040902054600160e01b161590565b6115ff82610e03565b1561165a5760405162461bcd60e51b815260206004820152602560248201527f43616e277420706f69736f6e20736f6d656f6e652077686f206f776e732061206044820152642b34b832b960d91b60648201526084016109a2565b816001600160a01b0316316000036116c35760405162461bcd60e51b815260206004820152602660248201527f43616e277420706f69736f6e20616e2061646472657373207769746820302062604482015265616c616e636560d01b60648201526084016109a2565b60006010826101e681106116d9576116d9612400565b0154905060006116ea8260016123c6565b600d546040516308d7444360e01b81526001600160a01b038881166004830152878116602483015260448201879052606482018490529293509116906308d7444390608401600060405180830381600087803b15801561174957600080fd5b505af115801561175d573d6000803e3d6000fd5b50505050806010846101e6811061177657611776612400565b01555050505050565b600061178a82611931565b9050836001600160a01b0316816001600160a01b0316146117bd5760405162a1148160e81b815260040160405180910390fd5b60008281526006602052604090208054338082146001600160a01b0388169091141761180a576117ed86336106df565b61180a57604051632ce44b5f60e11b815260040160405180910390fd5b6001600160a01b03851661183157604051633a954ecd60e21b815260040160405180910390fd5b801561183c57600082555b6001600160a01b038681166000908152600560205260408082208054600019019055918716808252919020805460010190554260a01b17600160e11b17600085815260046020526040812091909155600160e11b841690036118ce576001840160008181526004602052604081205490036118cc5760005481146118cc5760008181526004602052604090208490555b505b83856001600160a01b0316876001600160a01b03167fddf252ad1be2c89b69c2b068fc378daa952ba7f163c4a11628f55a4df523b3ef60405160405180910390a4505050505050565b610e76828260405180602001604052806000815250611ca5565b60008180600111611987576000548110156119875760008181526004602052604081205490600160e01b82169003611985575b80600003611120575060001901600081815260046020526040902054611964565b505b604051636f96cda160e11b815260040160405180910390fd5b6008546001600160a01b0316331461094f5760405162461bcd60e51b815260206004820181905260248201527f4f776e61626c653a2063616c6c6572206973206e6f7420746865206f776e657260448201526064016109a2565b600880546001600160a01b038381166001600160a01b0319831681179093556040519116919082907f8be0079c531659141344cd1fd0a4f28419497f9722a3daafe3b4186f6b6457e090600090a35050565b6127106001600160601b0382161115611aba5760405162461bcd60e51b815260206004820152602a60248201527f455243323938313a20726f79616c7479206665652077696c6c206578636565646044820152692073616c65507269636560b01b60648201526084016109a2565b6001600160a01b038216611b105760405162461bcd60e51b815260206004820152601960248201527f455243323938313a20696e76616c69642072656365697665720000000000000060448201526064016109a2565b604080518082019091526001600160a01b039092168083526001600160601b039091166020909201829052600160a01b90910217600955565b6040805160808101825260008082526020820181905291810182905260608101919091526000828152600460205260409020546107c890611d12565b604051630a85bd0160e11b81526000906001600160a01b0385169063150b7a0290611bba90339089908890889060040161248d565b6020604051808303816000875af1925050508015611bf5575060408051601f3d908101601f19168201909252611bf2918101906124ca565b60015b611c53573d808015611c23576040519150601f19603f3d011682016040523d82523d6000602084013e611c28565b606091505b508051600003611c4b576040516368d2bf6b60e11b815260040160405180910390fd5b805181602001fd5b6001600160e01b031916630a85bd0160e11b149050949350505050565b6040805160808101825260008082526020820181905291810182905260608101919091526107c8611ca083611931565b611d12565b611caf8383611d5a565b6001600160a01b0383163b156109c6576000548281035b611cd96000868380600101945086611b85565b611cf6576040516368d2bf6b60e11b815260040160405180910390fd5b818110611cc6578160005414611d0b57600080fd5b5050505050565b604080516080810182526001600160a01b038316815260a083901c67ffffffffffffffff166020820152600160e01b831615159181019190915260e89190911c606082015290565b6000805490829003611d7f5760405163b562e8dd60e01b815260040160405180910390fd5b6001600160a01b03831660008181526005602090815260408083208054680100000000000000018802019055848352600490915281206001851460e11b4260a01b178317905582840190839083907fddf252ad1be2c89b69c2b068fc378daa952ba7f163c4a11628f55a4df523b3ef8180a4600183015b818114611e2e57808360007fddf252ad1be2c89b69c2b068fc378daa952ba7f163c4a11628f55a4df523b3ef600080a4600101611df6565b5081600003611e4f57604051622e076360e81b815260040160405180910390fd5b60005550505050565b6001600160e01b031981168114610e0057600080fd5b600060208284031215611e8057600080fd5b813561112081611e58565b60005b83811015611ea6578181015183820152602001611e8e565b83811115610cfd5750506000910152565b60008151808452611ecf816020860160208601611e8b565b601f01601f19169290920160200192915050565b6020815260006111206020830184611eb7565b600060208284031215611f0857600080fd5b5035919050565b6001600160a01b0381168114610e0057600080fd5b60008060408385031215611f3757600080fd5b8235611f4281611f0f565b946020939093013593505050565b600080600060608486031215611f6557600080fd5b8335611f7081611f0f565b92506020840135611f8081611f0f565b929592945050506040919091013590565b60008060408385031215611fa457600080fd5b50508035926020909101359150565b60008060208385031215611fc657600080fd5b823567ffffffffffffffff80821115611fde57600080fd5b818501915085601f830112611ff257600080fd5b81358181111561200157600080fd5b8660208260051b850101111561201657600080fd5b60209290920196919550909350505050565b80516001600160a01b0316825260208082015167ffffffffffffffff169083015260408082015115159083015260609081015162ffffff16910152565b6020808252825182820181905260009190848201906040850190845b81811015610f7757612094838551612028565b9284019260809290920191600101612081565b6000602082840312156120b957600080fd5b813561112081611f0f565b600080604083850312156120d757600080fd5b82356120e281611f0f565b915060208301356001600160601b03811681146120fe57600080fd5b809150509250929050565b6020808252825182820181905260009190848201906040850190845b81811015610f7757835183529284019291840191600101612125565b60008060006060848603121561215657600080fd5b833561216181611f0f565b95602085013595506040909401359392505050565b8035801515811461218657600080fd5b919050565b6000806040838503121561219e57600080fd5b82356121a981611f0f565b91506121b760208401612176565b90509250929050565b634e487b7160e01b600052604160045260246000fd5b604051601f8201601f1916810167ffffffffffffffff811182821017156121ff576121ff6121c0565b604052919050565b600067ffffffffffffffff821115612221576122216121c0565b50601f01601f191660200190565b6000806000806080858703121561224557600080fd5b843561225081611f0f565b9350602085013561226081611f0f565b925060408501359150606085013567ffffffffffffffff81111561228357600080fd5b8501601f8101871361229457600080fd5b80356122a76122a282612207565b6121d6565b8181528860208385010111156122bc57600080fd5b8160208401602083013760006020838301015280935050505092959194509250565b6000602082840312156122f057600080fd5b61112082612176565b608081016107c88284612028565b6000806040838503121561231a57600080fd5b823561232581611f0f565b915060208301356120fe81611f0f565b600181811c9082168061234957607f821691505b60208210810361236957634e487b7160e01b600052602260045260246000fd5b50919050565b634e487b7160e01b600052601160045260246000fd5b600081600019048311821515161561239f5761239f61236f565b500290565b6000826123c157634e487b7160e01b600052601260045260246000fd5b500490565b600082198211156123d9576123d961236f565b500190565b6040815260006123f16040830185611eb7565b90508260208301529392505050565b634e487b7160e01b600052603260045260246000fd5b60006020828403121561242857600080fd5b815167ffffffffffffffff81111561243f57600080fd5b8201601f8101841361245057600080fd5b805161245e6122a282612207565b81815285602083850101111561247357600080fd5b612484826020830160208601611e8b565b95945050505050565b6001600160a01b03858116825284166020820152604081018390526080606082018190526000906124c090830184611eb7565b9695505050505050565b6000602082840312156124dc57600080fd5b815161112081611e5856fea26469706673582212209b5940ce6ef4ddec2a353dd365aebe50fa56122ab747aba834369a1bac3dc2d764736f6c634300080f0033",
  "linkReferences": {},
  "deployedLinkReferences": {}
}