{
  "_format": "hh-sol-artifact-1",
  "contractName": "BiteByViper",
  "sourceName": "contracts/BiteByViper.sol",
  "abi": [
    {
      "inputs": [
        {
          "internalType": "address",
          "name": "viperAddress_",
          "type": "address"
        },
        {
          "internalType": "address",
          "name": "metadata_",
          "type": "address"
        }
      ],
      "stateMutability": "nonpayable",
      "type": "constructor"
    },
    {
      "anonymous": false,
      "inputs": [
        {
          "indexed": true,
          "internalType": "address",
          "name": "owner",
          "type": "address"
        },
        {
          "indexed": true,
          "internalType": "address",
          "name": "approved",
          "type": "address"
        },
        {
          "indexed": true,
          "internalType": "uint256",
          "name": "tokenId",
          "type": "uint256"
        }
      ],
      "name": "Approval",
      "type": "event"
    },
    {
      "anonymous": false,
      "inputs": [
        {
          "indexed": true,
          "internalType": "address",
          "name": "owner",
          "type": "address"
        },
        {
          "indexed": true,
          "internalType": "address",
          "name": "operator",
          "type": "address"
        },
        {
          "indexed": false,
          "internalType": "bool",
          "name": "approved",
          "type": "bool"
        }
      ],
      "name": "ApprovalForAll",
      "type": "event"
    },
    {
      "anonymous": false,
      "inputs": [
        {
          "indexed": true,
          "internalType": "address",
          "name": "previousOwner",
          "type": "address"
        },
        {
          "indexed": true,
          "internalType": "address",
          "name": "newOwner",
          "type": "address"
        }
      ],
      "name": "OwnershipTransferred",
      "type": "event"
    },
    {
      "anonymous": false,
      "inputs": [
        {
          "indexed": true,
          "internalType": "address",
          "name": "from",
          "type": "address"
        },
        {
          "indexed": true,
          "internalType": "address",
          "name": "to",
          "type": "address"
        },
        {
          "indexed": true,
          "internalType": "uint256",
          "name": "tokenId",
          "type": "uint256"
        }
      ],
      "name": "Transfer",
      "type": "event"
    },
    {
      "inputs": [
        {
          "internalType": "address",
          "name": "",
          "type": "address"
        },
        {
          "internalType": "uint256",
          "name": "",
          "type": "uint256"
        }
      ],
      "name": "approve",
      "outputs": [],
      "stateMutability": "pure",
      "type": "function"
    },
    {
      "inputs": [
        {
          "internalType": "address",
          "name": "owner",
          "type": "address"
        }
      ],
      "name": "balanceOf",
      "outputs": [
        {
          "internalType": "uint256",
          "name": "balance",
          "type": "uint256"
        }
      ],
      "stateMutability": "view",
      "type": "function"
    },
    {
      "inputs": [
        {
          "internalType": "address",
          "name": "from",
          "type": "address"
        },
        {
          "internalType": "address",
          "name": "to",
          "type": "address"
        },
        {
          "internalType": "uint256",
          "name": "tokenId",
          "type": "uint256"
        },
        {
          "internalType": "uint256",
          "name": "length",
          "type": "uint256"
        }
      ],
      "name": "bite",
      "outputs": [],
      "stateMutability": "nonpayable",
      "type": "function"
    },
    {
      "inputs": [
        {
          "internalType": "uint256",
          "name": "tokenId",
          "type": "uint256"
        }
      ],
      "name": "extractAddress",
      "outputs": [
        {
          "internalType": "address",
          "name": "ownerOfToken",
          "type": "address"
        }
      ],
      "stateMutability": "pure",
      "type": "function"
    },
    {
      "inputs": [
        {
          "internalType": "uint256",
          "name": "combinedtokenId",
          "type": "uint256"
        }
      ],
      "name": "extractLength",
      "outputs": [
        {
          "internalType": "uint256",
          "name": "length",
          "type": "uint256"
        }
      ],
      "stateMutability": "pure",
      "type": "function"
    },
    {
      "inputs": [
        {
          "internalType": "uint256",
          "name": "combinedTokenId",
          "type": "uint256"
        }
      ],
      "name": "extractTokenId",
      "outputs": [
        {
          "internalType": "uint256",
          "name": "tokenId",
          "type": "uint256"
        }
      ],
      "stateMutability": "pure",
      "type": "function"
    },
    {
      "inputs": [
        {
          "internalType": "uint256",
          "name": "",
          "type": "uint256"
        }
      ],
      "name": "getApproved",
      "outputs": [
        {
          "internalType": "address",
          "name": "",
          "type": "address"
        }
      ],
      "stateMutability": "view",
      "type": "function"
    },
    {
      "inputs": [
        {
          "internalType": "address",
          "name": "from",
          "type": "address"
        },
        {
          "internalType": "uint256",
          "name": "tokenId",
          "type": "uint256"
        },
        {
          "internalType": "uint256",
          "name": "length",
          "type": "uint256"
        }
      ],
      "name": "getCombinedTokenId",
      "outputs": [
        {
          "internalType": "uint256",
          "name": "",
          "type": "uint256"
        }
      ],
      "stateMutability": "pure",
      "type": "function"
    },
    {
      "inputs": [
        {
          "internalType": "address",
          "name": "",
          "type": "address"
        },
        {
          "internalType": "address",
          "name": "",
          "type": "address"
        }
      ],
      "name": "isApprovedForAll",
      "outputs": [
        {
          "internalType": "bool",
          "name": "",
          "type": "bool"
        }
      ],
      "stateMutability": "view",
      "type": "function"
    },
    {
      "inputs": [],
      "name": "metadata",
      "outputs": [
        {
          "internalType": "address",
          "name": "",
          "type": "address"
        }
      ],
      "stateMutability": "view",
      "type": "function"
    },
    {
      "inputs": [],
      "name": "name",
      "outputs": [
        {
          "internalType": "string",
          "name": "",
          "type": "string"
        }
      ],
      "stateMutability": "pure",
      "type": "function"
    },
    {
      "inputs": [],
      "name": "owner",
      "outputs": [
        {
          "internalType": "address",
          "name": "",
          "type": "address"
        }
      ],
      "stateMutability": "view",
      "type": "function"
    },
    {
      "inputs": [
        {
          "internalType": "uint256",
          "name": "tokenId",
          "type": "uint256"
        }
      ],
      "name": "ownerOf",
      "outputs": [
        {
          "internalType": "address",
          "name": "",
          "type": "address"
        }
      ],
      "stateMutability": "view",
      "type": "function"
    },
    {
      "inputs": [],
      "name": "renounceOwnership",
      "outputs": [],
      "stateMutability": "nonpayable",
      "type": "function"
    },
    {
      "inputs": [
        {
          "internalType": "address",
          "name": "",
          "type": "address"
        },
        {
          "internalType": "address",
          "name": "",
          "type": "address"
        },
        {
          "internalType": "uint256",
          "name": "",
          "type": "uint256"
        }
      ],
      "name": "safeTransferFrom",
      "outputs": [],
      "stateMutability": "pure",
      "type": "function"
    },
    {
      "inputs": [
        {
          "internalType": "address",
          "name": "",
          "type": "address"
        },
        {
          "internalType": "address",
          "name": "",
          "type": "address"
        },
        {
          "internalType": "uint256",
          "name": "",
          "type": "uint256"
        },
        {
          "internalType": "bytes",
          "name": "",
          "type": "bytes"
        }
      ],
      "name": "safeTransferFrom",
      "outputs": [],
      "stateMutability": "pure",
      "type": "function"
    },
    {
      "inputs": [
        {
          "internalType": "address",
          "name": "",
          "type": "address"
        },
        {
          "internalType": "bool",
          "name": "",
          "type": "bool"
        }
      ],
      "name": "setApprovalForAll",
      "outputs": [],
      "stateMutability": "pure",
      "type": "function"
    },
    {
      "inputs": [
        {
          "internalType": "bytes4",
          "name": "interfaceId",
          "type": "bytes4"
        }
      ],
      "name": "supportsInterface",
      "outputs": [
        {
          "internalType": "bool",
          "name": "",
          "type": "bool"
        }
      ],
      "stateMutability": "view",
      "type": "function"
    },
    {
      "inputs": [],
      "name": "symbol",
      "outputs": [
        {
          "internalType": "string",
          "name": "",
          "type": "string"
        }
      ],
      "stateMutability": "pure",
      "type": "function"
    },
    {
      "inputs": [
        {
          "internalType": "uint256",
          "name": "id",
          "type": "uint256"
        }
      ],
      "name": "tokenURI",
      "outputs": [
        {
          "internalType": "string",
          "name": "",
          "type": "string"
        }
      ],
      "stateMutability": "view",
      "type": "function"
    },
    {
      "inputs": [],
      "name": "totalSupply",
      "outputs": [
        {
          "internalType": "uint256",
          "name": "",
          "type": "uint256"
        }
      ],
      "stateMutability": "view",
      "type": "function"
    },
    {
      "inputs": [
        {
          "internalType": "address",
          "name": "",
          "type": "address"
        },
        {
          "internalType": "address",
          "name": "",
          "type": "address"
        },
        {
          "internalType": "uint256",
          "name": "",
          "type": "uint256"
        }
      ],
      "name": "transferFrom",
      "outputs": [],
      "stateMutability": "pure",
      "type": "function"
    },
    {
      "inputs": [
        {
          "internalType": "address",
          "name": "newOwner",
          "type": "address"
        }
      ],
      "name": "transferOwnership",
      "outputs": [],
      "stateMutability": "nonpayable",
      "type": "function"
    },
    {
      "inputs": [
        {
          "internalType": "address",
          "name": "metadata_",
          "type": "address"
        }
      ],
      "name": "updateMetadataAddress",
      "outputs": [],
      "stateMutability": "nonpayable",
      "type": "function"
    },
    {
      "inputs": [
        {
          "internalType": "address",
          "name": "viperAddress_",
          "type": "address"
        }
      ],
      "name": "updateViperAddress",
      "outputs": [],
      "stateMutability": "nonpayable",
      "type": "function"
    },
    {
      "inputs": [],
      "name": "viperAddress",
      "outputs": [
        {
          "internalType": "address",
          "name": "",
          "type": "address"
        }
      ],
      "stateMutability": "view",
      "type": "function"
    }
  ],
  "bytecode": "0x608060405234801561001057600080fd5b50604051610d40380380610d4083398101604081905261002f916100d5565b61003833610069565b600180546001600160a01b039384166001600160a01b03199182161790915560028054929093169116179055610108565b600080546001600160a01b038381166001600160a01b0319831681178455604051919092169283917f8be0079c531659141344cd1fd0a4f28419497f9722a3daafe3b4186f6b6457e09190a35050565b80516001600160a01b03811681146100d057600080fd5b919050565b600080604083850312156100e857600080fd5b6100f1836100b9565b91506100ff602084016100b9565b90509250929050565b610c29806101176000396000f3fe608060405234801561001057600080fd5b506004361061018e5760003560e01c806395d89b41116100de578063e985e9c511610097578063ed892aae11610071578063ed892aae146103a1578063f2fde38b146103b4578063f6e0a621146103c7578063febb6eed146103da57600080fd5b8063e985e9c51461035e578063ecc15d4314610374578063ed1ea9281461038757600080fd5b806395d89b41146102e7578063a22cb46514610308578063b238f11d14610316578063b88d4fde1461032a578063c87b56dd14610338578063cb7e01d41461034b57600080fd5b8063392f37e91161014b5780636352211e116101255780636352211e1461027c57806370a08231146102a5578063715018a6146102ce5780638da5cb5b146102d657600080fd5b8063392f37e9146102515780633aa492a31461026457806342842e0e1461024357600080fd5b806301ffc9a71461019357806306fdde03146101bb578063081812fc146101eb578063095ea7b31461021757806318160ddd1461022c57806323b872dd14610243575b600080fd5b6101a66101a1366004610821565b610405565b60405190151581526020015b60405180910390f35b60408051808201909152600b81526a2134ba32a13cab34b832b960a91b60208201525b6040516101b29190610882565b6101ff6101f93660046108b5565b50600090565b6040516001600160a01b0390911681526020016101b2565b61022a6102253660046108ea565b610457565b005b61023560035481565b6040519081526020016101b2565b61022a610225366004610914565b6002546101ff906001600160a01b031681565b6102356102723660046108b5565b60a01c6101ff1690565b6101ff61028a3660046108b5565b6000908152600560205260409020546001600160a01b031690565b6102356102b3366004610950565b6001600160a01b031660009081526004602052604090205490565b61022a6104a4565b6000546001600160a01b03166101ff565b60408051808201909152600581526421212b282960d91b60208201526101de565b61022a61022536600461096b565b6102356103243660046108b5565b60a91c90565b61022a6102253660046109a7565b6101de6103463660046108b5565b6104b8565b6001546101ff906001600160a01b031681565b6101a661036c366004610a42565b600092915050565b61022a610382366004610a75565b61052a565b6101ff6103953660046108b5565b6001600160a01b031690565b61022a6103af366004610950565b6106aa565b61022a6103c2366004610950565b6106d4565b61022a6103d5366004610950565b61074d565b6102356103e8366004610ab7565b60a981901b6001600160a01b03841660a084901b17179392505050565b60006001600160e01b031982166380ac58cd60e01b148061043657506001600160e01b03198216635b5e139f60e01b145b8061045157506301ffc9a760e01b6001600160e01b03198316145b92915050565b60405162461bcd60e51b815260206004820152601a60248201527f56495045522042495445532043414e275420424520435552454400000000000060448201526064015b60405180910390fd5b6104ac610777565b6104b660006107d1565b565b60025460405163295d33a960e21b8152600481018390526060916001600160a01b03169063a574cea490602401600060405180830381865afa158015610502573d6000803e3d6000fd5b505050506040513d6000823e601f3d908101601f191682016040526104519190810190610b00565b6001546001600160a01b031633146105715760405162461bcd60e51b815260206004820152600a60248201526927a7262c902b24a822a960b11b604482015260640161049b565b600061058385846103e8600186610bc3565b6000818152600560205260409020549091506001600160a01b038086169116036105e35760405162461bcd60e51b8152602060048201526011602482015270594f55204a55535420424954205448454d60781b604482015260640161049b565b600060a084901b6001600160a01b0387161760a984901b176001600160a01b038616600090815260046020526040812080549293509061062283610bda565b9091555050600081815260056020526040812080546001600160a01b0319166001600160a01b038816179055600380549161065c83610bda565b919050555080856001600160a01b0316876001600160a01b03167fddf252ad1be2c89b69c2b068fc378daa952ba7f163c4a11628f55a4df523b3ef60405160405180910390a4505050505050565b6106b2610777565b600280546001600160a01b0319166001600160a01b0392909216919091179055565b6106dc610777565b6001600160a01b0381166107415760405162461bcd60e51b815260206004820152602660248201527f4f776e61626c653a206e6577206f776e657220697320746865207a65726f206160448201526564647265737360d01b606482015260840161049b565b61074a816107d1565b50565b610755610777565b600180546001600160a01b0319166001600160a01b0392909216919091179055565b6000546001600160a01b031633146104b65760405162461bcd60e51b815260206004820181905260248201527f4f776e61626c653a2063616c6c6572206973206e6f7420746865206f776e6572604482015260640161049b565b600080546001600160a01b038381166001600160a01b0319831681178455604051919092169283917f8be0079c531659141344cd1fd0a4f28419497f9722a3daafe3b4186f6b6457e09190a35050565b60006020828403121561083357600080fd5b81356001600160e01b03198116811461084b57600080fd5b9392505050565b60005b8381101561086d578181015183820152602001610855565b8381111561087c576000848401525b50505050565b60208152600082518060208401526108a1816040850160208701610852565b601f01601f19169190910160400192915050565b6000602082840312156108c757600080fd5b5035919050565b80356001600160a01b03811681146108e557600080fd5b919050565b600080604083850312156108fd57600080fd5b610906836108ce565b946020939093013593505050565b60008060006060848603121561092957600080fd5b610932846108ce565b9250610940602085016108ce565b9150604084013590509250925092565b60006020828403121561096257600080fd5b61084b826108ce565b6000806040838503121561097e57600080fd5b610987836108ce565b91506020830135801515811461099c57600080fd5b809150509250929050565b6000806000806000608086880312156109bf57600080fd5b6109c8866108ce565b94506109d6602087016108ce565b935060408601359250606086013567ffffffffffffffff808211156109fa57600080fd5b818801915088601f830112610a0e57600080fd5b813581811115610a1d57600080fd5b896020828501011115610a2f57600080fd5b9699959850939650602001949392505050565b60008060408385031215610a5557600080fd5b610a5e836108ce565b9150610a6c602084016108ce565b90509250929050565b60008060008060808587031215610a8b57600080fd5b610a94856108ce565b9350610aa2602086016108ce565b93969395505050506040820135916060013590565b600080600060608486031215610acc57600080fd5b610ad5846108ce565b95602085013595506040909401359392505050565b634e487b7160e01b600052604160045260246000fd5b600060208284031215610b1257600080fd5b815167ffffffffffffffff80821115610b2a57600080fd5b818401915084601f830112610b3e57600080fd5b815181811115610b5057610b50610aea565b604051601f8201601f19908116603f01168101908382118183101715610b7857610b78610aea565b81604052828152876020848701011115610b9157600080fd5b610ba2836020830160208801610852565b979650505050505050565b634e487b7160e01b600052601160045260246000fd5b600082821015610bd557610bd5610bad565b500390565b600060018201610bec57610bec610bad565b506001019056fea2646970667358221220314a33147ae0a7580bc2ca5e1586299eb09de2a86a2fc23c1bc4ac90d452a04a64736f6c634300080f0033",
  "linkReferences": {},
  "deployedLinkReferences": {}
}