{
  "_format": "hh-sol-artifact-1",
  "contractName": "Controller",
  "sourceName": "contracts/Controller.sol",
  "abi": [
    {
      "inputs": [
        {
          "internalType": "address payable",
          "name": "splitter_",
          "type": "address"
        }
      ],
      "stateMutability": "nonpayable",
      "type": "constructor"
    },
    {
      "anonymous": false,
      "inputs": [
        {
          "indexed": true,
          "internalType": "address",
          "name": "to",
          "type": "address"
        },
        {
          "indexed": true,
          "internalType": "bool",
          "name": "success",
          "type": "bool"
        },
        {
          "indexed": false,
          "internalType": "bytes",
          "name": "returnData",
          "type": "bytes"
        },
        {
          "indexed": false,
          "internalType": "uint256",
          "name": "amount",
          "type": "uint256"
        }
      ],
      "name": "EthMoved",
      "type": "event"
    },
    {
      "anonymous": false,
      "inputs": [
        {
          "indexed": true,
          "internalType": "address",
          "name": "previousOwner",
          "type": "address"
        },
        {
          "indexed": true,
          "internalType": "address",
          "name": "newOwner",
          "type": "address"
        }
      ],
      "name": "OwnershipTransferred",
      "type": "event"
    },
    {
      "inputs": [
        {
          "internalType": "address",
          "name": "recipient",
          "type": "address"
        },
        {
          "internalType": "uint256",
          "name": "quantity",
          "type": "uint256"
        }
      ],
      "name": "adminMint",
      "outputs": [],
      "stateMutability": "nonpayable",
      "type": "function"
    },
    {
      "inputs": [],
      "name": "biteByViper",
      "outputs": [
        {
          "internalType": "address",
          "name": "",
          "type": "address"
        }
      ],
      "stateMutability": "view",
      "type": "function"
    },
    {
      "inputs": [],
      "name": "mint",
      "outputs": [],
      "stateMutability": "payable",
      "type": "function"
    },
    {
      "inputs": [
        {
          "internalType": "address",
          "name": "recipient",
          "type": "address"
        },
        {
          "internalType": "uint256",
          "name": "quantity",
          "type": "uint256"
        }
      ],
      "name": "mint",
      "outputs": [],
      "stateMutability": "payable",
      "type": "function"
    },
    {
      "inputs": [
        {
          "internalType": "address",
          "name": "recipient",
          "type": "address"
        }
      ],
      "name": "mint",
      "outputs": [],
      "stateMutability": "payable",
      "type": "function"
    },
    {
      "inputs": [
        {
          "internalType": "uint256",
          "name": "quantity",
          "type": "uint256"
        }
      ],
      "name": "mint",
      "outputs": [],
      "stateMutability": "payable",
      "type": "function"
    },
    {
      "inputs": [],
      "name": "nft",
      "outputs": [
        {
          "internalType": "address",
          "name": "",
          "type": "address"
        }
      ],
      "stateMutability": "view",
      "type": "function"
    },
    {
      "inputs": [],
      "name": "owner",
      "outputs": [
        {
          "internalType": "address",
          "name": "",
          "type": "address"
        }
      ],
      "stateMutability": "view",
      "type": "function"
    },
    {
      "inputs": [],
      "name": "paused",
      "outputs": [
        {
          "internalType": "bool",
          "name": "",
          "type": "bool"
        }
      ],
      "stateMutability": "view",
      "type": "function"
    },
    {
      "inputs": [
        {
          "internalType": "address",
          "name": "from",
          "type": "address"
        },
        {
          "internalType": "address",
          "name": "to",
          "type": "address"
        },
        {
          "internalType": "uint256",
          "name": "tokenId",
          "type": "uint256"
        },
        {
          "internalType": "uint256",
          "name": "length",
          "type": "uint256"
        }
      ],
      "name": "poison",
      "outputs": [],
      "stateMutability": "nonpayable",
      "type": "function"
    },
    {
      "inputs": [],
      "name": "price",
      "outputs": [
        {
          "internalType": "uint256",
          "name": "",
          "type": "uint256"
        }
      ],
      "stateMutability": "view",
      "type": "function"
    },
    {
      "inputs": [
        {
          "internalType": "address payable",
          "name": "_to",
          "type": "address"
        }
      ],
      "name": "recoverUnsuccessfulMintPayment",
      "outputs": [],
      "stateMutability": "nonpayable",
      "type": "function"
    },
    {
      "inputs": [],
      "name": "renounceOwnership",
      "outputs": [],
      "stateMutability": "nonpayable",
      "type": "function"
    },
    {
      "inputs": [
        {
          "internalType": "address",
          "name": "biteByViper_",
          "type": "address"
        }
      ],
      "name": "setBiteByViper",
      "outputs": [],
      "stateMutability": "nonpayable",
      "type": "function"
    },
    {
      "inputs": [
        {
          "internalType": "address",
          "name": "nft_",
          "type": "address"
        }
      ],
      "name": "setNFT",
      "outputs": [],
      "stateMutability": "nonpayable",
      "type": "function"
    },
    {
      "inputs": [
        {
          "internalType": "bool",
          "name": "paused_",
          "type": "bool"
        }
      ],
      "name": "setPause",
      "outputs": [],
      "stateMutability": "nonpayable",
      "type": "function"
    },
    {
      "inputs": [
        {
          "internalType": "uint256",
          "name": "price_",
          "type": "uint256"
        }
      ],
      "name": "setPrice",
      "outputs": [],
      "stateMutability": "nonpayable",
      "type": "function"
    },
    {
      "inputs": [
        {
          "internalType": "address",
          "name": "splitter_",
          "type": "address"
        }
      ],
      "name": "setSplitter",
      "outputs": [],
      "stateMutability": "nonpayable",
      "type": "function"
    },
    {
      "inputs": [],
      "name": "splitter",
      "outputs": [
        {
          "internalType": "address",
          "name": "",
          "type": "address"
        }
      ],
      "stateMutability": "view",
      "type": "function"
    },
    {
      "inputs": [
        {
          "internalType": "address",
          "name": "newOwner",
          "type": "address"
        }
      ],
      "name": "transferOwnership",
      "outputs": [],
      "stateMutability": "nonpayable",
      "type": "function"
    }
  ],
  "bytecode": "0x608060405266c55f7bc23038e360045534801561001b57600080fd5b50604051610f43380380610f4383398101604081905261003a916100cc565b6100433361007c565b6000805460ff60a01b1916600160a01b179055600280546001600160a01b039092166001600160a01b03199092169190911790556100fc565b600080546001600160a01b038381166001600160a01b0319831681178455604051919092169283917f8be0079c531659141344cd1fd0a4f28419497f9722a3daafe3b4186f6b6457e09190a35050565b6000602082840312156100de57600080fd5b81516001600160a01b03811681146100f557600080fd5b9392505050565b610e388061010b6000396000f3fe60806040526004361061011f5760003560e01c806392d11092116100a0578063c93fc83d11610064578063c93fc83d146102ec578063e58306f91461030c578063f2fde38b1461032c578063f363c9ce1461034c578063f56e9c661461036c57600080fd5b806392d1109214610255578063a035b1fe14610275578063a0712d6814610299578063bedb86fb146102ac578063c09fd8ef146102cc57600080fd5b80635c975abb116100e75780635c975abb146101be5780636a627842146101ef578063715018a6146102025780638da5cb5b1461021757806391b7f5ed1461023557600080fd5b806308d74443146101245780631249c58b146101465780633cd8045e1461014e57806340c10f191461018b57806347ccca021461019e575b600080fd5b34801561013057600080fd5b5061014461013f366004610c29565b61038c565b005b610144610615565b34801561015a57600080fd5b5060025461016e906001600160a01b031681565b6040516001600160a01b0390911681526020015b60405180910390f35b610144610199366004610c6f565b610622565b3480156101aa57600080fd5b5060015461016e906001600160a01b031681565b3480156101ca57600080fd5b506000546101df90600160a01b900460ff1681565b6040519015158152602001610182565b6101446101fd366004610c9b565b610882565b34801561020e57600080fd5b50610144610890565b34801561022357600080fd5b506000546001600160a01b031661016e565b34801561024157600080fd5b50610144610250366004610cbf565b6108a2565b34801561026157600080fd5b5060035461016e906001600160a01b031681565b34801561028157600080fd5b5061028b60045481565b604051908152602001610182565b6101446102a7366004610cbf565b6108af565b3480156102b857600080fd5b506101446102c7366004610cd8565b6108b9565b3480156102d857600080fd5b506101446102e7366004610c9b565b6108df565b3480156102f857600080fd5b50610144610307366004610c9b565b61098c565b34801561031857600080fd5b50610144610327366004610c6f565b6109b6565b34801561033857600080fd5b50610144610347366004610c9b565b610aa0565b34801561035857600080fd5b50610144610367366004610c9b565b610b16565b34801561037857600080fd5b50610144610387366004610c9b565b610b40565b6001546001600160a01b03166103bd5760405162461bcd60e51b81526004016103b490610cfa565b60405180910390fd5b6002546001600160a01b03166103e55760405162461bcd60e51b81526004016103b490610d1a565b6003546001600160a01b031661040d5760405162461bcd60e51b81526004016103b490610d3c565b6001546001600160a01b031633146104675760405162461bcd60e51b815260206004820152601a60248201527f4f6e6c792056697065722063616e2063616c6c20706f69736f6e00000000000060448201526064016103b4565b6001546040516370a0823160e01b81526001600160a01b038581166004830152909116906370a0823190602401602060405180830381865afa1580156104b1573d6000803e3d6000fd5b505050506040513d601f19601f820116820180604052508101906104d59190610d5f565b156105305760405162461bcd60e51b815260206004820152602560248201527f43616e277420706f69736f6e20736f6d656f6e652077686f206f776e732061206044820152642b34b832b960d91b60648201526084016103b4565b826001600160a01b0316316000036105995760405162461bcd60e51b815260206004820152602660248201527f43616e277420706f69736f6e20616e2061646472657373207769746820302062604482015265616c616e636560d01b60648201526084016103b4565b6003546040516308d7444360e01b81526001600160a01b03868116600483015285811660248301526044820185905260648201849052909116906308d74443906084015b600060405180830381600087803b1580156105f757600080fd5b505af115801561060b573d6000803e3d6000fd5b5050505050505050565b610620336001610622565b565b6001546001600160a01b031661064a5760405162461bcd60e51b81526004016103b490610cfa565b6002546001600160a01b03166106725760405162461bcd60e51b81526004016103b490610d1a565b6003546001600160a01b031661069a5760405162461bcd60e51b81526004016103b490610d3c565b600054600160a01b900460ff16156106dd5760405162461bcd60e51b815260206004820152600660248201526514105554d15160d21b60448201526064016103b4565b806004546106eb9190610d78565b3410156107285760405162461bcd60e51b815260206004820152600b60248201526a57524f4e4720505249434560a81b60448201526064016103b4565b80600114806107375750806003145b806107425750806005145b61079f5760405162461bcd60e51b815260206004820152602860248201527f43414e2754204d494e542042455349444553205155414e54495459204f4620316044820152672c2033204f52203560c01b60648201526084016103b4565b60025460405160009182916001600160a01b039091169034908381818185875af1925050503d80600081146107f0576040519150601f19603f3d011682016040523d82523d6000602084013e6107f5565b606091505b50600254604051929450909250831515916001600160a01b03909116907fb08889abce443443404b2caf69aa3ccfb9ebfdf1ad2a634d06e11e24c1067938906108419085903490610da5565b60405180910390a3600154604051630baf60eb60e31b81526001600160a01b0386811660048301526024820186905290911690635d7b0758906044016105dd565b61088d816001610622565b50565b610898610b6a565b6106206000610bc4565b6108aa610b6a565b600455565b61088d3382610622565b6108c1610b6a565b60008054911515600160a01b0260ff60a01b19909216919091179055565b6108e7610b6a565b604051479060009081906001600160a01b0385169084908381818185875af1925050503d8060008114610936576040519150601f19603f3d011682016040523d82523d6000602084013e61093b565b606091505b5091509150811515846001600160a01b03167fb08889abce443443404b2caf69aa3ccfb9ebfdf1ad2a634d06e11e24c1067938838660405161097e929190610da5565b60405180910390a350505050565b610994610b6a565b600280546001600160a01b0319166001600160a01b0392909216919091179055565b6001546001600160a01b03166109de5760405162461bcd60e51b81526004016103b490610cfa565b6002546001600160a01b0316610a065760405162461bcd60e51b81526004016103b490610d1a565b6003546001600160a01b0316610a2e5760405162461bcd60e51b81526004016103b490610d3c565b610a36610b6a565b600154604051630baf60eb60e31b81526001600160a01b0384811660048301526024820184905290911690635d7b075890604401600060405180830381600087803b158015610a8457600080fd5b505af1158015610a98573d6000803e3d6000fd5b505050505050565b610aa8610b6a565b6001600160a01b038116610b0d5760405162461bcd60e51b815260206004820152602660248201527f4f776e61626c653a206e6577206f776e657220697320746865207a65726f206160448201526564647265737360d01b60648201526084016103b4565b61088d81610bc4565b610b1e610b6a565b600380546001600160a01b0319166001600160a01b0392909216919091179055565b610b48610b6a565b600180546001600160a01b0319166001600160a01b0392909216919091179055565b6000546001600160a01b031633146106205760405162461bcd60e51b815260206004820181905260248201527f4f776e61626c653a2063616c6c6572206973206e6f7420746865206f776e657260448201526064016103b4565b600080546001600160a01b038381166001600160a01b0319831681178455604051919092169283917f8be0079c531659141344cd1fd0a4f28419497f9722a3daafe3b4186f6b6457e09190a35050565b6001600160a01b038116811461088d57600080fd5b60008060008060808587031215610c3f57600080fd5b8435610c4a81610c14565b93506020850135610c5a81610c14565b93969395505050506040820135916060013590565b60008060408385031215610c8257600080fd5b8235610c8d81610c14565b946020939093013593505050565b600060208284031215610cad57600080fd5b8135610cb881610c14565b9392505050565b600060208284031215610cd157600080fd5b5035919050565b600060208284031215610cea57600080fd5b81358015158114610cb857600080fd5b6020808252600690820152651393c813919560d21b604082015260600190565b6020808252600890820152671393c814d413125560c21b604082015260600190565b6020808252600990820152682727902124aa2a22a760b91b604082015260600190565b600060208284031215610d7157600080fd5b5051919050565b6000816000190483118215151615610da057634e487b7160e01b600052601160045260246000fd5b500290565b604081526000835180604084015260005b81811015610dd35760208187018101516060868401015201610db6565b81811115610de5576000606083860101525b50602083019390935250601f91909101601f19160160600191905056fea26469706673582212206b9063b73c99f8f8e408dbb3cb75d47d4e1a629433615bcbb012e57e30dffafd64736f6c634300080f0033",
  "linkReferences": {},
  "deployedLinkReferences": {}
}