{
  "_format": "hh-sol-artifact-1",
  "contractName": "BiteByViper",
  "sourceName": "contracts/BiteByViper.sol",
  "abi": [
    {
      "inputs": [
        {
          "internalType": "address",
          "name": "viperAddress_",
          "type": "address"
        },
        {
          "internalType": "address",
          "name": "metadata_",
          "type": "address"
        }
      ],
      "stateMutability": "nonpayable",
      "type": "constructor"
    },
    {
      "anonymous": false,
      "inputs": [
        {
          "indexed": true,
          "internalType": "address",
          "name": "owner",
          "type": "address"
        },
        {
          "indexed": true,
          "internalType": "address",
          "name": "approved",
          "type": "address"
        },
        {
          "indexed": true,
          "internalType": "uint256",
          "name": "tokenId",
          "type": "uint256"
        }
      ],
      "name": "Approval",
      "type": "event"
    },
    {
      "anonymous": false,
      "inputs": [
        {
          "indexed": true,
          "internalType": "address",
          "name": "owner",
          "type": "address"
        },
        {
          "indexed": true,
          "internalType": "address",
          "name": "operator",
          "type": "address"
        },
        {
          "indexed": false,
          "internalType": "bool",
          "name": "approved",
          "type": "bool"
        }
      ],
      "name": "ApprovalForAll",
      "type": "event"
    },
    {
      "anonymous": false,
      "inputs": [
        {
          "indexed": true,
          "internalType": "address",
          "name": "previousOwner",
          "type": "address"
        },
        {
          "indexed": true,
          "internalType": "address",
          "name": "newOwner",
          "type": "address"
        }
      ],
      "name": "OwnershipTransferred",
      "type": "event"
    },
    {
      "anonymous": false,
      "inputs": [
        {
          "indexed": true,
          "internalType": "address",
          "name": "from",
          "type": "address"
        },
        {
          "indexed": true,
          "internalType": "address",
          "name": "to",
          "type": "address"
        },
        {
          "indexed": true,
          "internalType": "uint256",
          "name": "tokenId",
          "type": "uint256"
        }
      ],
      "name": "Transfer",
      "type": "event"
    },
    {
      "inputs": [
        {
          "internalType": "address",
          "name": "",
          "type": "address"
        },
        {
          "internalType": "uint256",
          "name": "",
          "type": "uint256"
        }
      ],
      "name": "approve",
      "outputs": [],
      "stateMutability": "pure",
      "type": "function"
    },
    {
      "inputs": [
        {
          "internalType": "address",
          "name": "owner",
          "type": "address"
        }
      ],
      "name": "balanceOf",
      "outputs": [
        {
          "internalType": "uint256",
          "name": "balance",
          "type": "uint256"
        }
      ],
      "stateMutability": "view",
      "type": "function"
    },
    {
      "inputs": [
        {
          "internalType": "uint256",
          "name": "tokenId",
          "type": "uint256"
        }
      ],
      "name": "extractAddress",
      "outputs": [
        {
          "internalType": "address",
          "name": "ownerOfToken",
          "type": "address"
        }
      ],
      "stateMutability": "pure",
      "type": "function"
    },
    {
      "inputs": [
        {
          "internalType": "uint256",
          "name": "combinedtokenId",
          "type": "uint256"
        }
      ],
      "name": "extractLength",
      "outputs": [
        {
          "internalType": "uint256",
          "name": "length",
          "type": "uint256"
        }
      ],
      "stateMutability": "pure",
      "type": "function"
    },
    {
      "inputs": [
        {
          "internalType": "uint256",
          "name": "combinedTokenId",
          "type": "uint256"
        }
      ],
      "name": "extractTokenId",
      "outputs": [
        {
          "internalType": "uint256",
          "name": "tokenId",
          "type": "uint256"
        }
      ],
      "stateMutability": "pure",
      "type": "function"
    },
    {
      "inputs": [
        {
          "internalType": "uint256",
          "name": "",
          "type": "uint256"
        }
      ],
      "name": "getApproved",
      "outputs": [
        {
          "internalType": "address",
          "name": "",
          "type": "address"
        }
      ],
      "stateMutability": "view",
      "type": "function"
    },
    {
      "inputs": [
        {
          "internalType": "address",
          "name": "from",
          "type": "address"
        },
        {
          "internalType": "uint256",
          "name": "tokenId",
          "type": "uint256"
        },
        {
          "internalType": "uint256",
          "name": "length",
          "type": "uint256"
        }
      ],
      "name": "getCombinedTokenId",
      "outputs": [
        {
          "internalType": "uint256",
          "name": "",
          "type": "uint256"
        }
      ],
      "stateMutability": "pure",
      "type": "function"
    },
    {
      "inputs": [
        {
          "internalType": "address",
          "name": "",
          "type": "address"
        },
        {
          "internalType": "address",
          "name": "",
          "type": "address"
        }
      ],
      "name": "isApprovedForAll",
      "outputs": [
        {
          "internalType": "bool",
          "name": "",
          "type": "bool"
        }
      ],
      "stateMutability": "view",
      "type": "function"
    },
    {
      "inputs": [],
      "name": "metadata",
      "outputs": [
        {
          "internalType": "address",
          "name": "",
          "type": "address"
        }
      ],
      "stateMutability": "view",
      "type": "function"
    },
    {
      "inputs": [],
      "name": "name",
      "outputs": [
        {
          "internalType": "string",
          "name": "",
          "type": "string"
        }
      ],
      "stateMutability": "pure",
      "type": "function"
    },
    {
      "inputs": [],
      "name": "owner",
      "outputs": [
        {
          "internalType": "address",
          "name": "",
          "type": "address"
        }
      ],
      "stateMutability": "view",
      "type": "function"
    },
    {
      "inputs": [
        {
          "internalType": "uint256",
          "name": "tokenId",
          "type": "uint256"
        }
      ],
      "name": "ownerOf",
      "outputs": [
        {
          "internalType": "address",
          "name": "",
          "type": "address"
        }
      ],
      "stateMutability": "view",
      "type": "function"
    },
    {
      "inputs": [
        {
          "internalType": "address",
          "name": "from",
          "type": "address"
        },
        {
          "internalType": "address",
          "name": "to",
          "type": "address"
        },
        {
          "internalType": "uint256",
          "name": "tokenId",
          "type": "uint256"
        },
        {
          "internalType": "uint256",
          "name": "length",
          "type": "uint256"
        }
      ],
      "name": "poison",
      "outputs": [],
      "stateMutability": "nonpayable",
      "type": "function"
    },
    {
      "inputs": [],
      "name": "renounceOwnership",
      "outputs": [],
      "stateMutability": "nonpayable",
      "type": "function"
    },
    {
      "inputs": [
        {
          "internalType": "address",
          "name": "",
          "type": "address"
        },
        {
          "internalType": "address",
          "name": "",
          "type": "address"
        },
        {
          "internalType": "uint256",
          "name": "",
          "type": "uint256"
        }
      ],
      "name": "safeTransferFrom",
      "outputs": [],
      "stateMutability": "pure",
      "type": "function"
    },
    {
      "inputs": [
        {
          "internalType": "address",
          "name": "",
          "type": "address"
        },
        {
          "internalType": "address",
          "name": "",
          "type": "address"
        },
        {
          "internalType": "uint256",
          "name": "",
          "type": "uint256"
        },
        {
          "internalType": "bytes",
          "name": "",
          "type": "bytes"
        }
      ],
      "name": "safeTransferFrom",
      "outputs": [],
      "stateMutability": "pure",
      "type": "function"
    },
    {
      "inputs": [
        {
          "internalType": "address",
          "name": "",
          "type": "address"
        },
        {
          "internalType": "bool",
          "name": "",
          "type": "bool"
        }
      ],
      "name": "setApprovalForAll",
      "outputs": [],
      "stateMutability": "pure",
      "type": "function"
    },
    {
      "inputs": [
        {
          "internalType": "bytes4",
          "name": "interfaceId",
          "type": "bytes4"
        }
      ],
      "name": "supportsInterface",
      "outputs": [
        {
          "internalType": "bool",
          "name": "",
          "type": "bool"
        }
      ],
      "stateMutability": "view",
      "type": "function"
    },
    {
      "inputs": [],
      "name": "symbol",
      "outputs": [
        {
          "internalType": "string",
          "name": "",
          "type": "string"
        }
      ],
      "stateMutability": "pure",
      "type": "function"
    },
    {
      "inputs": [
        {
          "internalType": "uint256",
          "name": "id",
          "type": "uint256"
        }
      ],
      "name": "tokenURI",
      "outputs": [
        {
          "internalType": "string",
          "name": "",
          "type": "string"
        }
      ],
      "stateMutability": "view",
      "type": "function"
    },
    {
      "inputs": [],
      "name": "totalSupply",
      "outputs": [
        {
          "internalType": "uint256",
          "name": "",
          "type": "uint256"
        }
      ],
      "stateMutability": "view",
      "type": "function"
    },
    {
      "inputs": [
        {
          "internalType": "address",
          "name": "",
          "type": "address"
        },
        {
          "internalType": "address",
          "name": "",
          "type": "address"
        },
        {
          "internalType": "uint256",
          "name": "",
          "type": "uint256"
        }
      ],
      "name": "transferFrom",
      "outputs": [],
      "stateMutability": "pure",
      "type": "function"
    },
    {
      "inputs": [
        {
          "internalType": "address",
          "name": "newOwner",
          "type": "address"
        }
      ],
      "name": "transferOwnership",
      "outputs": [],
      "stateMutability": "nonpayable",
      "type": "function"
    },
    {
      "inputs": [
        {
          "internalType": "address",
          "name": "metadata_",
          "type": "address"
        }
      ],
      "name": "updateMetadataAddress",
      "outputs": [],
      "stateMutability": "nonpayable",
      "type": "function"
    },
    {
      "inputs": [
        {
          "internalType": "address",
          "name": "viperAddress_",
          "type": "address"
        }
      ],
      "name": "updateViperAddress",
      "outputs": [],
      "stateMutability": "nonpayable",
      "type": "function"
    },
    {
      "inputs": [],
      "name": "viperAddress",
      "outputs": [
        {
          "internalType": "address",
          "name": "",
          "type": "address"
        }
      ],
      "stateMutability": "view",
      "type": "function"
    }
  ],
  "bytecode": "0x608060405234801561001057600080fd5b50604051610d39380380610d3983398101604081905261002f916100d5565b61003833610069565b600180546001600160a01b039384166001600160a01b03199182161790915560028054929093169116179055610108565b600080546001600160a01b038381166001600160a01b0319831681178455604051919092169283917f8be0079c531659141344cd1fd0a4f28419497f9722a3daafe3b4186f6b6457e09190a35050565b80516001600160a01b03811681146100d057600080fd5b919050565b600080604083850312156100e857600080fd5b6100f1836100b9565b91506100ff602084016100b9565b90509250929050565b610c22806101176000396000f3fe608060405234801561001057600080fd5b506004361061018e5760003560e01c80638da5cb5b116100de578063cb7e01d411610097578063ed892aae11610071578063ed892aae1461038b578063f2fde38b1461039e578063f6e0a621146103b1578063febb6eed146103c457600080fd5b8063cb7e01d414610348578063e985e9c51461035b578063ed1ea9281461037157600080fd5b80638da5cb5b146102d357806395d89b41146102e4578063a22cb46514610305578063b238f11d14610313578063b88d4fde14610327578063c87b56dd1461033557600080fd5b806323b872dd1161014b57806342842e0e1161012557806342842e0e146102565780636352211e1461028f57806370a08231146102b8578063715018a6146102cb57600080fd5b806323b872dd14610256578063392f37e9146102645780633aa492a31461027757600080fd5b806301ffc9a71461019357806306fdde03146101bb578063081812fc146101eb57806308d7444314610217578063095ea7b31461022c57806318160ddd1461023f575b600080fd5b6101a66101a1366004610839565b6103ef565b60405190151581526020015b60405180910390f35b60408051808201909152600b81526a2134ba32a13cab34b832b960a91b60208201525b6040516101b2919061089a565b6101ff6101f93660046108cd565b50600090565b6040516001600160a01b0390911681526020016101b2565b61022a610225366004610902565b610441565b005b61022a61023a366004610944565b6105c1565b61024860035481565b6040519081526020016101b2565b61022a61023a36600461096e565b6002546101ff906001600160a01b031681565b6102486102853660046108cd565b60a01c6101ff1690565b6101ff61029d3660046108cd565b6000908152600560205260409020546001600160a01b031690565b6102486102c63660046109aa565b610609565b61022a61063c565b6000546001600160a01b03166101ff565b60408051808201909152600581526421212b282960d91b60208201526101de565b61022a61023a3660046109c5565b6102486103213660046108cd565b60a91c90565b61022a61023a366004610a01565b6101de6103433660046108cd565b610650565b6001546101ff906001600160a01b031681565b6101a6610369366004610a9c565b600092915050565b6101ff61037f3660046108cd565b6001600160a01b031690565b61022a6103993660046109aa565b6106c2565b61022a6103ac3660046109aa565b6106ec565b61022a6103bf3660046109aa565b610765565b6102486103d2366004610acf565b60a981901b6001600160a01b03841660a084901b17179392505050565b60006001600160e01b031982166380ac58cd60e01b148061042057506001600160e01b03198216635b5e139f60e01b145b8061043b57506301ffc9a760e01b6001600160e01b03198316145b92915050565b6001546001600160a01b031633146104a05760405162461bcd60e51b815260206004820152601a60248201527f4f6e6c792056697065722063616e2063616c6c20706f69736f6e00000000000060448201526064015b60405180910390fd5b6001600160a01b03831660009081526004602052604090205460ff16156105095760405162461bcd60e51b815260206004820152601960248201527f416c72656164792062697474656e2062792061205669706572000000000000006044820152606401610497565b600060a083901b6001600160a01b0386161760a983901b176001600160a01b0385166000818152600460209081526040808320805460ff191660011790558483526005909152812080546001600160a01b031916909217909155600380549293509061057483610b02565b919050555080846001600160a01b0316866001600160a01b03167fddf252ad1be2c89b69c2b068fc378daa952ba7f163c4a11628f55a4df523b3ef60405160405180910390a45050505050565b60405162461bcd60e51b815260206004820152601a60248201527f56495045522042495445532043414e27542042452043555245440000000000006044820152606401610497565b6001600160a01b03811660009081526004602052604081205460ff16610630576000610633565b60015b60ff1692915050565b61064461078f565b61064e60006107e9565b565b60025460405163295d33a960e21b8152600481018390526060916001600160a01b03169063a574cea490602401600060405180830381865afa15801561069a573d6000803e3d6000fd5b505050506040513d6000823e601f3d908101601f1916820160405261043b9190810190610b3f565b6106ca61078f565b600280546001600160a01b0319166001600160a01b0392909216919091179055565b6106f461078f565b6001600160a01b0381166107595760405162461bcd60e51b815260206004820152602660248201527f4f776e61626c653a206e6577206f776e657220697320746865207a65726f206160448201526564647265737360d01b6064820152608401610497565b610762816107e9565b50565b61076d61078f565b600180546001600160a01b0319166001600160a01b0392909216919091179055565b6000546001600160a01b0316331461064e5760405162461bcd60e51b815260206004820181905260248201527f4f776e61626c653a2063616c6c6572206973206e6f7420746865206f776e65726044820152606401610497565b600080546001600160a01b038381166001600160a01b0319831681178455604051919092169283917f8be0079c531659141344cd1fd0a4f28419497f9722a3daafe3b4186f6b6457e09190a35050565b60006020828403121561084b57600080fd5b81356001600160e01b03198116811461086357600080fd5b9392505050565b60005b8381101561088557818101518382015260200161086d565b83811115610894576000848401525b50505050565b60208152600082518060208401526108b981604085016020870161086a565b601f01601f19169190910160400192915050565b6000602082840312156108df57600080fd5b5035919050565b80356001600160a01b03811681146108fd57600080fd5b919050565b6000806000806080858703121561091857600080fd5b610921856108e6565b935061092f602086016108e6565b93969395505050506040820135916060013590565b6000806040838503121561095757600080fd5b610960836108e6565b946020939093013593505050565b60008060006060848603121561098357600080fd5b61098c846108e6565b925061099a602085016108e6565b9150604084013590509250925092565b6000602082840312156109bc57600080fd5b610863826108e6565b600080604083850312156109d857600080fd5b6109e1836108e6565b9150602083013580151581146109f657600080fd5b809150509250929050565b600080600080600060808688031215610a1957600080fd5b610a22866108e6565b9450610a30602087016108e6565b935060408601359250606086013567ffffffffffffffff80821115610a5457600080fd5b818801915088601f830112610a6857600080fd5b813581811115610a7757600080fd5b896020828501011115610a8957600080fd5b9699959850939650602001949392505050565b60008060408385031215610aaf57600080fd5b610ab8836108e6565b9150610ac6602084016108e6565b90509250929050565b600080600060608486031215610ae457600080fd5b610aed846108e6565b95602085013595506040909401359392505050565b600060018201610b2257634e487b7160e01b600052601160045260246000fd5b5060010190565b634e487b7160e01b600052604160045260246000fd5b600060208284031215610b5157600080fd5b815167ffffffffffffffff80821115610b6957600080fd5b818401915084601f830112610b7d57600080fd5b815181811115610b8f57610b8f610b29565b604051601f8201601f19908116603f01168101908382118183101715610bb757610bb7610b29565b81604052828152876020848701011115610bd057600080fd5b610be183602083016020880161086a565b97965050505050505056fea2646970667358221220582beb28156226fabe4017b2935624a9d292354f3ba9801b3855922b602d8ef764736f6c634300080f0033",
  "linkReferences": {},
  "deployedLinkReferences": {}
}