{
  "_format": "hh-sol-artifact-1",
  "contractName": "Viper",
  "sourceName": "contracts/Viper.sol",
  "abi": [
    {
      "inputs": [
        {
          "internalType": "address",
          "name": "metadata_",
          "type": "address"
        },
        {
          "internalType": "address",
          "name": "splitter_",
          "type": "address"
        }
      ],
      "stateMutability": "nonpayable",
      "type": "constructor"
    },
    {
      "inputs": [],
      "name": "ApprovalCallerNotOwnerNorApproved",
      "type": "error"
    },
    {
      "inputs": [],
      "name": "ApprovalQueryForNonexistentToken",
      "type": "error"
    },
    {
      "inputs": [],
      "name": "BalanceQueryForZeroAddress",
      "type": "error"
    },
    {
      "inputs": [],
      "name": "InvalidQueryRange",
      "type": "error"
    },
    {
      "inputs": [],
      "name": "MintERC2309QuantityExceedsLimit",
      "type": "error"
    },
    {
      "inputs": [],
      "name": "MintToZeroAddress",
      "type": "error"
    },
    {
      "inputs": [],
      "name": "MintZeroQuantity",
      "type": "error"
    },
    {
      "inputs": [],
      "name": "OwnerQueryForNonexistentToken",
      "type": "error"
    },
    {
      "inputs": [],
      "name": "OwnershipNotInitializedForExtraData",
      "type": "error"
    },
    {
      "inputs": [],
      "name": "TransferCallerNotOwnerNorApproved",
      "type": "error"
    },
    {
      "inputs": [],
      "name": "TransferFromIncorrectOwner",
      "type": "error"
    },
    {
      "inputs": [],
      "name": "TransferToNonERC721ReceiverImplementer",
      "type": "error"
    },
    {
      "inputs": [],
      "name": "TransferToZeroAddress",
      "type": "error"
    },
    {
      "inputs": [],
      "name": "URIQueryForNonexistentToken",
      "type": "error"
    },
    {
      "anonymous": false,
      "inputs": [
        {
          "indexed": true,
          "internalType": "address",
          "name": "owner",
          "type": "address"
        },
        {
          "indexed": true,
          "internalType": "address",
          "name": "approved",
          "type": "address"
        },
        {
          "indexed": true,
          "internalType": "uint256",
          "name": "tokenId",
          "type": "uint256"
        }
      ],
      "name": "Approval",
      "type": "event"
    },
    {
      "anonymous": false,
      "inputs": [
        {
          "indexed": true,
          "internalType": "address",
          "name": "owner",
          "type": "address"
        },
        {
          "indexed": true,
          "internalType": "address",
          "name": "operator",
          "type": "address"
        },
        {
          "indexed": false,
          "internalType": "bool",
          "name": "approved",
          "type": "bool"
        }
      ],
      "name": "ApprovalForAll",
      "type": "event"
    },
    {
      "anonymous": false,
      "inputs": [
        {
          "indexed": false,
          "internalType": "uint256",
          "name": "_fromTokenId",
          "type": "uint256"
        },
        {
          "indexed": false,
          "internalType": "uint256",
          "name": "_toTokenId",
          "type": "uint256"
        }
      ],
      "name": "BatchMetadataUpdate",
      "type": "event"
    },
    {
      "anonymous": false,
      "inputs": [
        {
          "indexed": true,
          "internalType": "uint256",
          "name": "fromTokenId",
          "type": "uint256"
        },
        {
          "indexed": false,
          "internalType": "uint256",
          "name": "toTokenId",
          "type": "uint256"
        },
        {
          "indexed": true,
          "internalType": "address",
          "name": "from",
          "type": "address"
        },
        {
          "indexed": true,
          "internalType": "address",
          "name": "to",
          "type": "address"
        }
      ],
      "name": "ConsecutiveTransfer",
      "type": "event"
    },
    {
      "anonymous": false,
      "inputs": [
        {
          "indexed": true,
          "internalType": "address",
          "name": "to",
          "type": "address"
        },
        {
          "indexed": true,
          "internalType": "bool",
          "name": "success",
          "type": "bool"
        },
        {
          "indexed": false,
          "internalType": "bytes",
          "name": "returnData",
          "type": "bytes"
        },
        {
          "indexed": false,
          "internalType": "uint256",
          "name": "amount",
          "type": "uint256"
        }
      ],
      "name": "EthMoved",
      "type": "event"
    },
    {
      "anonymous": false,
      "inputs": [
        {
          "indexed": false,
          "internalType": "uint256",
          "name": "_tokenId",
          "type": "uint256"
        }
      ],
      "name": "MetadataUpdate",
      "type": "event"
    },
    {
      "anonymous": false,
      "inputs": [
        {
          "indexed": true,
          "internalType": "address",
          "name": "previousOwner",
          "type": "address"
        },
        {
          "indexed": true,
          "internalType": "address",
          "name": "newOwner",
          "type": "address"
        }
      ],
      "name": "OwnershipTransferred",
      "type": "event"
    },
    {
      "anonymous": false,
      "inputs": [
        {
          "indexed": true,
          "internalType": "address",
          "name": "from",
          "type": "address"
        },
        {
          "indexed": true,
          "internalType": "address",
          "name": "to",
          "type": "address"
        },
        {
          "indexed": true,
          "internalType": "uint256",
          "name": "tokenId",
          "type": "uint256"
        }
      ],
      "name": "Transfer",
      "type": "event"
    },
    {
      "stateMutability": "payable",
      "type": "fallback"
    },
    {
      "inputs": [],
      "name": "MAX_SUPPLY",
      "outputs": [
        {
          "internalType": "uint256",
          "name": "",
          "type": "uint256"
        }
      ],
      "stateMutability": "view",
      "type": "function"
    },
    {
      "inputs": [
        {
          "internalType": "address",
          "name": "recipient",
          "type": "address"
        },
        {
          "internalType": "uint256",
          "name": "quantity",
          "type": "uint256"
        }
      ],
      "name": "adminMint",
      "outputs": [],
      "stateMutability": "payable",
      "type": "function"
    },
    {
      "inputs": [
        {
          "internalType": "address",
          "name": "_wallet",
          "type": "address"
        },
        {
          "internalType": "bytes32[]",
          "name": "_proof",
          "type": "bytes32[]"
        }
      ],
      "name": "allowListed",
      "outputs": [
        {
          "internalType": "bool",
          "name": "",
          "type": "bool"
        }
      ],
      "stateMutability": "view",
      "type": "function"
    },
    {
      "inputs": [
        {
          "internalType": "address",
          "name": "to",
          "type": "address"
        },
        {
          "internalType": "uint256",
          "name": "tokenId",
          "type": "uint256"
        }
      ],
      "name": "approve",
      "outputs": [],
      "stateMutability": "payable",
      "type": "function"
    },
    {
      "inputs": [
        {
          "internalType": "address",
          "name": "owner",
          "type": "address"
        }
      ],
      "name": "balanceOf",
      "outputs": [
        {
          "internalType": "uint256",
          "name": "",
          "type": "uint256"
        }
      ],
      "stateMutability": "view",
      "type": "function"
    },
    {
      "inputs": [],
      "name": "biteByViper",
      "outputs": [
        {
          "internalType": "address",
          "name": "",
          "type": "address"
        }
      ],
      "stateMutability": "view",
      "type": "function"
    },
    {
      "inputs": [
        {
          "internalType": "uint256",
          "name": "tokenId",
          "type": "uint256"
        }
      ],
      "name": "explicitOwnershipOf",
      "outputs": [
        {
          "components": [
            {
              "internalType": "address",
              "name": "addr",
              "type": "address"
            },
            {
              "internalType": "uint64",
              "name": "startTimestamp",
              "type": "uint64"
            },
            {
              "internalType": "bool",
              "name": "burned",
              "type": "bool"
            },
            {
              "internalType": "uint24",
              "name": "extraData",
              "type": "uint24"
            }
          ],
          "internalType": "struct IERC721A.TokenOwnership",
          "name": "",
          "type": "tuple"
        }
      ],
      "stateMutability": "view",
      "type": "function"
    },
    {
      "inputs": [
        {
          "internalType": "uint256[]",
          "name": "tokenIds",
          "type": "uint256[]"
        }
      ],
      "name": "explicitOwnershipsOf",
      "outputs": [
        {
          "components": [
            {
              "internalType": "address",
              "name": "addr",
              "type": "address"
            },
            {
              "internalType": "uint64",
              "name": "startTimestamp",
              "type": "uint64"
            },
            {
              "internalType": "bool",
              "name": "burned",
              "type": "bool"
            },
            {
              "internalType": "uint24",
              "name": "extraData",
              "type": "uint24"
            }
          ],
          "internalType": "struct IERC721A.TokenOwnership[]",
          "name": "",
          "type": "tuple[]"
        }
      ],
      "stateMutability": "view",
      "type": "function"
    },
    {
      "inputs": [
        {
          "internalType": "uint256",
          "name": "tokenId",
          "type": "uint256"
        }
      ],
      "name": "getApproved",
      "outputs": [
        {
          "internalType": "address",
          "name": "",
          "type": "address"
        }
      ],
      "stateMutability": "view",
      "type": "function"
    },
    {
      "inputs": [
        {
          "internalType": "address",
          "name": "owner",
          "type": "address"
        },
        {
          "internalType": "address",
          "name": "operator",
          "type": "address"
        }
      ],
      "name": "isApprovedForAll",
      "outputs": [
        {
          "internalType": "bool",
          "name": "",
          "type": "bool"
        }
      ],
      "stateMutability": "view",
      "type": "function"
    },
    {
      "inputs": [
        {
          "internalType": "uint256",
          "name": "",
          "type": "uint256"
        }
      ],
      "name": "lengths",
      "outputs": [
        {
          "internalType": "uint256",
          "name": "",
          "type": "uint256"
        }
      ],
      "stateMutability": "view",
      "type": "function"
    },
    {
      "inputs": [],
      "name": "merkleRoot",
      "outputs": [
        {
          "internalType": "bytes32",
          "name": "",
          "type": "bytes32"
        }
      ],
      "stateMutability": "view",
      "type": "function"
    },
    {
      "inputs": [],
      "name": "metadata",
      "outputs": [
        {
          "internalType": "address",
          "name": "",
          "type": "address"
        }
      ],
      "stateMutability": "view",
      "type": "function"
    },
    {
      "inputs": [],
      "name": "mint",
      "outputs": [],
      "stateMutability": "payable",
      "type": "function"
    },
    {
      "inputs": [
        {
          "internalType": "address",
          "name": "recipient",
          "type": "address"
        },
        {
          "internalType": "uint256",
          "name": "quantity",
          "type": "uint256"
        }
      ],
      "name": "mint",
      "outputs": [],
      "stateMutability": "payable",
      "type": "function"
    },
    {
      "inputs": [
        {
          "internalType": "address",
          "name": "recipient",
          "type": "address"
        }
      ],
      "name": "mint",
      "outputs": [],
      "stateMutability": "payable",
      "type": "function"
    },
    {
      "inputs": [
        {
          "internalType": "uint256",
          "name": "quantity",
          "type": "uint256"
        }
      ],
      "name": "mint",
      "outputs": [],
      "stateMutability": "payable",
      "type": "function"
    },
    {
      "inputs": [
        {
          "internalType": "uint256",
          "name": "quantity",
          "type": "uint256"
        },
        {
          "internalType": "bytes32[]",
          "name": "_proof",
          "type": "bytes32[]"
        }
      ],
      "name": "mintAllowList",
      "outputs": [],
      "stateMutability": "payable",
      "type": "function"
    },
    {
      "inputs": [],
      "name": "name",
      "outputs": [
        {
          "internalType": "string",
          "name": "",
          "type": "string"
        }
      ],
      "stateMutability": "view",
      "type": "function"
    },
    {
      "inputs": [],
      "name": "owner",
      "outputs": [
        {
          "internalType": "address",
          "name": "",
          "type": "address"
        }
      ],
      "stateMutability": "view",
      "type": "function"
    },
    {
      "inputs": [
        {
          "internalType": "uint256",
          "name": "tokenId",
          "type": "uint256"
        }
      ],
      "name": "ownerOf",
      "outputs": [
        {
          "internalType": "address",
          "name": "",
          "type": "address"
        }
      ],
      "stateMutability": "view",
      "type": "function"
    },
    {
      "inputs": [],
      "name": "paused",
      "outputs": [
        {
          "internalType": "bool",
          "name": "",
          "type": "bool"
        }
      ],
      "stateMutability": "view",
      "type": "function"
    },
    {
      "inputs": [],
      "name": "premint",
      "outputs": [
        {
          "internalType": "uint256",
          "name": "",
          "type": "uint256"
        }
      ],
      "stateMutability": "view",
      "type": "function"
    },
    {
      "inputs": [],
      "name": "price",
      "outputs": [
        {
          "internalType": "uint256",
          "name": "",
          "type": "uint256"
        }
      ],
      "stateMutability": "view",
      "type": "function"
    },
    {
      "inputs": [
        {
          "internalType": "address payable",
          "name": "_to",
          "type": "address"
        }
      ],
      "name": "recoverUnsuccessfulMintPayment",
      "outputs": [],
      "stateMutability": "nonpayable",
      "type": "function"
    },
    {
      "inputs": [],
      "name": "renounceOwnership",
      "outputs": [],
      "stateMutability": "nonpayable",
      "type": "function"
    },
    {
      "inputs": [
        {
          "internalType": "uint256",
          "name": "_tokenId",
          "type": "uint256"
        },
        {
          "internalType": "uint256",
          "name": "_salePrice",
          "type": "uint256"
        }
      ],
      "name": "royaltyInfo",
      "outputs": [
        {
          "internalType": "address",
          "name": "",
          "type": "address"
        },
        {
          "internalType": "uint256",
          "name": "",
          "type": "uint256"
        }
      ],
      "stateMutability": "view",
      "type": "function"
    },
    {
      "inputs": [
        {
          "internalType": "address",
          "name": "from",
          "type": "address"
        },
        {
          "internalType": "address",
          "name": "to",
          "type": "address"
        },
        {
          "internalType": "uint256",
          "name": "tokenId",
          "type": "uint256"
        }
      ],
      "name": "safeTransferFrom",
      "outputs": [],
      "stateMutability": "payable",
      "type": "function"
    },
    {
      "inputs": [
        {
          "internalType": "address",
          "name": "from",
          "type": "address"
        },
        {
          "internalType": "address",
          "name": "to",
          "type": "address"
        },
        {
          "internalType": "uint256",
          "name": "tokenId",
          "type": "uint256"
        },
        {
          "internalType": "bytes",
          "name": "_data",
          "type": "bytes"
        }
      ],
      "name": "safeTransferFrom",
      "outputs": [],
      "stateMutability": "payable",
      "type": "function"
    },
    {
      "inputs": [
        {
          "internalType": "address",
          "name": "operator",
          "type": "address"
        },
        {
          "internalType": "bool",
          "name": "approved",
          "type": "bool"
        }
      ],
      "name": "setApprovalForAll",
      "outputs": [],
      "stateMutability": "nonpayable",
      "type": "function"
    },
    {
      "inputs": [
        {
          "internalType": "address",
          "name": "biteByViper_",
          "type": "address"
        }
      ],
      "name": "setBiteByViper",
      "outputs": [],
      "stateMutability": "nonpayable",
      "type": "function"
    },
    {
      "inputs": [
        {
          "internalType": "bytes32",
          "name": "merkleRoot_",
          "type": "bytes32"
        }
      ],
      "name": "setMerkleRoot",
      "outputs": [],
      "stateMutability": "nonpayable",
      "type": "function"
    },
    {
      "inputs": [
        {
          "internalType": "address",
          "name": "metadata_",
          "type": "address"
        }
      ],
      "name": "setMetadata",
      "outputs": [],
      "stateMutability": "nonpayable",
      "type": "function"
    },
    {
      "inputs": [
        {
          "internalType": "bool",
          "name": "paused_",
          "type": "bool"
        }
      ],
      "name": "setPause",
      "outputs": [],
      "stateMutability": "nonpayable",
      "type": "function"
    },
    {
      "inputs": [
        {
          "internalType": "uint256",
          "name": "premint_",
          "type": "uint256"
        }
      ],
      "name": "setPremint",
      "outputs": [],
      "stateMutability": "nonpayable",
      "type": "function"
    },
    {
      "inputs": [
        {
          "internalType": "uint256",
          "name": "price_",
          "type": "uint256"
        }
      ],
      "name": "setPrice",
      "outputs": [],
      "stateMutability": "nonpayable",
      "type": "function"
    },
    {
      "inputs": [
        {
          "internalType": "address",
          "name": "royaltyReceiver",
          "type": "address"
        },
        {
          "internalType": "uint96",
          "name": "royaltyPercentage",
          "type": "uint96"
        }
      ],
      "name": "setRoyaltyPercentage",
      "outputs": [],
      "stateMutability": "nonpayable",
      "type": "function"
    },
    {
      "inputs": [
        {
          "internalType": "address",
          "name": "splitter_",
          "type": "address"
        }
      ],
      "name": "setSplitter",
      "outputs": [],
      "stateMutability": "nonpayable",
      "type": "function"
    },
    {
      "inputs": [
        {
          "internalType": "uint256",
          "name": "startdate_",
          "type": "uint256"
        }
      ],
      "name": "setStartdate",
      "outputs": [],
      "stateMutability": "nonpayable",
      "type": "function"
    },
    {
      "inputs": [],
      "name": "splitter",
      "outputs": [
        {
          "internalType": "address",
          "name": "",
          "type": "address"
        }
      ],
      "stateMutability": "view",
      "type": "function"
    },
    {
      "inputs": [],
      "name": "startdate",
      "outputs": [
        {
          "internalType": "uint256",
          "name": "",
          "type": "uint256"
        }
      ],
      "stateMutability": "view",
      "type": "function"
    },
    {
      "inputs": [
        {
          "internalType": "bytes4",
          "name": "interfaceId",
          "type": "bytes4"
        }
      ],
      "name": "supportsInterface",
      "outputs": [
        {
          "internalType": "bool",
          "name": "",
          "type": "bool"
        }
      ],
      "stateMutability": "view",
      "type": "function"
    },
    {
      "inputs": [],
      "name": "symbol",
      "outputs": [
        {
          "internalType": "string",
          "name": "",
          "type": "string"
        }
      ],
      "stateMutability": "view",
      "type": "function"
    },
    {
      "inputs": [
        {
          "internalType": "uint256",
          "name": "id",
          "type": "uint256"
        }
      ],
      "name": "tokenURI",
      "outputs": [
        {
          "internalType": "string",
          "name": "",
          "type": "string"
        }
      ],
      "stateMutability": "view",
      "type": "function"
    },
    {
      "inputs": [
        {
          "internalType": "address",
          "name": "owner",
          "type": "address"
        }
      ],
      "name": "tokensOfOwner",
      "outputs": [
        {
          "internalType": "uint256[]",
          "name": "",
          "type": "uint256[]"
        }
      ],
      "stateMutability": "view",
      "type": "function"
    },
    {
      "inputs": [
        {
          "internalType": "address",
          "name": "owner",
          "type": "address"
        },
        {
          "internalType": "uint256",
          "name": "start",
          "type": "uint256"
        },
        {
          "internalType": "uint256",
          "name": "stop",
          "type": "uint256"
        }
      ],
      "name": "tokensOfOwnerIn",
      "outputs": [
        {
          "internalType": "uint256[]",
          "name": "",
          "type": "uint256[]"
        }
      ],
      "stateMutability": "view",
      "type": "function"
    },
    {
      "inputs": [],
      "name": "totalSupply",
      "outputs": [
        {
          "internalType": "uint256",
          "name": "",
          "type": "uint256"
        }
      ],
      "stateMutability": "view",
      "type": "function"
    },
    {
      "inputs": [
        {
          "internalType": "address",
          "name": "from",
          "type": "address"
        },
        {
          "internalType": "address",
          "name": "to",
          "type": "address"
        },
        {
          "internalType": "uint256",
          "name": "tokenId",
          "type": "uint256"
        }
      ],
      "name": "transferFrom",
      "outputs": [],
      "stateMutability": "payable",
      "type": "function"
    },
    {
      "inputs": [
        {
          "internalType": "address",
          "name": "newOwner",
          "type": "address"
        }
      ],
      "name": "transferOwnership",
      "outputs": [],
      "stateMutability": "nonpayable",
      "type": "function"
    },
    {
      "stateMutability": "payable",
      "type": "receive"
    }
  ],
  "bytecode": "0x6080604052600c805460ff1916905566c55f7bc23038e3600d556364ad98a06101f7556364ad6e706101f8557ff78f6412ef155d654600b79b83071b194c4c94f1212bb3feea35d4a290c3d0c96101f9553480156200005d57600080fd5b5060405162002f9a38038062002f9a8339810160408190526200008091620002aa565b604051806040016040528060058152602001642b24a822a960d91b815250604051806040016040528060038152602001622b282960e91b8152508160029081620000cb919062000387565b506003620000da828262000387565b5050600160005550620000ed3362000136565b6001600b55600f80546001600160a01b038085166001600160a01b0319928316179092556010805492841692909116821790556200012e906103e862000188565b505062000453565b600880546001600160a01b038381166001600160a01b0319831681179093556040519116919082907f8be0079c531659141344cd1fd0a4f28419497f9722a3daafe3b4186f6b6457e090600090a35050565b6127106001600160601b0382161115620001fc5760405162461bcd60e51b815260206004820152602a60248201527f455243323938313a20726f79616c7479206665652077696c6c206578636565646044820152692073616c65507269636560b01b60648201526084015b60405180910390fd5b6001600160a01b038216620002545760405162461bcd60e51b815260206004820152601960248201527f455243323938313a20696e76616c6964207265636569766572000000000000006044820152606401620001f3565b604080518082019091526001600160a01b039092168083526001600160601b039091166020909201829052600160a01b90910217600955565b80516001600160a01b0381168114620002a557600080fd5b919050565b60008060408385031215620002be57600080fd5b620002c9836200028d565b9150620002d9602084016200028d565b90509250929050565b634e487b7160e01b600052604160045260246000fd5b600181811c908216806200030d57607f821691505b6020821081036200032e57634e487b7160e01b600052602260045260246000fd5b50919050565b601f8211156200038257600081815260208120601f850160051c810160208610156200035d5750805b601f850160051c820191505b818110156200037e5782815560010162000369565b5050505b505050565b81516001600160401b03811115620003a357620003a3620002e2565b620003bb81620003b48454620002f8565b8462000334565b602080601f831160018114620003f35760008415620003da5750858301515b600019600386901b1c1916600185901b1785556200037e565b600085815260208120601f198616915b82811015620004245788860151825594840194600190910190840162000403565b5085821015620004435787850151600019600388901b60f8161c191681555b5050505050600190811b01905550565b612b3780620004636000396000f3fe6080604052600436106102b25760003560e01c80637cb6475911610175578063bedb86fb116100dc578063d410f56911610095578063f2fde38b1161006f578063f2fde38b14610839578063f363c9ce14610859578063f3cb838514610879578063fa05a65714610899576102c1565b8063d410f569146107bd578063e58306f9146107dd578063e985e9c5146107f0576102c1565b8063bedb86fb146106f9578063c09fd8ef14610719578063c23dc68f14610739578063c87b56dd14610766578063c93fc83d14610786578063cde9f2ea146107a6576102c1565b806395d89b411161012e57806395d89b411461066857806399a2557a1461067d578063a035b1fe1461069d578063a0712d68146106b3578063a22cb465146106c6578063b88d4fde146106e6576102c1565b80637cb647591461059d578063818779ef146105bd5780638462151c146105dd5780638da5cb5b1461060a57806391b7f5ed1461062857806392d1109214610648576102c1565b8063392f37e9116102195780635c975abb116101d25780635c975abb146104fb5780636352211e146105155780636a6278421461053557806370a0823114610548578063715018a61461056857806375fb32251461057d576102c1565b8063392f37e9146104515780633cd8045e1461047157806340c10f191461049157806342842e0e146104a457806348a1e66b146104b75780635bbb2177146104ce576102c1565b806323b872dd1161026b57806323b872dd14610392578063247155ff146103a557806325e3d69f146103c55780632a55205a146103e55780632eb4a7ab1461042457806332cb6b0c1461043b576102c1565b806301ffc9a7146102c957806306fdde03146102fe578063081812fc14610320578063095ea7b3146103585780631249c58b146102c157806318160ddd1461036b576102c1565b366102c1576102bf6108ac565b005b6102bf6108ac565b3480156102d557600080fd5b506102e96102e436600461237e565b6108b9565b60405190151581526020015b60405180910390f35b34801561030a57600080fd5b50610313610935565b6040516102f591906123f3565b34801561032c57600080fd5b5061034061033b366004612406565b6109c7565b6040516001600160a01b0390911681526020016102f5565b6102bf610366366004612434565b610a0b565b34801561037757600080fd5b5060015460005403600019015b6040519081526020016102f5565b6102bf6103a0366004612460565b610aab565b3480156103b157600080fd5b506102e96103c03660046124e5565b610b68565b3480156103d157600080fd5b506103846103e0366004612406565b610beb565b3480156103f157600080fd5b50610405610400366004612539565b610c03565b604080516001600160a01b0390931683526020830191909152016102f5565b34801561043057600080fd5b506103846101f95481565b34801561044757600080fd5b506103846101e681565b34801561045d57600080fd5b50600f54610340906001600160a01b031681565b34801561047d57600080fd5b50601054610340906001600160a01b031681565b6102bf61049f366004612434565b610cb1565b6102bf6104b2366004612460565b610d0a565b3480156104c357600080fd5b506103846101f85481565b3480156104da57600080fd5b506104ee6104e936600461255b565b610d25565b6040516102f591906125d8565b34801561050757600080fd5b50600c546102e99060ff1681565b34801561052157600080fd5b50610340610530366004612406565b610df0565b6102bf61054336600461261a565b610dfb565b34801561055457600080fd5b5061038461056336600461261a565b610e09565b34801561057457600080fd5b506102bf610e57565b34801561058957600080fd5b506102bf610598366004612406565b610e69565b3480156105a957600080fd5b506102bf6105b8366004612406565b610e77565b3480156105c957600080fd5b506102bf6105d8366004612637565b610e85565b3480156105e957600080fd5b506105fd6105f836600461261a565b610e97565b6040516102f5919061267c565b34801561061657600080fd5b506008546001600160a01b0316610340565b34801561063457600080fd5b506102bf610643366004612406565b610f9f565b34801561065457600080fd5b50600e54610340906001600160a01b031681565b34801561067457600080fd5b50610313610fac565b34801561068957600080fd5b506105fd6106983660046126b4565b610fbb565b3480156106a957600080fd5b50610384600d5481565b6102bf6106c1366004612406565b611140565b3480156106d257600080fd5b506102bf6106e13660046126fe565b61114a565b6102bf6106f43660046127a0565b6111b6565b34801561070557600080fd5b506102bf61071436600461284e565b611200565b34801561072557600080fd5b506102bf61073436600461261a565b61121b565b34801561074557600080fd5b50610759610754366004612406565b6112b6565b6040516102f59190612869565b34801561077257600080fd5b50610313610781366004612406565b61133e565b34801561079257600080fd5b506102bf6107a136600461261a565b6113b0565b3480156107b257600080fd5b506103846101f75481565b3480156107c957600080fd5b506102bf6107d8366004612406565b611400565b6102bf6107eb366004612434565b61140e565b3480156107fc57600080fd5b506102e961080b366004612877565b6001600160a01b03918216600090815260076020908152604080832093909416825291909152205460ff1690565b34801561084557600080fd5b506102bf61085436600461261a565b61150b565b34801561086557600080fd5b506102bf61087436600461261a565b611581565b34801561088557600080fd5b506102bf61089436600461261a565b6115d1565b6102bf6108a73660046128a5565b611621565b6108b7336001610cb1565b565b60006001600160e01b031982166380ac58cd60e01b14806108ea57506001600160e01b03198216635b5e139f60e01b145b8061090557506001600160e01b0319821663152a902d60e11b145b8061092057506001600160e01b03198216632483248360e11b145b8061092f575061092f826116da565b92915050565b606060028054610944906128d7565b80601f0160208091040260200160405190810160405280929190818152602001828054610970906128d7565b80156109bd5780601f10610992576101008083540402835291602001916109bd565b820191906000526020600020905b8154815290600101906020018083116109a057829003601f168201915b5050505050905090565b60006109d28261170f565b6109ef576040516333d1c03960e21b815260040160405180910390fd5b506000908152600660205260409020546001600160a01b031690565b6000610a1682610df0565b9050336001600160a01b03821614610a4f57610a32813361080b565b610a4f576040516367d9dca160e11b815260040160405180910390fd5b60008281526006602052604080822080546001600160a01b0319166001600160a01b0387811691821790925591518593918516917f8c5be1e5ebec7d5bd14f71427d1e84f3dd0314c0f7b2291e5b200ac8c7c3b92591a4505050565b610ab481610df0565b6001600160a01b0316836001600160a01b031614610b055760405162461bcd60e51b81526020600482015260096024820152682727aa1027aba722a960b91b60448201526064015b60405180910390fd5b6001600160a01b0383163303610b5857610b20838383611744565b6040518181527ff8e1a15aba9398e019f0b49df1a4fde98ee17ae345cb5f6b5e2c27f5033e8ce79060200160405180910390a1505050565b610b638383836118bd565b505050565b6000610be1838380806020026020016040519081016040528093929190818152602001838360200280828437600092019190915250506101f9546040516bffffffffffffffffffffffff1960608b901b166020820152909250603401905060405160208183030381529060405280519060200120611a55565b90505b9392505050565b6011816101e68110610bfc57600080fd5b0154905081565b6000828152600a602090815260408083208151808301909252546001600160a01b038116808352600160a01b9091046001600160601b0316928201929092528291610c785750604080518082019091526009546001600160a01b0381168252600160a01b90046001600160601b031660208201525b602081015160009061271090610c97906001600160601b031687612927565b610ca19190612946565b91519350909150505b9250929050565b600c5460ff16158015610cc757506101f7544210155b610cfc5760405162461bcd60e51b815260206004820152600660248201526514105554d15160d21b6044820152606401610afc565b610d068282611a6b565b5050565b610b63838383604051806020016040528060008152506111b6565b6060816000816001600160401b03811115610d4257610d42612733565b604051908082528060200260200182016040528015610d9457816020015b604080516080810182526000808252602080830182905292820181905260608201528252600019909201910181610d605790505b50905060005b828114610de757610dc2868683818110610db657610db6612968565b905060200201356112b6565b828281518110610dd457610dd4612968565b6020908102919091010152600101610d9a565b50949350505050565b600061092f82611d56565b610e06816001610cb1565b50565b60006001600160a01b038216610e32576040516323d3ad8160e21b815260040160405180910390fd5b506001600160a01b03166000908152600560205260409020546001600160401b031690565b610e5f611dc5565b6108b76000611e1f565b610e71611dc5565b6101f855565b610e7f611dc5565b6101f955565b610e8d611dc5565b610d068282611e71565b60606000806000610ea785610e09565b90506000816001600160401b03811115610ec357610ec3612733565b604051908082528060200260200182016040528015610eec578160200160208202803683370190505b509050610f1960408051608081018252600080825260208201819052918101829052606081019190915290565b60015b838614610f9357610f2c81611f6e565b91508160400151610f8b5781516001600160a01b031615610f4c57815194505b876001600160a01b0316856001600160a01b031603610f8b5780838780600101985081518110610f7e57610f7e612968565b6020026020010181815250505b600101610f1c565b50909695505050505050565b610fa7611dc5565b600d55565b606060038054610944906128d7565b6060818310610fdd57604051631960ccad60e11b815260040160405180910390fd5b600080610fe960005490565b90506001851015610ff957600194505b80841115611005578093505b600061101087610e09565b90508486101561102f5785850381811015611029578091505b50611033565b5060005b6000816001600160401b0381111561104d5761104d612733565b604051908082528060200260200182016040528015611076578160200160208202803683370190505b5090508160000361108c579350610be492505050565b6000611097886112b6565b9050600081604001516110a8575080515b885b8881141580156110ba5750848714155b1561112f576110c881611f6e565b925082604001516111275782516001600160a01b0316156110e857825191505b8a6001600160a01b0316826001600160a01b031603611127578084888060010199508151811061111a5761111a612968565b6020026020010181815250505b6001016110aa565b505050928352509095945050505050565b610e063382610cb1565b3360008181526007602090815260408083206001600160a01b03871680855290835292819020805460ff191686151590811790915590519081529192917f17307eab39ab6107e8899845ad3d59bd9653f200f220920489ca2b5937696c31910160405180910390a35050565b6111c1848484610aab565b6001600160a01b0383163b156111fa576111dd84848484611faa565b6111fa576040516368d2bf6b60e11b815260040160405180910390fd5b50505050565b611208611dc5565b600c805460ff1916911515919091179055565b611223611dc5565b604051479060009081906001600160a01b0385169084908381818185875af1925050503d8060008114611272576040519150601f19603f3d011682016040523d82523d6000602084013e611277565b606091505b5091509150811515846001600160a01b0316600080516020612ae283398151915283866040516112a892919061297e565b60405180910390a350505050565b604080516080810182526000808252602082018190529181018290526060810191909152604080516080810182526000808252602082018190529181018290526060810191909152600183108061130f57506000548310155b1561131a5792915050565b61132383611f6e565b90508060400151156113355792915050565b610be483612095565b600f5460405163295d33a960e21b8152600481018390526060916001600160a01b03169063a574cea490602401600060405180830381865afa158015611388573d6000803e3d6000fd5b505050506040513d6000823e601f3d908101601f1916820160405261092f91908101906129a0565b6113b8611dc5565b6001600160a01b0381166113de5760405162461bcd60e51b8152600401610afc90612a16565b601080546001600160a01b0319166001600160a01b0392909216919091179055565b611408611dc5565b6101f755565b600e546001600160a01b03166114615760405162461bcd60e51b81526020600482015260186024820152774e4f2042495445204259205649504552204144445245535360401b6044820152606401610afc565b611469611dc5565b60105460405160009182916001600160a01b039091169034908381818185875af1925050503d80600081146114ba576040519150601f19603f3d011682016040523d82523d6000602084013e6114bf565b606091505b50601054604051929450909250831515916001600160a01b0390911690600080516020612ae2833981519152906114f9908590349061297e565b60405180910390a36111fa84846120ca565b611513611dc5565b6001600160a01b0381166115785760405162461bcd60e51b815260206004820152602660248201527f4f776e61626c653a206e6577206f776e657220697320746865207a65726f206160448201526564647265737360d01b6064820152608401610afc565b610e0681611e1f565b611589611dc5565b6001600160a01b0381166115af5760405162461bcd60e51b8152600401610afc90612a16565b600e80546001600160a01b0319166001600160a01b0392909216919091179055565b6115d9611dc5565b6001600160a01b0381166115ff5760405162461bcd60e51b8152600401610afc90612a16565b600f80546001600160a01b0319166001600160a01b0392909216919091179055565b61162c338383610b68565b6116785760405162461bcd60e51b815260206004820152601c60248201527f596f7520617265206e6f74206f6e2074686520616c6c6f776c697374000000006044820152606401610afc565b600c5460ff1615801561168e57506101f8544210155b6116d05760405162461bcd60e51b8152602060048201526013602482015272141c995b5a5b9d081b9bdd081cdd185c9d1959606a1b6044820152606401610afc565b610b633384611a6b565b60006001600160e01b0319821663152a902d60e11b148061092f57506301ffc9a760e01b6001600160e01b031983161461092f565b600081600111158015611723575060005482105b801561092f575050600090815260046020526040902054600160e01b161590565b816001600160a01b0316836001600160a01b03160361179b5760405162461bcd60e51b815260206004820152601360248201527221b0b713ba103134ba32903cb7bab939b2b63360691b6044820152606401610afc565b816001600160a01b0316316000036118015760405162461bcd60e51b8152602060048201526024808201527f43616e2774206269746520616e2061646472657373207769746820302062616c604482015263616e636560e01b6064820152608401610afc565b60006011826101e6811061181757611817612968565b015490506000611828826001612a3f565b600e5460405163ecc15d4360e01b81526001600160a01b0388811660048301528781166024830152604482018790526064820184905292935091169063ecc15d4390608401600060405180830381600087803b15801561188757600080fd5b505af115801561189b573d6000803e3d6000fd5b50505050806011846101e681106118b4576118b4612968565b01555050505050565b60006118c882611d56565b9050836001600160a01b0316816001600160a01b0316146118fb5760405162a1148160e81b815260040160405180910390fd5b60008281526006602052604090208054338082146001600160a01b038816909114176119485761192b863361080b565b61194857604051632ce44b5f60e11b815260040160405180910390fd5b6001600160a01b03851661196f57604051633a954ecd60e21b815260040160405180910390fd5b801561197a57600082555b6001600160a01b038681166000908152600560205260408082208054600019019055918716808252919020805460010190554260a01b17600160e11b17600085815260046020526040812091909155600160e11b84169003611a0c57600184016000818152600460205260408120549003611a0a576000548114611a0a5760008181526004602052604090208490555b505b83856001600160a01b0316876001600160a01b03167fddf252ad1be2c89b69c2b068fc378daa952ba7f163c4a11628f55a4df523b3ef60405160405180910390a4505050505050565b600082611a6285846120e4565b14949350505050565b600e546001600160a01b0316611abe5760405162461bcd60e51b81526020600482015260186024820152774e4f2042495445204259205649504552204144445245535360401b6044820152606401610afc565b611ac6612131565b80600d54611ad49190612927565b341015611b115760405162461bcd60e51b815260206004820152600b60248201526a57524f4e4720505249434560a81b6044820152606401610afc565b8060011480611b205750806003145b80611b2b5750806005145b611b885760405162461bcd60e51b815260206004820152602860248201527f43414e2754204d494e542042455349444553205155414e54495459204f4620316044820152672c2033204f52203560c01b6064820152608401610afc565b6001546000546101e69183910360001901611ba39190612a3f565b1115611c07576001546000540360001901611bc0906101e6612a57565b905080600003611c075760405162461bcd60e51b81526020600482015260126024820152711350560814d5541413164814915050d2115160721b6044820152606401610afc565b6000600d5482611c179190612927565b60105460405191925060009182916001600160a01b03169084908381818185875af1925050503d8060008114611c69576040519150601f19603f3d011682016040523d82523d6000602084013e611c6e565b606091505b50601054604051929450909250831515916001600160a01b0390911690600080516020612ae283398151915290611ca8908590889061297e565b60405180910390a3611cba85856120ca565b34831015611d495733611ccd8434612a57565b604051600081818185875af1925050503d8060008114611d09576040519150601f19603f3d011682016040523d82523d6000602084013e611d0e565b606091505b50909250905081151533600080516020612ae283398151915283611d328734612a57565b604051611d4092919061297e565b60405180910390a35b505050610d066001600b55565b60008180600111611dac57600054811015611dac5760008181526004602052604081205490600160e01b82169003611daa575b80600003610be4575060001901600081815260046020526040902054611d89565b505b604051636f96cda160e11b815260040160405180910390fd5b6008546001600160a01b031633146108b75760405162461bcd60e51b815260206004820181905260248201527f4f776e61626c653a2063616c6c6572206973206e6f7420746865206f776e65726044820152606401610afc565b600880546001600160a01b038381166001600160a01b0319831681179093556040519116919082907f8be0079c531659141344cd1fd0a4f28419497f9722a3daafe3b4186f6b6457e090600090a35050565b6127106001600160601b0382161115611edf5760405162461bcd60e51b815260206004820152602a60248201527f455243323938313a20726f79616c7479206665652077696c6c206578636565646044820152692073616c65507269636560b01b6064820152608401610afc565b6001600160a01b038216611f355760405162461bcd60e51b815260206004820152601960248201527f455243323938313a20696e76616c6964207265636569766572000000000000006044820152606401610afc565b604080518082019091526001600160a01b039092168083526001600160601b039091166020909201829052600160a01b90910217600955565b60408051608081018252600080825260208201819052918101829052606081019190915260008281526004602052604090205461092f9061218a565b604051630a85bd0160e11b81526000906001600160a01b0385169063150b7a0290611fdf903390899088908890600401612a6e565b6020604051808303816000875af192505050801561201a575060408051601f3d908101601f1916820190925261201791810190612aab565b60015b612078573d808015612048576040519150601f19603f3d011682016040523d82523d6000602084013e61204d565b606091505b508051600003612070576040516368d2bf6b60e11b815260040160405180910390fd5b805181602001fd5b6001600160e01b031916630a85bd0160e11b149050949350505050565b60408051608081018252600080825260208201819052918101829052606081019190915261092f6120c583611d56565b61218a565b610d068282604051806020016040528060008152506121d1565b600081815b8451811015612129576121158286838151811061210857612108612968565b602002602001015161223e565b91508061212181612ac8565b9150506120e9565b509392505050565b6002600b54036121835760405162461bcd60e51b815260206004820152601f60248201527f5265656e7472616e637947756172643a207265656e7472616e742063616c6c006044820152606401610afc565b6002600b55565b604080516080810182526001600160a01b038316815260a083901c6001600160401b03166020820152600160e01b831615159181019190915260e89190911c606082015290565b6121db838361226a565b6001600160a01b0383163b15610b63576000548281035b6122056000868380600101945086611faa565b612222576040516368d2bf6b60e11b815260040160405180910390fd5b8181106121f257816000541461223757600080fd5b5050505050565b600081831061225a576000828152602084905260409020610be4565b5060009182526020526040902090565b600080549082900361228f5760405163b562e8dd60e01b815260040160405180910390fd5b6001600160a01b03831660008181526005602090815260408083208054680100000000000000018802019055848352600490915281206001851460e11b4260a01b178317905582840190839083907fddf252ad1be2c89b69c2b068fc378daa952ba7f163c4a11628f55a4df523b3ef8180a4600183015b81811461233e57808360007fddf252ad1be2c89b69c2b068fc378daa952ba7f163c4a11628f55a4df523b3ef600080a4600101612306565b508160000361235f57604051622e076360e81b815260040160405180910390fd5b60005550505050565b6001600160e01b031981168114610e0657600080fd5b60006020828403121561239057600080fd5b8135610be481612368565b60005b838110156123b657818101518382015260200161239e565b838111156111fa5750506000910152565b600081518084526123df81602086016020860161239b565b601f01601f19169290920160200192915050565b602081526000610be460208301846123c7565b60006020828403121561241857600080fd5b5035919050565b6001600160a01b0381168114610e0657600080fd5b6000806040838503121561244757600080fd5b82356124528161241f565b946020939093013593505050565b60008060006060848603121561247557600080fd5b83356124808161241f565b925060208401356124908161241f565b929592945050506040919091013590565b60008083601f8401126124b357600080fd5b5081356001600160401b038111156124ca57600080fd5b6020830191508360208260051b8501011115610caa57600080fd5b6000806000604084860312156124fa57600080fd5b83356125058161241f565b925060208401356001600160401b0381111561252057600080fd5b61252c868287016124a1565b9497909650939450505050565b6000806040838503121561254c57600080fd5b50508035926020909101359150565b6000806020838503121561256e57600080fd5b82356001600160401b0381111561258457600080fd5b612590858286016124a1565b90969095509350505050565b80516001600160a01b031682526020808201516001600160401b03169083015260408082015115159083015260609081015162ffffff16910152565b6020808252825182820181905260009190848201906040850190845b81811015610f935761260783855161259c565b92840192608092909201916001016125f4565b60006020828403121561262c57600080fd5b8135610be48161241f565b6000806040838503121561264a57600080fd5b82356126558161241f565b915060208301356001600160601b038116811461267157600080fd5b809150509250929050565b6020808252825182820181905260009190848201906040850190845b81811015610f9357835183529284019291840191600101612698565b6000806000606084860312156126c957600080fd5b83356126d48161241f565b95602085013595506040909401359392505050565b803580151581146126f957600080fd5b919050565b6000806040838503121561271157600080fd5b823561271c8161241f565b915061272a602084016126e9565b90509250929050565b634e487b7160e01b600052604160045260246000fd5b604051601f8201601f191681016001600160401b038111828210171561277157612771612733565b604052919050565b60006001600160401b0382111561279257612792612733565b50601f01601f191660200190565b600080600080608085870312156127b657600080fd5b84356127c18161241f565b935060208501356127d18161241f565b92506040850135915060608501356001600160401b038111156127f357600080fd5b8501601f8101871361280457600080fd5b803561281761281282612779565b612749565b81815288602083850101111561282c57600080fd5b8160208401602083013760006020838301015280935050505092959194509250565b60006020828403121561286057600080fd5b610be4826126e9565b6080810161092f828461259c565b6000806040838503121561288a57600080fd5b82356128958161241f565b915060208301356126718161241f565b6000806000604084860312156128ba57600080fd5b8335925060208401356001600160401b0381111561252057600080fd5b600181811c908216806128eb57607f821691505b60208210810361290b57634e487b7160e01b600052602260045260246000fd5b50919050565b634e487b7160e01b600052601160045260246000fd5b600081600019048311821515161561294157612941612911565b500290565b60008261296357634e487b7160e01b600052601260045260246000fd5b500490565b634e487b7160e01b600052603260045260246000fd5b60408152600061299160408301856123c7565b90508260208301529392505050565b6000602082840312156129b257600080fd5b81516001600160401b038111156129c857600080fd5b8201601f810184136129d957600080fd5b80516129e761281282612779565b8181528560208385010111156129fc57600080fd5b612a0d82602083016020860161239b565b95945050505050565b6020808252600f908201526e4e4f205a45524f204144445245535360881b604082015260600190565b60008219821115612a5257612a52612911565b500190565b600082821015612a6957612a69612911565b500390565b6001600160a01b0385811682528416602082015260408101839052608060608201819052600090612aa1908301846123c7565b9695505050505050565b600060208284031215612abd57600080fd5b8151610be481612368565b600060018201612ada57612ada612911565b506001019056feb08889abce443443404b2caf69aa3ccfb9ebfdf1ad2a634d06e11e24c1067938a2646970667358221220d534e2f3cddbd3f6b234e03960eb04b13433375abcd0f8d93bd14a6a85b0df4c64736f6c634300080f0033",
  "linkReferences": {},
  "deployedLinkReferences": {}
}