{
  "_format": "hh-sol-artifact-1",
  "contractName": "Viper",
  "sourceName": "contracts/Viper.sol",
  "abi": [
    {
      "inputs": [
        {
          "internalType": "address",
          "name": "controller_",
          "type": "address"
        },
        {
          "internalType": "address",
          "name": "metadata_",
          "type": "address"
        }
      ],
      "stateMutability": "nonpayable",
      "type": "constructor"
    },
    {
      "inputs": [],
      "name": "ApprovalCallerNotOwnerNorApproved",
      "type": "error"
    },
    {
      "inputs": [],
      "name": "ApprovalQueryForNonexistentToken",
      "type": "error"
    },
    {
      "inputs": [],
      "name": "BalanceQueryForZeroAddress",
      "type": "error"
    },
    {
      "inputs": [],
      "name": "InvalidQueryRange",
      "type": "error"
    },
    {
      "inputs": [],
      "name": "MintERC2309QuantityExceedsLimit",
      "type": "error"
    },
    {
      "inputs": [],
      "name": "MintToZeroAddress",
      "type": "error"
    },
    {
      "inputs": [],
      "name": "MintZeroQuantity",
      "type": "error"
    },
    {
      "inputs": [],
      "name": "OwnerQueryForNonexistentToken",
      "type": "error"
    },
    {
      "inputs": [],
      "name": "OwnershipNotInitializedForExtraData",
      "type": "error"
    },
    {
      "inputs": [],
      "name": "TransferCallerNotOwnerNorApproved",
      "type": "error"
    },
    {
      "inputs": [],
      "name": "TransferFromIncorrectOwner",
      "type": "error"
    },
    {
      "inputs": [],
      "name": "TransferToNonERC721ReceiverImplementer",
      "type": "error"
    },
    {
      "inputs": [],
      "name": "TransferToZeroAddress",
      "type": "error"
    },
    {
      "inputs": [],
      "name": "URIQueryForNonexistentToken",
      "type": "error"
    },
    {
      "anonymous": false,
      "inputs": [
        {
          "indexed": true,
          "internalType": "address",
          "name": "owner",
          "type": "address"
        },
        {
          "indexed": true,
          "internalType": "address",
          "name": "approved",
          "type": "address"
        },
        {
          "indexed": true,
          "internalType": "uint256",
          "name": "tokenId",
          "type": "uint256"
        }
      ],
      "name": "Approval",
      "type": "event"
    },
    {
      "anonymous": false,
      "inputs": [
        {
          "indexed": true,
          "internalType": "address",
          "name": "owner",
          "type": "address"
        },
        {
          "indexed": true,
          "internalType": "address",
          "name": "operator",
          "type": "address"
        },
        {
          "indexed": false,
          "internalType": "bool",
          "name": "approved",
          "type": "bool"
        }
      ],
      "name": "ApprovalForAll",
      "type": "event"
    },
    {
      "anonymous": false,
      "inputs": [
        {
          "indexed": true,
          "internalType": "uint256",
          "name": "fromTokenId",
          "type": "uint256"
        },
        {
          "indexed": false,
          "internalType": "uint256",
          "name": "toTokenId",
          "type": "uint256"
        },
        {
          "indexed": true,
          "internalType": "address",
          "name": "from",
          "type": "address"
        },
        {
          "indexed": true,
          "internalType": "address",
          "name": "to",
          "type": "address"
        }
      ],
      "name": "ConsecutiveTransfer",
      "type": "event"
    },
    {
      "anonymous": false,
      "inputs": [
        {
          "indexed": true,
          "internalType": "address",
          "name": "previousOwner",
          "type": "address"
        },
        {
          "indexed": true,
          "internalType": "address",
          "name": "newOwner",
          "type": "address"
        }
      ],
      "name": "OwnershipTransferred",
      "type": "event"
    },
    {
      "anonymous": false,
      "inputs": [
        {
          "indexed": true,
          "internalType": "address",
          "name": "from",
          "type": "address"
        },
        {
          "indexed": true,
          "internalType": "address",
          "name": "to",
          "type": "address"
        },
        {
          "indexed": true,
          "internalType": "uint256",
          "name": "tokenId",
          "type": "uint256"
        }
      ],
      "name": "Transfer",
      "type": "event"
    },
    {
      "inputs": [],
      "name": "MAX_SUPPLY",
      "outputs": [
        {
          "internalType": "uint256",
          "name": "",
          "type": "uint256"
        }
      ],
      "stateMutability": "view",
      "type": "function"
    },
    {
      "inputs": [
        {
          "internalType": "address",
          "name": "to",
          "type": "address"
        },
        {
          "internalType": "uint256",
          "name": "tokenId",
          "type": "uint256"
        }
      ],
      "name": "approve",
      "outputs": [],
      "stateMutability": "payable",
      "type": "function"
    },
    {
      "inputs": [
        {
          "internalType": "address",
          "name": "owner",
          "type": "address"
        }
      ],
      "name": "balanceOf",
      "outputs": [
        {
          "internalType": "uint256",
          "name": "",
          "type": "uint256"
        }
      ],
      "stateMutability": "view",
      "type": "function"
    },
    {
      "inputs": [],
      "name": "controller",
      "outputs": [
        {
          "internalType": "address",
          "name": "",
          "type": "address"
        }
      ],
      "stateMutability": "view",
      "type": "function"
    },
    {
      "inputs": [
        {
          "internalType": "address",
          "name": "recipient",
          "type": "address"
        },
        {
          "internalType": "uint256",
          "name": "quantity",
          "type": "uint256"
        }
      ],
      "name": "controllerMint",
      "outputs": [],
      "stateMutability": "nonpayable",
      "type": "function"
    },
    {
      "inputs": [
        {
          "internalType": "uint256",
          "name": "tokenId",
          "type": "uint256"
        }
      ],
      "name": "explicitOwnershipOf",
      "outputs": [
        {
          "components": [
            {
              "internalType": "address",
              "name": "addr",
              "type": "address"
            },
            {
              "internalType": "uint64",
              "name": "startTimestamp",
              "type": "uint64"
            },
            {
              "internalType": "bool",
              "name": "burned",
              "type": "bool"
            },
            {
              "internalType": "uint24",
              "name": "extraData",
              "type": "uint24"
            }
          ],
          "internalType": "struct IERC721A.TokenOwnership",
          "name": "",
          "type": "tuple"
        }
      ],
      "stateMutability": "view",
      "type": "function"
    },
    {
      "inputs": [
        {
          "internalType": "uint256[]",
          "name": "tokenIds",
          "type": "uint256[]"
        }
      ],
      "name": "explicitOwnershipsOf",
      "outputs": [
        {
          "components": [
            {
              "internalType": "address",
              "name": "addr",
              "type": "address"
            },
            {
              "internalType": "uint64",
              "name": "startTimestamp",
              "type": "uint64"
            },
            {
              "internalType": "bool",
              "name": "burned",
              "type": "bool"
            },
            {
              "internalType": "uint24",
              "name": "extraData",
              "type": "uint24"
            }
          ],
          "internalType": "struct IERC721A.TokenOwnership[]",
          "name": "",
          "type": "tuple[]"
        }
      ],
      "stateMutability": "view",
      "type": "function"
    },
    {
      "inputs": [
        {
          "internalType": "uint256",
          "name": "tokenId",
          "type": "uint256"
        }
      ],
      "name": "getApproved",
      "outputs": [
        {
          "internalType": "address",
          "name": "",
          "type": "address"
        }
      ],
      "stateMutability": "view",
      "type": "function"
    },
    {
      "inputs": [
        {
          "internalType": "address",
          "name": "owner",
          "type": "address"
        },
        {
          "internalType": "address",
          "name": "operator",
          "type": "address"
        }
      ],
      "name": "isApprovedForAll",
      "outputs": [
        {
          "internalType": "bool",
          "name": "",
          "type": "bool"
        }
      ],
      "stateMutability": "view",
      "type": "function"
    },
    {
      "inputs": [
        {
          "internalType": "uint256",
          "name": "",
          "type": "uint256"
        }
      ],
      "name": "lengths",
      "outputs": [
        {
          "internalType": "uint256",
          "name": "",
          "type": "uint256"
        }
      ],
      "stateMutability": "view",
      "type": "function"
    },
    {
      "inputs": [],
      "name": "metadata",
      "outputs": [
        {
          "internalType": "address",
          "name": "",
          "type": "address"
        }
      ],
      "stateMutability": "view",
      "type": "function"
    },
    {
      "inputs": [],
      "name": "mint",
      "outputs": [],
      "stateMutability": "payable",
      "type": "function"
    },
    {
      "inputs": [
        {
          "internalType": "uint256",
          "name": "quantity",
          "type": "uint256"
        }
      ],
      "name": "mint",
      "outputs": [],
      "stateMutability": "payable",
      "type": "function"
    },
    {
      "inputs": [],
      "name": "name",
      "outputs": [
        {
          "internalType": "string",
          "name": "",
          "type": "string"
        }
      ],
      "stateMutability": "view",
      "type": "function"
    },
    {
      "inputs": [],
      "name": "owner",
      "outputs": [
        {
          "internalType": "address",
          "name": "",
          "type": "address"
        }
      ],
      "stateMutability": "view",
      "type": "function"
    },
    {
      "inputs": [
        {
          "internalType": "uint256",
          "name": "tokenId",
          "type": "uint256"
        }
      ],
      "name": "ownerOf",
      "outputs": [
        {
          "internalType": "address",
          "name": "",
          "type": "address"
        }
      ],
      "stateMutability": "view",
      "type": "function"
    },
    {
      "inputs": [],
      "name": "renounceOwnership",
      "outputs": [],
      "stateMutability": "nonpayable",
      "type": "function"
    },
    {
      "inputs": [
        {
          "internalType": "uint256",
          "name": "_tokenId",
          "type": "uint256"
        },
        {
          "internalType": "uint256",
          "name": "_salePrice",
          "type": "uint256"
        }
      ],
      "name": "royaltyInfo",
      "outputs": [
        {
          "internalType": "address",
          "name": "",
          "type": "address"
        },
        {
          "internalType": "uint256",
          "name": "",
          "type": "uint256"
        }
      ],
      "stateMutability": "view",
      "type": "function"
    },
    {
      "inputs": [
        {
          "internalType": "address",
          "name": "from",
          "type": "address"
        },
        {
          "internalType": "address",
          "name": "to",
          "type": "address"
        },
        {
          "internalType": "uint256",
          "name": "tokenId",
          "type": "uint256"
        }
      ],
      "name": "safeTransferFrom",
      "outputs": [],
      "stateMutability": "payable",
      "type": "function"
    },
    {
      "inputs": [
        {
          "internalType": "address",
          "name": "from",
          "type": "address"
        },
        {
          "internalType": "address",
          "name": "to",
          "type": "address"
        },
        {
          "internalType": "uint256",
          "name": "tokenId",
          "type": "uint256"
        },
        {
          "internalType": "bytes",
          "name": "_data",
          "type": "bytes"
        }
      ],
      "name": "safeTransferFrom",
      "outputs": [],
      "stateMutability": "payable",
      "type": "function"
    },
    {
      "inputs": [
        {
          "internalType": "address",
          "name": "operator",
          "type": "address"
        },
        {
          "internalType": "bool",
          "name": "approved",
          "type": "bool"
        }
      ],
      "name": "setApprovalForAll",
      "outputs": [],
      "stateMutability": "nonpayable",
      "type": "function"
    },
    {
      "inputs": [
        {
          "internalType": "address",
          "name": "controller_",
          "type": "address"
        }
      ],
      "name": "setController",
      "outputs": [],
      "stateMutability": "nonpayable",
      "type": "function"
    },
    {
      "inputs": [
        {
          "internalType": "address",
          "name": "metadata_",
          "type": "address"
        }
      ],
      "name": "setMetadata",
      "outputs": [],
      "stateMutability": "nonpayable",
      "type": "function"
    },
    {
      "inputs": [
        {
          "internalType": "address",
          "name": "royaltyReceiver",
          "type": "address"
        },
        {
          "internalType": "uint96",
          "name": "royaltyPercentage",
          "type": "uint96"
        }
      ],
      "name": "setRoyaltyPercentage",
      "outputs": [],
      "stateMutability": "nonpayable",
      "type": "function"
    },
    {
      "inputs": [
        {
          "internalType": "bytes4",
          "name": "interfaceId",
          "type": "bytes4"
        }
      ],
      "name": "supportsInterface",
      "outputs": [
        {
          "internalType": "bool",
          "name": "",
          "type": "bool"
        }
      ],
      "stateMutability": "view",
      "type": "function"
    },
    {
      "inputs": [],
      "name": "symbol",
      "outputs": [
        {
          "internalType": "string",
          "name": "",
          "type": "string"
        }
      ],
      "stateMutability": "view",
      "type": "function"
    },
    {
      "inputs": [
        {
          "internalType": "uint256",
          "name": "id",
          "type": "uint256"
        }
      ],
      "name": "tokenURI",
      "outputs": [
        {
          "internalType": "string",
          "name": "",
          "type": "string"
        }
      ],
      "stateMutability": "view",
      "type": "function"
    },
    {
      "inputs": [
        {
          "internalType": "address",
          "name": "owner",
          "type": "address"
        }
      ],
      "name": "tokensOfOwner",
      "outputs": [
        {
          "internalType": "uint256[]",
          "name": "",
          "type": "uint256[]"
        }
      ],
      "stateMutability": "view",
      "type": "function"
    },
    {
      "inputs": [
        {
          "internalType": "address",
          "name": "owner",
          "type": "address"
        },
        {
          "internalType": "uint256",
          "name": "start",
          "type": "uint256"
        },
        {
          "internalType": "uint256",
          "name": "stop",
          "type": "uint256"
        }
      ],
      "name": "tokensOfOwnerIn",
      "outputs": [
        {
          "internalType": "uint256[]",
          "name": "",
          "type": "uint256[]"
        }
      ],
      "stateMutability": "view",
      "type": "function"
    },
    {
      "inputs": [],
      "name": "totalSupply",
      "outputs": [
        {
          "internalType": "uint256",
          "name": "",
          "type": "uint256"
        }
      ],
      "stateMutability": "view",
      "type": "function"
    },
    {
      "inputs": [
        {
          "internalType": "address",
          "name": "from",
          "type": "address"
        },
        {
          "internalType": "address",
          "name": "to",
          "type": "address"
        },
        {
          "internalType": "uint256",
          "name": "tokenId",
          "type": "uint256"
        }
      ],
      "name": "transferFrom",
      "outputs": [],
      "stateMutability": "payable",
      "type": "function"
    },
    {
      "inputs": [
        {
          "internalType": "address",
          "name": "newOwner",
          "type": "address"
        }
      ],
      "name": "transferOwnership",
      "outputs": [],
      "stateMutability": "nonpayable",
      "type": "function"
    }
  ],
  "bytecode": "0x60806040523480156200001157600080fd5b5060405162002403380380620024038339810160408190526200003491620002bb565b604051806040016040528060058152602001642b34b832b960d91b815250604051806040016040528060038152602001622b282960e91b81525081600290816200007f919062000398565b5060036200008e828262000398565b5050600160005550620000a13362000147565b600b80546001600160a01b038085166001600160a01b03199283168117909355600c80549185169190921617905560408051631e6c022f60e11b815290516200013f9291633cd8045e9160048083019260209291908290030181865afa15801562000110573d6000803e3d6000fd5b505050506040513d601f19601f8201168201806040525081019062000136919062000464565b6103e862000199565b505062000489565b600880546001600160a01b038381166001600160a01b0319831681179093556040519116919082907f8be0079c531659141344cd1fd0a4f28419497f9722a3daafe3b4186f6b6457e090600090a35050565b6127106001600160601b03821611156200020d5760405162461bcd60e51b815260206004820152602a60248201527f455243323938313a20726f79616c7479206665652077696c6c206578636565646044820152692073616c65507269636560b01b60648201526084015b60405180910390fd5b6001600160a01b038216620002655760405162461bcd60e51b815260206004820152601960248201527f455243323938313a20696e76616c696420726563656976657200000000000000604482015260640162000204565b604080518082019091526001600160a01b039092168083526001600160601b039091166020909201829052600160a01b90910217600955565b80516001600160a01b0381168114620002b657600080fd5b919050565b60008060408385031215620002cf57600080fd5b620002da836200029e565b9150620002ea602084016200029e565b90509250929050565b634e487b7160e01b600052604160045260246000fd5b600181811c908216806200031e57607f821691505b6020821081036200033f57634e487b7160e01b600052602260045260246000fd5b50919050565b601f8211156200039357600081815260208120601f850160051c810160208610156200036e5750805b601f850160051c820191505b818110156200038f578281556001016200037a565b5050505b505050565b81516001600160401b03811115620003b457620003b4620002f3565b620003cc81620003c5845462000309565b8462000345565b602080601f831160018114620004045760008415620003eb5750858301515b600019600386901b1c1916600185901b1785556200038f565b600085815260208120601f198616915b82811015620004355788860151825594840194600190910190840162000414565b5085821015620004545787850151600019600388901b60f8161c191681555b5050505050600190811b01905550565b6000602082840312156200047757600080fd5b62000482826200029e565b9392505050565b611f6a80620004996000396000f3fe6080604052600436106101e35760003560e01c8063715018a611610102578063a22cb46511610095578063e985e9c511610064578063e985e9c51461056b578063f2fde38b146105b4578063f3cb8385146105d4578063f77c4791146105f457600080fd5b8063a22cb465146104eb578063b88d4fde1461050b578063c23dc68f1461051e578063c87b56dd1461054b57600080fd5b806392eefe9b116100d157806392eefe9b1461048357806395d89b41146104a357806399a2557a146104b8578063a0712d68146104d857600080fd5b8063715018a614610403578063818779ef146104185780638462151c146104385780638da5cb5b1461046557600080fd5b80632a55205a1161017a5780635bbb2177116101495780635bbb2177146103765780635d7b0758146103a35780636352211e146103c357806370a08231146103e357600080fd5b80632a55205a146102ee57806332cb6b0c1461032d578063392f37e91461034357806342842e0e1461036357600080fd5b80631249c58b116101b65780631249c58b1461028c57806318160ddd1461029457806323b872dd146102bb57806325e3d69f146102ce57600080fd5b806301ffc9a7146101e857806306fdde031461021d578063081812fc1461023f578063095ea7b314610277575b600080fd5b3480156101f457600080fd5b50610208610203366004611916565b610614565b60405190151581526020015b60405180910390f35b34801561022957600080fd5b50610232610675565b604051610214919061198b565b34801561024b57600080fd5b5061025f61025a36600461199e565b610707565b6040516001600160a01b039091168152602001610214565b61028a6102853660046119d3565b61074b565b005b61028a6107eb565b3480156102a057600080fd5b5060015460005403600019015b604051908152602001610214565b61028a6102c93660046119fd565b610853565b3480156102da57600080fd5b506102ad6102e936600461199e565b610950565b3480156102fa57600080fd5b5061030e610309366004611a39565b610968565b604080516001600160a01b039093168352602083019190915201610214565b34801561033957600080fd5b506102ad6101d481565b34801561034f57600080fd5b50600c5461025f906001600160a01b031681565b61028a6103713660046119fd565b610a14565b34801561038257600080fd5b50610396610391366004611a5b565b610a34565b6040516102149190611b0d565b3480156103af57600080fd5b5061028a6103be3660046119d3565b610b00565b3480156103cf57600080fd5b5061025f6103de36600461199e565b610bc3565b3480156103ef57600080fd5b506102ad6103fe366004611b4f565b610bce565b34801561040f57600080fd5b5061028a610c1d565b34801561042457600080fd5b5061028a610433366004611b6a565b610c31565b34801561044457600080fd5b50610458610453366004611b4f565b610c47565b6040516102149190611bad565b34801561047157600080fd5b506008546001600160a01b031661025f565b34801561048f57600080fd5b5061028a61049e366004611b4f565b610d50565b3480156104af57600080fd5b50610232610d7a565b3480156104c457600080fd5b506104586104d3366004611be5565b610d89565b61028a6104e636600461199e565b610f11565b3480156104f757600080fd5b5061028a610506366004611c18565b610f7a565b61028a610519366004611cb8565b610fe6565b34801561052a57600080fd5b5061053e61053936600461199e565b61102a565b6040516102149190611d63565b34801561055757600080fd5b5061023261056636600461199e565b6110b2565b34801561057757600080fd5b50610208610586366004611d71565b6001600160a01b03918216600090815260076020908152604080832093909416825291909152205460ff1690565b3480156105c057600080fd5b5061028a6105cf366004611b4f565b611124565b3480156105e057600080fd5b5061028a6105ef366004611b4f565b61119d565b34801561060057600080fd5b50600b5461025f906001600160a01b031681565b60006001600160e01b031982166380ac58cd60e01b148061064557506001600160e01b03198216635b5e139f60e01b145b8061066057506001600160e01b0319821663152a902d60e11b145b8061066f575061066f826111c7565b92915050565b60606002805461068490611da4565b80601f01602080910402602001604051908101604052809291908181526020018280546106b090611da4565b80156106fd5780601f106106d2576101008083540402835291602001916106fd565b820191906000526020600020905b8154815290600101906020018083116106e057829003601f168201915b5050505050905090565b6000610712826111fc565b61072f576040516333d1c03960e21b815260040160405180910390fd5b506000908152600660205260409020546001600160a01b031690565b600061075682610bc3565b9050336001600160a01b0382161461078f576107728133610586565b61078f576040516367d9dca160e11b815260040160405180910390fd5b60008281526006602052604080822080546001600160a01b0319166001600160a01b0387811691821790925591518593918516917f8c5be1e5ebec7d5bd14f71427d1e84f3dd0314c0f7b2291e5b200ac8c7c3b92591a4505050565b600b546040516340c10f1960e01b8152336004820152600160248201526001600160a01b03909116906340c10f199034906044016000604051808303818588803b15801561083857600080fd5b505af115801561084c573d6000803e3d6000fd5b5050505050565b600061085e82610bc3565b90506001600160a01b038116330361093f576000600d836101d4811061088657610886611dde565b0154600b549091506001600160a01b03166308d744438686866108aa866001611e0a565b6040516001600160e01b031960e087901b1681526001600160a01b03948516600482015293909216602484015260448301526064820152608401600060405180830381600087803b1580156108fe57600080fd5b505af1158015610912573d6000803e3d6000fd5b505050508060016109239190611e0a565b600d846101d4811061093757610937611dde565b01555061094a565b61094a848484611231565b50505050565b600d816101d4811061096157600080fd5b0154905081565b6000828152600a602090815260408083208151808301909252546001600160a01b038116808352600160a01b9091046001600160601b03169282019290925282916109dd5750604080518082019091526009546001600160a01b0381168252600160a01b90046001600160601b031660208201525b6020810151600090612710906109fc906001600160601b031687611e22565b610a069190611e41565b915196919550909350505050565b610a2f83838360405180602001604052806000815250610fe6565b505050565b60608160008167ffffffffffffffff811115610a5257610a52611c49565b604051908082528060200260200182016040528015610aa457816020015b604080516080810182526000808252602080830182905292820181905260608201528252600019909201910181610a705790505b50905060005b828114610af757610ad2868683818110610ac657610ac6611dde565b9050602002013561102a565b828281518110610ae457610ae4611dde565b6020908102919091010152600101610aaa565b50949350505050565b600b546001600160a01b03163314610b505760405162461bcd60e51b815260206004820152600e60248201526d2727aa1021a7a72a2927a62622a960911b60448201526064015b60405180910390fd5b6000610b656001546000546000199190030190565b610b70906001611e0a565b90506101d4811115610bb95760405162461bcd60e51b81526020600482015260126024820152711350560814d5541413164814915050d2115160721b6044820152606401610b47565b610a2f83836113c6565b600061066f826113e0565b60006001600160a01b038216610bf7576040516323d3ad8160e21b815260040160405180910390fd5b506001600160a01b031660009081526005602052604090205467ffffffffffffffff1690565b610c2561144f565b610c2f60006114a9565b565b610c3961144f565b610c4382826114fb565b5050565b60606000806000610c5785610bce565b905060008167ffffffffffffffff811115610c7457610c74611c49565b604051908082528060200260200182016040528015610c9d578160200160208202803683370190505b509050610cca60408051608081018252600080825260208201819052918101829052606081019190915290565b60015b838614610d4457610cdd816115f8565b91508160400151610d3c5781516001600160a01b031615610cfd57815194505b876001600160a01b0316856001600160a01b031603610d3c5780838780600101985081518110610d2f57610d2f611dde565b6020026020010181815250505b600101610ccd565b50909695505050505050565b610d5861144f565b600b80546001600160a01b0319166001600160a01b0392909216919091179055565b60606003805461068490611da4565b6060818310610dab57604051631960ccad60e11b815260040160405180910390fd5b600080610db760005490565b90506001851015610dc757600194505b80841115610dd3578093505b6000610dde87610bce565b905084861015610dfd5785850381811015610df7578091505b50610e01565b5060005b60008167ffffffffffffffff811115610e1c57610e1c611c49565b604051908082528060200260200182016040528015610e45578160200160208202803683370190505b50905081600003610e5b579350610f0a92505050565b6000610e668861102a565b905060008160400151610e77575080515b885b888114158015610e895750848714155b15610efe57610e97816115f8565b92508260400151610ef65782516001600160a01b031615610eb757825191505b8a6001600160a01b0316826001600160a01b031603610ef65780848880600101995081518110610ee957610ee9611dde565b6020026020010181815250505b600101610e79565b50505092835250909150505b9392505050565b600b546040516340c10f1960e01b8152336004820152602481018390526001600160a01b03909116906340c10f199034906044016000604051808303818588803b158015610f5e57600080fd5b505af1158015610f72573d6000803e3d6000fd5b505050505050565b3360008181526007602090815260408083206001600160a01b03871680855290835292819020805460ff191686151590811790915590519081529192917f17307eab39ab6107e8899845ad3d59bd9653f200f220920489ca2b5937696c31910160405180910390a35050565b610ff1848484610853565b6001600160a01b0383163b1561094a5761100d84848484611634565b61094a576040516368d2bf6b60e11b815260040160405180910390fd5b604080516080810182526000808252602082018190529181018290526060810191909152604080516080810182526000808252602082018190529181018290526060810191909152600183108061108357506000548310155b1561108e5792915050565b611097836115f8565b90508060400151156110a95792915050565b610f0a8361171f565b600c5460405163295d33a960e21b8152600481018390526060916001600160a01b03169063a574cea490602401600060405180830381865afa1580156110fc573d6000803e3d6000fd5b505050506040513d6000823e601f3d908101601f1916820160405261066f9190810190611e63565b61112c61144f565b6001600160a01b0381166111915760405162461bcd60e51b815260206004820152602660248201527f4f776e61626c653a206e6577206f776e657220697320746865207a65726f206160448201526564647265737360d01b6064820152608401610b47565b61119a816114a9565b50565b6111a561144f565b600c80546001600160a01b0319166001600160a01b0392909216919091179055565b60006001600160e01b0319821663152a902d60e11b148061066f57506301ffc9a760e01b6001600160e01b031983161461066f565b600081600111158015611210575060005482105b801561066f575050600090815260046020526040902054600160e01b161590565b600061123c826113e0565b9050836001600160a01b0316816001600160a01b03161461126f5760405162a1148160e81b815260040160405180910390fd5b60008281526006602052604090208054338082146001600160a01b038816909114176112bc5761129f8633610586565b6112bc57604051632ce44b5f60e11b815260040160405180910390fd5b6001600160a01b0385166112e357604051633a954ecd60e21b815260040160405180910390fd5b80156112ee57600082555b6001600160a01b038681166000908152600560205260408082208054600019019055918716808252919020805460010190554260a01b17600160e11b17600085815260046020526040812091909155600160e11b841690036113805760018401600081815260046020526040812054900361137e57600054811461137e5760008181526004602052604090208490555b505b83856001600160a01b0316876001600160a01b03167fddf252ad1be2c89b69c2b068fc378daa952ba7f163c4a11628f55a4df523b3ef60405160405180910390a4610f72565b610c43828260405180602001604052806000815250611754565b60008180600111611436576000548110156114365760008181526004602052604081205490600160e01b82169003611434575b80600003610f0a575060001901600081815260046020526040902054611413565b505b604051636f96cda160e11b815260040160405180910390fd5b6008546001600160a01b03163314610c2f5760405162461bcd60e51b815260206004820181905260248201527f4f776e61626c653a2063616c6c6572206973206e6f7420746865206f776e65726044820152606401610b47565b600880546001600160a01b038381166001600160a01b0319831681179093556040519116919082907f8be0079c531659141344cd1fd0a4f28419497f9722a3daafe3b4186f6b6457e090600090a35050565b6127106001600160601b03821611156115695760405162461bcd60e51b815260206004820152602a60248201527f455243323938313a20726f79616c7479206665652077696c6c206578636565646044820152692073616c65507269636560b01b6064820152608401610b47565b6001600160a01b0382166115bf5760405162461bcd60e51b815260206004820152601960248201527f455243323938313a20696e76616c6964207265636569766572000000000000006044820152606401610b47565b604080518082019091526001600160a01b039092168083526001600160601b039091166020909201829052600160a01b90910217600955565b60408051608081018252600080825260208201819052918101829052606081019190915260008281526004602052604090205461066f906117ba565b604051630a85bd0160e11b81526000906001600160a01b0385169063150b7a0290611669903390899088908890600401611eda565b6020604051808303816000875af19250505080156116a4575060408051601f3d908101601f191682019092526116a191810190611f17565b60015b611702573d8080156116d2576040519150601f19603f3d011682016040523d82523d6000602084013e6116d7565b606091505b5080516000036116fa576040516368d2bf6b60e11b815260040160405180910390fd5b805181602001fd5b6001600160e01b031916630a85bd0160e11b149050949350505050565b60408051608081018252600080825260208201819052918101829052606081019190915261066f61174f836113e0565b6117ba565b61175e8383611802565b6001600160a01b0383163b15610a2f576000548281035b6117886000868380600101945086611634565b6117a5576040516368d2bf6b60e11b815260040160405180910390fd5b81811061177557816000541461084c57600080fd5b604080516080810182526001600160a01b038316815260a083901c67ffffffffffffffff166020820152600160e01b831615159181019190915260e89190911c606082015290565b60008054908290036118275760405163b562e8dd60e01b815260040160405180910390fd5b6001600160a01b03831660008181526005602090815260408083208054680100000000000000018802019055848352600490915281206001851460e11b4260a01b178317905582840190839083907fddf252ad1be2c89b69c2b068fc378daa952ba7f163c4a11628f55a4df523b3ef8180a4600183015b8181146118d657808360007fddf252ad1be2c89b69c2b068fc378daa952ba7f163c4a11628f55a4df523b3ef600080a460010161189e565b50816000036118f757604051622e076360e81b815260040160405180910390fd5b60005550505050565b6001600160e01b03198116811461119a57600080fd5b60006020828403121561192857600080fd5b8135610f0a81611900565b60005b8381101561194e578181015183820152602001611936565b8381111561094a5750506000910152565b60008151808452611977816020860160208601611933565b601f01601f19169290920160200192915050565b602081526000610f0a602083018461195f565b6000602082840312156119b057600080fd5b5035919050565b80356001600160a01b03811681146119ce57600080fd5b919050565b600080604083850312156119e657600080fd5b6119ef836119b7565b946020939093013593505050565b600080600060608486031215611a1257600080fd5b611a1b846119b7565b9250611a29602085016119b7565b9150604084013590509250925092565b60008060408385031215611a4c57600080fd5b50508035926020909101359150565b60008060208385031215611a6e57600080fd5b823567ffffffffffffffff80821115611a8657600080fd5b818501915085601f830112611a9a57600080fd5b813581811115611aa957600080fd5b8660208260051b8501011115611abe57600080fd5b60209290920196919550909350505050565b80516001600160a01b0316825260208082015167ffffffffffffffff169083015260408082015115159083015260609081015162ffffff16910152565b6020808252825182820181905260009190848201906040850190845b81811015610d4457611b3c838551611ad0565b9284019260809290920191600101611b29565b600060208284031215611b6157600080fd5b610f0a826119b7565b60008060408385031215611b7d57600080fd5b611b86836119b7565b915060208301356001600160601b0381168114611ba257600080fd5b809150509250929050565b6020808252825182820181905260009190848201906040850190845b81811015610d4457835183529284019291840191600101611bc9565b600080600060608486031215611bfa57600080fd5b611c03846119b7565b95602085013595506040909401359392505050565b60008060408385031215611c2b57600080fd5b611c34836119b7565b915060208301358015158114611ba257600080fd5b634e487b7160e01b600052604160045260246000fd5b604051601f8201601f1916810167ffffffffffffffff81118282101715611c8857611c88611c49565b604052919050565b600067ffffffffffffffff821115611caa57611caa611c49565b50601f01601f191660200190565b60008060008060808587031215611cce57600080fd5b611cd7856119b7565b9350611ce5602086016119b7565b925060408501359150606085013567ffffffffffffffff811115611d0857600080fd5b8501601f81018713611d1957600080fd5b8035611d2c611d2782611c90565b611c5f565b818152886020838501011115611d4157600080fd5b8160208401602083013760006020838301015280935050505092959194509250565b6080810161066f8284611ad0565b60008060408385031215611d8457600080fd5b611d8d836119b7565b9150611d9b602084016119b7565b90509250929050565b600181811c90821680611db857607f821691505b602082108103611dd857634e487b7160e01b600052602260045260246000fd5b50919050565b634e487b7160e01b600052603260045260246000fd5b634e487b7160e01b600052601160045260246000fd5b60008219821115611e1d57611e1d611df4565b500190565b6000816000190483118215151615611e3c57611e3c611df4565b500290565b600082611e5e57634e487b7160e01b600052601260045260246000fd5b500490565b600060208284031215611e7557600080fd5b815167ffffffffffffffff811115611e8c57600080fd5b8201601f81018413611e9d57600080fd5b8051611eab611d2782611c90565b818152856020838501011115611ec057600080fd5b611ed1826020830160208601611933565b95945050505050565b6001600160a01b0385811682528416602082015260408101839052608060608201819052600090611f0d9083018461195f565b9695505050505050565b600060208284031215611f2957600080fd5b8151610f0a8161190056fea2646970667358221220b1d287898135a54285135d7a9d92833b703ac96f9be9868eaed7df7b9f2429f764736f6c634300080f0033",
  "linkReferences": {},
  "deployedLinkReferences": {}
}